:020000040800F2
:10000000C02E00209D010008DD1D0008D716000845
:10001000D91D00086D0800086F2B000800000000C3
:1000200000000000000000000000000005010008C2
:10003000410F0008000000004901000841250008A8
:10004000B7010008B7010008B7010008B7010008B0
:10005000B7010008B7010008E9130008B70100085C
:10006000B7010008B7010008B7010008B701000890
:10007000B7010008B7010008E50B00083D0C0008B7
:10008000B7010008B7010008B7010008B701000870
:10009000B7010008B7010008B7010008B701000860
:1000A000B7010008B7010008B7010008B701000850
:1000B000B7010008B7010008B7010008B701000840
:1000C000B7010008B7010008B7010008B701000830
:1000D000B701000835290008B7010008B70100087A
:1000E0002D140008B7010008B7010008DFF810D090
:1000F00000F0F6FA0048004711350008AFF3008021
:10010000C02E0020224B19680868B0E8F00F80F379
:100110000988BFF36F8F4FF0000080F311884EF015
:100120000D0E70470000000006480068006880F36C
:10013000088862B661B6BFF34F8FBFF36F8F00DFE1
:1001400000BF00BF08ED00E0EFF30980BFF36F8F41
:100150000F4B1A6820E9F00F106008B54FF05000FF
:1001600080F31188BFF34F8FBFF36F8F04F012FD40
:100170004FF0000080F31188BDE808401968086856
:10018000B0E8F00F80F30988BFF36F8F704700BFAE
:10019000DC000020EFF30580704700000648804730
:1001A00006480047FEE7FEE7FEE7FEE7FEE7FEE75C
:1001B000FEE7FEE7FEE7FEE751250008ED00000838
:1001C00040EA01039B0703D009E008C9121F08C0D9
:1001D000042AFAD203E011F8013B00F8013B521E59
:1001E000F9D27047D2B201E000F8012B491EFBD2D0
:1001F00070470022F6E710B513460A460446194632
:10020000FFF7F0FF204610BD2DE9FE4F81EA030401
:1002100004F0004421F0004100944FF0000B23F063
:10022000004350EA01045ED052EA03045BD0C3F3FA
:100230000A54C1F30A552C44A4F2F3340194A0FBF0
:100240000254C1F3130141F48011C3F3130343F4C7
:10025000801301FB024400FB034E840A970A44EA20
:10026000815447EA8357A4FB076802958D0A05FB72
:1002700007854FEA932C04FB0C542705029D4FEA97
:10028000065847EA1637B5EB08056EEB070C870EE4
:10029000920E47EA811742EA8312A7FB0201B6EBEE
:1002A0000B0164EB00042B0D43EA0C335E1844EBA6
:1002B0001C50DA465146E7FB0201C5F313044FEA2E
:1002C0000B3343EA14534FEA0432019C43EA06031A
:1002D000A4F10C040294009CCDE900B400F0DBF81A
:1002E00003B0BDE8F08F00200146F9E72DE9F04D9D
:1002F00081EA030404F0004B21F0004514464FF05E
:10030000000A23F0004150EA050220D054EA01021D
:100310001DD0C5F30A570246C5F31303C1F31300FA
:10032000C1F30A5640F4801543F48013A7EB060886
:10033000101BD64608F2FD3873EB050002D308F116
:10034000010801E092185B41B8F1000F03DA0020C8
:100350000146BDE8F08D00204FF48011064684462A
:100360000EE0171B73EB050705D3121B63EB0503A8
:1003700006434CEA010C49084FEA300092185B41F1
:1003800050EA0107EDD152EA030012D082EA0400DC
:1003900083EA0501084305D0101BAB4106D20122B8
:1003A000002306E000224FF0004302E06FF001025C
:1003B00053101AEB06004CEB085110EB0A0041EB0E
:1003C0000B01BDE8F04D00F057B830B50B460146C3
:1003D00000202022012409E021FA02F59D4205D3E4
:1003E00003FA02F5491B04FA02F52844151EA2F18E
:1003F0000102F1DC30BD2DE9F05F05460020924698
:100400009B4688460646814640241BE028464146D6
:100410004746224600F020F853465A46C01A9141FA
:1004200010D311461846224600F06CF92D1A67EBDE
:1004300001084F4622460120002100F063F917EB26
:1004400000094E41201EA4F10104DFDC484631467C
:100450002A464346BDE8F09F202A04DB203A21FAD1
:1004600002F00021704721FA02F3D040C2F12002CD
:10047000914008431946704710B5141E73F10004EB
:1004800008DA401C41F1000192185B411A4301D186
:1004900020F0010010BD2DE9F04D92469B4611B1B0
:1004A000B1FA81F202E0B0FA80F22032904600F018
:1004B00029F904460F4640EA0A0041EA0B01534677
:1004C0005A46084313D0114653EA010019D0C8F127
:1004D00040025046FFF7C0FF05460E4650465946BB
:1004E000424600F00FF9084305D0012004E0204601
:1004F0003946BDE8F08D0020054346EAE0762C43FE
:1005000037430A986305E40AA0EB08000022FD0ABD
:1005100044EA47540A3002D500200146E9E70105C4
:1005200010196941DDE9084500196941BDE8F04D40
:10053000A2E72DE9FE4F804681EA0300C00F0C467A
:10054000009021F0004123F00045B8EB0200A941E2
:1005500005D24046214690461C460B46024623F0F3
:100560000040104347D0270DC7F30A00C3F30A51D8
:100570000290401A019040286BDAC3F3130040F454
:10058000801B0098924620B10023D2EB030A63EB54
:100590000B0B01985946C0F14002504600F0B2F8EA
:1005A00006460D4650465946019A00F0BAF810EB3F
:1005B00008006141002487EA115284EAE7731A4374
:1005C00040D0009A62B3019A012A4FEA075215DC23
:1005D000001B61EB02014FF0004202EA0752CDE935
:1005E0000042001C41F5801132462B46FFF753FFB5
:1005F00003B0BDE8F08F40462146F9E7001B61EBF0
:100600000201001C41F5801300185B412018A2F57F
:10061000001747EB030140EAD570B6196D4111E0B0
:100620006D084FEA360645EAC0754FEA0752001BCF
:1006300061EB0201001C41F5801149084FEA3000CE
:100640000019514132462B4603B0BDE8F04FFFF789
:1006500013BF0098012240000023D0EB020263EB9D
:10066000E073009821464FEAE074B8EB000061EBBC
:100670000401E9E783F000435BE781F0004158E7BC
:10068000C1F30A52C1F3130140F2FF3341F4801168
:100690009A4202DA00200146704740F233439A4200
:1006A000A2F2334202DC5242FFF7D6BE00F02AB873
:1006B00030B5041E71F1000404DB4FF000444042E9
:1006C00064EB0101141E73F1000405DB1C464FF0BE
:1006D0000043524263EB0403994208BF904230BD8D
:1006E000064C074D06E0E06840F0010394E807007F
:1006F00098471034AC42F6D3FFF7FCFC3C8400086A
:100700005C840008202A04DB203A00FA02F1002071
:1007100070479140C2F1200320FA03F3194390403F
:100720007047202A06DBCB17203A41FA02F043EA51
:10073000E07306E041FA02F3D040C2F1200291409A
:1007400008431946704770B58C1810F8015B15F016
:10075000070301D110F8013B2A1106D110F8012B33
:1007600003E010F8016B01F8016B5B1EF9D12B0758
:1007700005D40023521E0DD401F8013BFAE710F80E
:10078000013BCB1A921C03E013F8015B01F8015BFB
:10079000521EF9D5A142D8D3002070BD08B500F093
:1007A00093F801F025FC01F05DFB15484023712210
:1007B00000210090072001F081FBC82000F081FBA0
:1007C00010484023712200210090072001F076FBA1
:1007D0004FF4967000F075FB0B4840237122002106
:1007E0000090072001F06AFB4FF4FA7000F069FBFB
:1007F00001200649087006A003F078FD08BD00003E
:10080000B48000082C7D00081C760008D40000206D
:100810004170705F496E697420636F6D706C6574B0
:10082000652E0D0A0000000010B54FF4407001F075
:100830000FFB00F071FB01F0B5F901F04FFA01F088
:100840006DF801F01FFF00F027F802A003F04EFD45
:1008500010BD00004273705F496E697420636F6D54
:10086000706C6574652E0D0A0000000000BFFEE785
:1008700038B50446002000904FF48050ADF80000D9
:100880008DF8034003208DF802006946014800F00E
:1008900083FE38BD000C014008B500200090012106
:1008A000082001F05FFD4FF48050ADF800002820D3
:1008B0008DF8030003208DF802006946014800F01E
:1008C0006BFE08BD000C014010B50022052101207F
:1008D00004F032FA0149086010BD0000D800002081
:1008E00070B5002600253BE0002403E0641C0120D5
:1008F00000F0F4FA4FF480511B4800F0D8FE08B91C
:10090000362CF3D3362C01D3FF2070BD282000F005
:10091000E5FA4FF48051144800F0C9FE012805D1D2
:10092000C5F107018840C0B2064304E0C5F10701E4
:10093000012088408643002403E0641C012000F06D
:10094000CDFA4FF48051084800F0B1FE012801D1E2
:10095000232CF2D3232C01D3FF20D6E7681CC5B289
:10096000082DC1DB3046D0E7000C014070B50446CD
:1009700000251420FFF77CFF4FF48051384800F029
:100980009FFE142000F09DFA4FF48051344800F08F
:1009900099FE4820FFF76CFF142000F09FFA4FF4F7
:1009A00080512F4800F083FE002856D100BF09E097
:1009B0002846691CCDB2532801DD002070BD0120FE
:1009C00000F08CFA4FF48051254800F070FE0028AA
:1009D000EED0002509E02846691CCDB2572801DD7C
:1009E0000020EBE7012000F079FA4FF480511C4819
:1009F00000F05DFE0128EED0FFF772FF2070FFF7D8
:100A00006FFF6070FFF76CFFA070FFF769FFE07089
:100A1000FFF766FF2071362000F060FA2078FF288B
:100A20000BD06078FF2808D0A078FF2805D0E078A8
:100A3000FF2802D02079FF2801D10020BEE72078CE
:100A400061780844A1780844E17808442179884213
:100A500001D10120B2E70020B0E70020AEE700009E
:100A6000000C01401CB50221274801F0B1F900201B
:100A70000090019025A003F039FC44E06846FFF7A0
:100A800075FF012838D102230022694624480068F6
:100A900004F0CEFA01282BD122A003F027FC9DF808
:100AA000010000F0800038B19DF801209DF8001091
:100AB00022A003F01BFC06E09DF801209DF8001029
:100AC00025A003F013FC9DF8030000F0800038B16E
:100AD0009DF803209DF8021026A003F007FC0EE00D
:100AE0009DF803209DF8021028A003F0FFFB06E00C
:100AF0002CA003F0FBFB02E033A003F0F7FB4FF464
:100B0000FA7003F097FEB9E70008014044485431F9
:100B100031207461736B2073746172742E0D0A003E
:100B2000D80000204448543131E695B0E68DAEE659
:100B30009BB4E696B0EFBC9A00000000E6B9BFE5B2
:100B4000BAA6E4B8BA202D25642E2564EFBC85EF43
:100B5000BCB2EFBCA8200000E6B9BFE5BAA6E4B875
:100B6000BA2025642E2564EFBC85EFBCB2EFBCA88B
:100B700020000000E6B8A9E5BAA6E4B8BA202D2501
:100B8000642E256420E28483200D0A00E6B8A9E5DE
:100B9000BAA6E4B8BA2025642E256420E284832016
:100BA0000D0A00004448543131E695B0E68DAEE9B7
:100BB000989FE58897E58F91E98081E99499E8AF5E
:100BC000AF210D0A000000004448543131E695B0D1
:100BD000E68DAEE8AFBBE58F96E99499E8AFAF211B
:100BE0000D0A000008B5002000904FF4005000F0FE
:100BF00029F9A0B10F4900220868802101F0DDFE2B
:100C00004FF4005000F05AF80A48806920B10949B1
:100C10008869694604F07AFB0020064988740098C8
:100C200038B14FF0805004490860BFF34F8FBFF3D5
:100C30006F8F08BD3000002004ED00E070B5002487
:100C40004FF4003000F0FEF898B11A49886800F0BF
:100C5000F5F81849898C081A85B21648406B18B106
:100C6000E9B21448426B90474FF4003000F026F888
:100C700000BF4FF4802000F0E5F880B10D49888C6A
:100C800000EBD0714D100B48406B18B1E9B2094828
:100C9000426B90474FF4802000F010F800BF3CB149
:100CA0004FF0805004490860BFF34F8FBFF36F8F40
:100CB00070BD00003000002004ED00E000F0805125
:100CC00011B10349086001E0024948607047000023
:100CD000040402400000024021B1026842F0010217
:100CE000026004E002684FF6FE731A40026070472B
:100CF00001684FF6FE721140016000210160416001
:100D00008160C1604B49884208D14A490839496825
:100D100041F00F01474A083A51608AE045491431D1
:100D2000884208D143490839496841F0F001414AF5
:100D3000083A51607DE03F492831884208D13D4959
:100D40000839496841F470613A4A083A516070E0E4
:100D500038493C31884208D136490839496841F45C
:100D60007041344A083A516063E032495031884258
:100D700008D130490839496841F470212D4A083AB0
:100D8000516056E02B496431884208D1294908391D
:100D9000496841F47001274A083A516049E0254901
:100DA0007831884208D123490839496841F0706197
:100DB000204A083A51603CE01F49884206D1011F91
:100DC000096841F00F01021F116032E01A49143125
:100DD000884208D11849091F096841F0F001164AF4
:100DE000121F116025E014492831884208D11249A8
:100DF000091F096841F470610F4A121F116018E061
:100E00000D493C31884208D10B49091F096841F45A
:100E10007041094A121F11600BE0074950318842A6
:100E200007D10549091F096841F47021024A121FC0
:100E300011607047080002400804024001464868FB
:100E400080B2704701460020002201F0805313B1A8
:100E5000054B1A6801E0054B1A6802EA01030BB161
:100E6000012000E000207047000402400000024022
:100E70001AB103680B43036002E003688B4303600D
:100E8000704710B50022026847F6F0739A430C6A67
:100E90008B6823430C6923434C6923438C692343A8
:100EA000CC6923434C6A23438C6A23431A43026070
:100EB000CB6843600B6883604B68C36010BD4160C2
:100EC000704730B50446002504E04FF47A7000F016
:100ED00005F86D1CA542F8D330BD000010B50146E1
:100EE00008480068084CB0FBF4F000FB01F200F089
:100EF0000DF8034600BF00F009F8C01A9042FAD37B
:100F000010BD00000000002040420F000148406872
:100F100070470000001000E00748006840F0807053
:100F2000054908600020054948600846006840F00F
:100F30000100086070470000FCED00E0001000E0D8
:100F400070470000ADF5926D0421F84800F040FFB5
:100F500000240026002500BF00BF00BF0020CDF800
:100F60008804CDF88C044FF40071A2A8FFF741F972
:100F70004FF4007122A8FFF73CF99DF88B349DF8DF
:100F80008A24EBA1A2A801F005FE9DF889349DF802
:100F90008824E9A122A801F0FDFD0027802102A8F4
:100FA000FFF727F9E7A003F0A1F91AE2EB48007870
:100FB000012823D104F00F0098B900F053FF04B9C1
:100FC00019E0302C09D1012E03D104F0F000841C6B
:100FD00011E004F0F000441C0DE004F0F000441CAB
:100FE00009E000F03FFFC820FFF76BFF0120DC495C
:100FF000087004F0F0040020D8490870D94800783F
:10100000012803D0D8480078012841D104F00F000E
:10101000D8B9D448007828B10CB9402402E0A4F132
:101020001000C4B2D048007830B1402C01D1002467
:1010300002E004F11000C4B20020CB490870C94995
:1010400008700120C649087022E0C648007850B1F7
:10105000312C01D1322402E0322C00D13124412C38
:1010600001D16D1C0127C048007860B1312C01D13D
:10107000322402E0322C00D13124412C01D0422C08
:1010800001D1002500270020B7490870B549087034
:1010900004F00F0000286CD1B1480078012868D115
:1010A00000F0E0FE202C25D003DC3CB1102C5AD1FE
:1010B0000DE0302C31D0402C55D141E0AB483223EB
:1010C0001A4601210090262000F0F8FE4CE0A848C6
:1010D00032231A4601210090262000F0EFFE0B2259
:1010E0000021022001F078F80C220721022001F0F3
:1010F00073F839E09F4832231A46012100902720D7
:1011000000F0DCFE0B220021022001F065F80C2229
:101110000721022001F060F826E0974832231A46A2
:1011200001210090262000F0C9FE0B2200210220A0
:1011300001F052F80C220721022001F04DF813E0D3
:101140008E4832231A4601210090262000F0B6FE78
:101150000B220021022001F03FF80C22072102207F
:1011600001F03AF800BF00BF00BF00207C490870C2
:1011700037E104F0F00020281DD003DC38B110283E
:101180007ED10DE030287CD04028F9D1A5E0774809
:1011900032231A4601210090262000F08FFE1FE125
:1011A000112C07D176484023802200210090084668
:1011B00000F084FE14E1212C01D0222C6AD1212CD4
:1011C00020D100F04FFE06220121084601F004F86C
:1011D00008220221012000F0FFFF0D22032101203F
:1011E00000F0FAFF07220121032000F0F5FF08229A
:1011F0000221032000F0F0FF0D220321084600F039
:10120000EBFF222400230A220DF591615D4800685E
:1012100003F0CEFD01282BD19DF88B0400F0800057
:1012200040B19DF88B349DF88A2457A1A2A801F003
:10123000B1FC07E09DF88B349DF88A243CA1A2A85C
:1012400001F0A8FC9DF8890400F0800040B19DF8F1
:1012500089349DF888244EA122A801F09BFC07E068
:101260009DF889349DF8882433A122A801F092FCCE
:101270000E220721012000F0AFFFA2AA082101E001
:10128000ADE008E0012000F0D5FF22AA08210320EC
:1012900000F0D0FFA4E0312C0ED1404814233422BA
:1012A00016210090252000F009FE002600222021B2
:1012B0003B4800F06FFD0FE0322C0DD1394814236C
:1012C000342216210090252000F0F8FD012600228E
:1012D0002021334800F06DFD82E0412C69D1012FBF
:1012E00067D12A4629A102A801F054FC2E483223D6
:1012F00055220E210090142000F0E0FDC82003F0DC
:1013000099FA00F0AFFD4021002000F0F5FE02AA9E
:101310000721002000F08EFF2448322343220E21B3
:1013200000901D2000F0CAFD002757E00008014092
:1013300025642E256400000025642E2564202525C3
:1013400052480000446973706C6179207461736B5A
:101350002073746172742E0D0A000000D700002003
:10136000D4000020D5000020D6000020E669000847
:10137000446B0008A26C0008006E0008967000081C
:10138000E6650008D80000202D25642E25640000A5
:101390002D25642E2564202525524800FA6F00086B
:1013A000000C01405E6F0008C9730008F47100086A
:1013B000FFE7412C12D12A46AFF2300102A801F01A
:1013C000E9FB02AA0721002000F034FF0548322380
:1013D00043220E2100901D2000F070FD00E000BFB0
:1013E00000BFE3E5F471000810B500BF5021EFF332
:1013F000118081F31188BFF34F8FBFF36F8F00BF50
:101400000446012000F04AF8012805D1054908707A
:101410000549087000F03CF800BF84F3118800BF54
:1014200010BD0000D5000020D400002010B500BF82
:101430005021EFF3118081F31188BFF34F8FBFF379
:101440006F8F00BF04464FF4005000F027F80128CA
:1014500006D10C4908700C490870400300F018F8D8
:101460004FF4004000F01AF8012806D1074908702F
:1014700005490870C00300F00BF800BF84F3118821
:1014800000BF10BDD6000020D4000020D7000020EF
:101490000149086070470000140401400146002023
:1014A0000022074B1B6803EA0102054B14331B683B
:1014B0000B4013B10AB1012000E00020704700008A
:1014C00000040140002123498279002A3AD00A46CB
:1014D000126803689A430B461A600A1D1268036873
:1014E0009A430B1D1A60027911440A6803681A4373
:1014F0000A60184A0832126803689A43154B083389
:101500001A601A1D126803689A43124B0C331A6052
:101510004279102A0ED11A1F126803681A430D4B24
:1015200008331A601A1D126803681A43094B0C33FA
:101530001A600DE00749427911440A6803681A43AA
:101540000A6005E0027911440A6803689A430A6058
:10155000704700000004014030B500228B071C0FCB
:101560000F2303FA04F20B4B8C1053F824309343EF
:10157000084C8D1044F8253023468C1053F8243045
:101580008C07240F00FA04F42343024C8D1044F816
:10159000253030BD080001402DE9F041024600250C
:1015A0000026002000230024002791F803C00CF03F
:1015B0000F0591F803C00CF0100CBCF1000F03D024
:1015C00091F802C04CEA050591F800C0BCF1000F8B
:1015D00031D0146800202BE04FF0010C0CFA00F31E
:1015E000B1F800C00CEA03069E4220D183004FF000
:1015F0000F0C0CFA03F7BC4305FA03FC4CEA040495
:1016000091F803C0BCF1280F06D14FF0010C0CFA81
:1016100000FCC2F814C00AE091F803C0BCF1480F06
:1016200005D14FF0010C0CFA00FCC2F810C0401CB0
:101630000828D1D31460B1F800C0BCF1FF0F34DD2D
:10164000546800202EE000F1080C4FF0010808FA61
:101650000CF3B1F800C00CEA03069E4221D18300CE
:101660004FF00F0C0CFA03F7BC4305FA03FC4CEAED
:10167000040491F803C0BCF1280F05D100F1080C57
:1016800008FA0CF8C2F8148091F803C0BCF1480FB6
:1016900007D100F1080C4FF0010808FA0CF8C2F865
:1016A0001080401C0828CED35460BDE8F08102466B
:1016B000002093680B400BB1012000E00020704730
:1016C000416170470161704710B50446A1882068E8
:1016D000FFF7EDFF10BD00BFFEE770B50246002426
:1016E000002500230020958A138B1B0445EA03067E
:1016F00026F07F4404EA01068E4201D1012000E079
:10170000002070BD21B1028842F00102028004E095
:1017100002884FF6FE731A400280704721B102889A
:1017200042F48072028004E002884FF6FF631A40A0
:101730000280704721B1028842F40072028004E006
:1017400002884FF6FF531A40028070470CB50246DC
:10175000002000230193009300920B0F019321F0CE
:101760007F41019B1BB1009B1433009303E0090CE4
:10177000009B18330093009B1B680B400BB10120AA
:1017800000E000200CBD00002DE9F04385B00446C8
:101790000D460026B1460427DFF8CC80A6884FF618
:1017A000C0700640684600F0EDFDDDF808802F4867
:1017B000B8FBF0F01FFA80F946EA0906A6802088F7
:1017C0004FF6FE710840208000262949286888428B
:1017D0000CD828684000B8FBF0F087B2042F00DA7C
:1017E00004273E4309F10100208427E0E8884BF6F6
:1017F000FF71884206D1286800EB4000B8FBF0F08A
:1018000087B209E0286800EBC00101EB0010B8FBCB
:10181000F0F087B247F48047C7F30B0008B947F0F0
:10182000010747F4004006434FF4967009FB00F0AF
:101830004FF47A7190FBF1F0401C2084A68320883D
:1018400040F00100208026884FF6F5300640A88839
:101850006989084306432680A8892989084320818D
:1018600005B0BDE8F083000000127A0040420F008E
:10187000A086010012B141F0010102E04FF6FE73B3
:101880001940018270470182704700002DE9F04144
:1018900005460C460A260F4F04B900E00E4F44EAF5
:1018A0004500C1B200220D48FFF7E4FF09E0761EB3
:1018B000012000F02CF826B900F00EF90020BDE858
:1018C000F08139460548FFF708FF0028EFD00120D6
:1018D000F5E700008200070002000300005400400A
:1018E00070B50546002400F0C3F80446012C01D071
:1018F000204670BD00212846FFF7C8FF0446012C92
:1019000001D02046F5E700F0E7F80120F1E710B537
:1019100004462046FFF7E2FA10BD000010B500F0C3
:1019200059F800F031F801210648FFF7EBFE0648B0
:10193000006828B9012003F0EDF90349086000BFF1
:1019400010BD000000540040D000002070B50546D6
:101950000C48006808B9002070BD4FF47A706843E5
:101960004FF47A71B0FBF1F6002332461946054870
:10197000006803F01DFA0446012C00D1ECE70020BA
:10198000EAE70000D00000201FB500200090019081
:10199000029003900121480500F0D4FC0020ADF82E
:1019A00004004BF6FF70ADF806000A20ADF8080001
:1019B0004FF48060ADF80A000001ADF80C00034858
:1019C000009069460248FFF7DFFE1FBD801A06003F
:1019D0000054004008B5002000900121082000F0CC
:1019E000C1FC40211248FFF76DFE1C208DF803005A
:1019F0004020ADF8000003208DF8020069460C4835
:101A0000FFF7CAFD0121082000F0ACFC8021084846
:101A1000FFF758FE1C208DF803008020ADF8000071
:101A200003208DF8020069460148FFF7B5FD08BDA7
:101A3000000C014070B504460A2521460A48FFF70C
:101A400022FF08E06D1E0120FFF761FF1DB900F0C5
:101A500043F8002070BD05490348FFF73EFE00280B
:101A6000F0D00120F6E70000005400408400070099
:101A700010B50A20FFF76AFF012826D10A2406E0E4
:101A8000641E0120FFF743FF0CB9002010BD4FF486
:101A900000310F48FFF75AFE0028F1D101210C4810
:101AA000FFF73CFE0A2408E0641E0120FFF72FFF29
:101AB0001CB900F011F80020E8E706490448FFF7D8
:101AC0000CFE0028F0D00120E0E700BFDEE70000B8
:101AD000005400400100030010B501210248FFF747
:101AE00029FE00F003F810BD0054004010B5054871
:101AF000006830B100231A4619460248006803F016
:101B000097FA10BDD000002008B5002000900121F8
:101B1000042000F027FC01211F48FFF7D3FD01201E
:101B2000ADF8000004208DF8030003208DF80200BA
:101B300069461948FFF730FD0121102000F012FC22
:101B40004FF400511548FFF7BDFD4FF40050ADF8BC
:101B5000000004208DF8030003208DF80200694680
:101B60000E48FFF719FD0121082000F0FBFB4FF4A0
:101B700000410B48FFF7A6FD4FF40040ADF8000010
:101B800028208DF8030003208DF8020069460448E0
:101B9000FFF702FD08BD00000008014000100140F1
:101BA000000C014010B5FFF7AFFF00F013F800F094
:101BB00052F8054800F084F8044800F081F8044821
:101BC00000F07EF810BD00007000002090000020A2
:101BD000B00000201CB500200090019001210846B3
:101BE00000F0C0FB00210846FFF7B6FC0120009082
:101BF00000208DF804000C208DF8050001208DF8E0
:101C000006006846FFF75EFC0D210220FFF7A4FCEA
:101C10004FF40050009000208DF804000C208DF847
:101C2000050001208DF806006846FFF74BFC0F21E8
:101C30000120FFF791FC4FF40040009000208DF848
:101C400004000C208DF8050001208DF80600684680
:101C5000FFF738FC1CBD08B50020009001210846A4
:101C600000F080FB06208DF8000007208DF80100B1
:101C700000208DF8020001208DF80300684600F076
:101C8000AFF828208DF8000007208DF80100002013
:101C90008DF8020001208DF80300684600F0A0F8DE
:101CA00028208DF8000007208DF8010000208DF815
:101CB000020001208DF80300684600F091F808BD8D
:101CC00010B50446A079022807D12046FFF7FCFC96
:101CD00008B9012000E00020A07110BD08B5002067
:101CE00000900121042000F03DFB02212748FFF76E
:101CF000E9FC0220ADF8000010208DF8030003205D
:101D00008DF8020069462148FFF746FC01210420B6
:101D100000F028FB04211D48FFF7D4FC0420ADF897
:101D2000000010208DF8030003208DF802006946A2
:101D30001648FFF731FC0121042000F013FB0821B5
:101D40001248FFF7BFFC0820ADF8000010208DF806
:101D5000030003208DF8020069460C48FFF71CFCC5
:101D60000121082000F0FEFA20210948FFF7AAFC13
:101D70002020ADF8000010208DF8030003208DF81E
:101D8000020069460248FFF707FC08BD0008014051
:101D9000000C014070B505460E46144624B9314684
:101DA0002846FFF78FFC03E031462846FFF788FC02
:101DB00070BD70B505460E46144624B93146284616
:101DC000FFF77EFC03E031462846FFF77BFC70BD41
:101DD000C2684A40C260704700BFFEE7704700001B
:101DE00070B5002100230F22C47804B3154C246879
:101DF00004F4E064C4F5E064210AC1F10403CA40BC
:101E0000447804FA03F184781440214309010E4C0C
:101E10000678A155047804F01F050124AC4005782C
:101E20006D11AD0005F1E025C5F8004109E0047829
:101E300004F01F050124AC40044D0678761145F8E6
:101E4000264070BD0CED00E000E400E080E100E021
:101E500002490143024A1160704700000000FA0580
:101E60000CED00E010B5002000F0A4F810BD2DE945
:101E7000F0418046642700240026002509E03C202C
:101E8000FFF72EFD012802D1601CC4B201E0701CD6
:101E9000C6B2381EA7F10101CFB2F0D14120FFF741
:101EA0001FFD012801D0681CC5B25A2C04DD012D8C
:101EB00002D10120BDE8F0810020FBE72DE9FE4FB3
:101EC00081460D4617461C46002002900190681C72
:101ED000C11700EB5171C910A0EBC10141B13DB177
:101EE0002846E91705EB5171C910491CC9060D0EAA
:101EF0002846E91705EB5171C1F3C7084E46B8F102
:101F0000070F05DC7F2E03DC402C01DC802F01DD78
:101F1000BDE8FE8FE11704EB5171C910A4EBC101BC
:101F200039B12046E11704EB5171C910491CCCB2FC
:101F300005E02046E11704EB5171C1F3C70408EB3B
:101F40000400082802DDC8F10800C4B2F019802896
:101F500002DDC6F18000C7B207FB04F001900198D2
:101F6000B0F5806F02D34FF480600190F01900F05B
:101F7000FF0AC34600BF3146584600F0BDF8009640
:101F800010E00298421C02920C9A115C402000F072
:101F90009AF9DDE90110884200D1B9E70098401CA8
:101FA000C0B2009000985045EBDB0BF1010000F04F
:101FB000FF0BE0E730B5A1B00546802101A8FEF790
:101FC00018F92A46802101A8FEF70CF900240AE03E
:101FD0000021204600F090F8802201A9402000F066
:101FE0003DF9601CC4B2082CF2DB21B030BD00000A
:101FF00010B54048FFF78BFC00BF3C20FFF737FFD0
:102000000028FAD0AE21002000F05DF92021002048
:1020100000F059F90221002000F055F9B02100200C
:1020200000F051F9A121002000F04DF9C821002055
:1020300000F049F90021084600F045F91021002080
:1020400000F041F94021002000F03DF981210020FD
:1020500000F039F9FF21002000F035F9A12100201E
:1020600000F031F9A621002000F02DF9A821002070
:1020700000F029F93F21002000F025F9A4210020DB
:1020800000F021F9D321002000F01DF900210846BD
:1020900000F019F9D521002000F015F9F0210020F9
:1020A00000F011F9D921002000F00DF922210020C3
:1020B00000F009F9DA21002000F005F912210020D2
:1020C00000F001F9DB21002000F0FDF820210020C4
:1020D00000F0F9F88D21002000F0F5F8142100201F
:1020E00000F0F1F8AF21002000F0EDF8FFF7BAFEA4
:1020F00010BD000040420F0038B505460C4605F102
:10210000B000C0B28DF80000102040EA14108DF825
:10211000010004F00F008DF8020003226946002040
:1021200000F09CF838BD00002DE9F04105468846D6
:1021300016461F46A6F1200441462846FFF7DCFF5D
:10214000062F02D0082F20D109E004EB4400114AE9
:1021500002EB40010622402000F080F816E00E4815
:1021600000EB04110822402000F078F8691CC8B286
:102170004146FFF7C1FF084800EB041000F10801D9
:102180000822402000F06AF800E000BF00BFBDE870
:10219000F0810000705C0008985E00082DE9F041B5
:1021A0000546884616461C46770141462846FFF7F5
:1021B000A3FFE1191022402000F050F8691CC8B2BA
:1021C0004146FFF799FFE01900F11001102240206D
:1021D00000F044F8BDE8F0812DE9F04104460D46D9
:1021E00017462601F21706EB5272C2F3C7002A0700
:1021F000110E034B3A46FFF7D1FFBDE8F081000016
:10220000905A00082DE9F04180460D4614461E46BE
:1022100000270AE014F8012B07FB0650C1B2334631
:102220004046FFF781FF781CC7B220780028F1D123
:10223000BDE8F0812DE9F04104460D461746E60061
:10224000F21706EB5272D2105206100EEA06110E69
:1022500008233A46FFF7D6FFBDE8F0812DE9F041AB
:1022600080460D4616460024FFF702FC0446012C6A
:1022700002D02046BDE8F08100213C20FFF706FB9C
:102280000446012C03D0FFF727FC2046F2E7404626
:10229000FFF7D0FB0446012C03D0FFF71DFC2046BE
:1022A000E8E7002709E015F8010BFFF7C3FB044638
:1022B000012C01D00020DDE77F1CB742F3D3FFF7EC
:1022C0000BFC0120D6E770B506460D460024FFF74B
:1022D000CFFB0446012C01D0204670BD00213C20DC
:1022E000FFF7D4FA0446012C03D0FFF7F5FB204694
:1022F000F3E73046FFF79EFB0446012C03D0FFF7BF
:10230000EBFB2046E9E72846FFF794FB0446012C47
:1023100003D0FFF7E1FB2046DFE7FFF7DDFB0120FD
:10232000DBE7000029B1064A52690243044B5A61B7
:1023300004E0034A52698243014B5A61704700002E
:102340000010024029B1064AD2690243044BDA6107
:1023500004E0034AD2698243014BDA61704700000E
:102360000010024029B1064A92690243044B9A6167
:1023700004E0034A92698243014B9A61704700006E
:102380000010024030B500210022002400232D4D12
:102390006D6805F00C0121B1042905D0082923D16D
:1023A00005E0294D056022E0274D05601FE0254D21
:1023B0006D6805F47012234D6D6805F480340225B4
:1023C00005EB92421CB9214D554305600BE01D4DB4
:1023D0006D6805F400351DB11C4D5543056002E0E4
:1023E000194D5543056002E0174D056000BF00BF61
:1023F000144D6D6805F0F0010909154D6B5C056819
:10240000DD4045600F4D6D6805F4E061090A104D2F
:102410006B5C4568DD4085600A4D6D6805F4605170
:10242000C90A0B4D6B5C4568DD40C560054D6D68A4
:1024300005F44041890B074D6B5CC568B5FBF3F5AE
:10244000056130BD0010024000127A0000093D0015
:10245000140000202400002010B500F001F810BD89
:102460000CB50020019000903348006840F48030A3
:102470003149086000BF3048006800F40030009027
:102480000198401C0190009818B90198B0F5A06F10
:10249000F1D12948006800F4003010B1012000900B
:1024A00001E0002000900098012843D123480068F3
:1024B00040F01000214908600846006820F007003D
:1024C00008600846006840F0020008601A4840684A
:1024D000194948600846406848600846406840F42A
:1024E000806048600846406820F47C1048600846D8
:1024F000406840F4E81048600846006840F080708A
:10250000086000BF0C48006800F000700028F9D097
:102510000948406820F003000749486008464068C1
:1025200040F00200486000BF0348406800F00C0023
:102530000828F9D10CBD0000001002400020024024
:1025400010B502F0E5FF012801D002F0C9FB10BD73
:1025500010B51348006840F00100114908600846B2
:102560004068104908400E494860084600680E4916
:1025700008400B4908600846006820F48020086085
:102580000846406820F4FE0048604FF41F00886051
:10259000FFF762FF4FF000600449086010BD0000C3
:1025A000001002400000FFF8FFFFF6FE08ED00E01B
:1025B0002DE9F0470446884615461E464FF00009AF
:1025C00094F83100022802D00020BDE8F0870023F3
:1025D00032461946606902F0EBFB01283FD1A07C2E
:1025E000002836D1208AA84201DA208A00E0284655
:1025F00007463A464146E068FDF7E2FD0021606883
:10260000FEF76AFB39466068FEF759FC01216068F5
:10261000FEF762FB01228021206800F0CEF9012044
:10262000A074002332461946A06902F0C1FB0128BC
:1026300003D181460020A0740AE000216068FEF703
:102640004BFB00228021206800F0B7F90020A07425
:1026500000BF00231A461946606902F0E9FC4846AB
:10266000B3E710B50446002240F22441206800F090
:10267000E4F9606820B1002202216068FEF7F8FBEF
:1026800010BD000000B585B0012144F20400FFF741
:1026900069FE16480068049004A91548FEF77CFFFF
:1026A0004FF48060ADF8100048208DF8130004A9A5
:1026B0000F48FEF771FF0D4B1B1D0FCB8DE80F0070
:1026C0000C48C06A00900B490868694600F0DAF9C6
:1026D00008490868012100F064F90020054981F8E3
:1026E0003000012081F8310005B000BD7C5A00089F
:1026F00000080140300000202DE9F04107460D465A
:102700001646002405E0295D384600F006F8601CF6
:1027100084B2B442F7DBBDE8F08170B504460D46E3
:1027200094F83100022811D000BF8021206800F009
:102730004DF90028F9D02946206800F014FA00BFAE
:102740004021206800F042F90028F9D070BD10B592
:102750000446012240F22441206800F06EF96068CE
:1027600020B1012202216068FEF782FBA06848B117
:1027700001220221A068FEF77BFB01220421A06850
:10278000FEF776FB10BD000010B58CB0044627495B
:102790002068884247D101210846FFF7C3FD24483D
:1027A000FEF7A6FA2148001D0190E0680290102073
:1027B0000390002004900590802006900020079050
:1027C000089009900A900A900B9001A91848FEF70A
:1027D00058FB012202211648FEF74AFB1448143028
:1027E000FEF786FA1148001D0190206A0290002031
:1027F0000390A08C0490002005908020069000207B
:10280000079008902020099000200A900B9001A9C1
:1028100007481430FEF735FB01220221044814302A
:10282000FEF726FB00BF0CB010BD000000380140D1
:102830004400024038B5044613492068884221D13B
:1028400025208DF800000A208DF8010000208DF869
:10285000020001208DF803006846FFF7C1FA0E2040
:102860008DF8000004208DF801006846FFF7B8FAE3
:102870000F208DF8000005208DF801006846FFF755
:10288000AFFA00BF38BD00000038014010B528483D
:10289000FFF7E7FE26490868002100F082F80120D2
:1028A00002F038FA2249486103220021012002F097
:1028B00043FA1F49886100220121402002F03CFABE
:1028C0001B49C861888C01F047FC19490862088AD5
:1028D00001F042FC1649C8600A46918C106AFDF767
:1028E00088FC134A118AD068FDF783FC1048FFF773
:1028F0004BFF0F48FFF79EFF0D490868012100F0CC
:1029000050F80B48FFF723FF0949012208684021CE
:1029100000F053F8064988680121FEF7DDF902202E
:10292000034981F8300081F831000020887410BD1F
:102930003000002010B500241049086840F22441FE
:1029400000F051F878B10D48806B10B10B48816BE5
:1029500088470A49086800F001F90849086840F208
:10296000244100F00FF83CB14FF08050044908605A
:10297000BFF34F8FBFF36F8F10BD000030000020FA
:1029800004ED00E010B50022002340F66A14A142D5
:1029900000D100BF0A1201249440A3B2DC4304809A
:1029A00010BD21B1828942F40052828104E0828903
:1029B0004DF6FF731A40828170471AB1838A0B4328
:1029C000838202E0838A8B43838270470246002021
:1029D000B1F5007F00D100BF13880B400BB101207F
:1029E00000E00020704770B5024600240023002557
:1029F000002040F66A16B14200D100BFC1F3421573
:102A000001F01F03012606FA03F3012D02D1968976
:102A1000334006E0022D02D1168A334001E0968A47
:102A200033400C12012606FA04F41688344013B120
:102A30000CB1012000E0002070BDF0B50346002479
:102A400000260025002040F66A17B94200D100BFD9
:102A50001846C1F3421401F01F06012707FA06F5D4
:102A6000012C01D10C3004E0022C01D1103000E027
:102A700014301AB107682F43076002E00768AF43BC
:102A80000760F0BD2DE9F04786B005460E460024EC
:102A9000A24600BFA1460027B08900B100BF2F4663
:102AA0002C8A4CF6FF700440F08804432C82AC89D9
:102AB0004EF6F3100440B088318908437189084309
:102AC0000443AC81AC8A4FF6FF400440B089044314
:102AD000AC8201A8FFF756FC1F48874202D1DDF8FF
:102AE00010A001E0DDF80CA0A88900F4004040B17E
:102AF0000AEBCA0000EB0A1031684900B0FBF1F89C
:102B000007E00AEBCA0000EB0A1031688900B0FB4D
:102B1000F1F86420B8FBF0F004012009642101FB06
:102B20001089A88900F4004040B1322000EBC900B0
:102B3000B0FBF1F000F00700044308E0322000EBA6
:102B400009106421B0FBF1F000F00F0004432C8168
:102B500006B0BDE8F08700000038014001468888D3
:102B6000C0F308007047C1F308028280704700BFBD
:102B7000FEE700000FB4054B10B503A9044A029804
:102B800000F008F910BC5DF814FB0000F9340008EF
:102B90005C0100200FB4084B10B504A902AA0398E9
:102BA00000F0F8F8044602A9002000F081FC20465D
:102BB00010BC5DF814FB0000B13400087CB50C00BB
:102BC0001D461646014601D0601E00E00020CDE9FA
:102BD0000010064B6A462946304600F0DBF8002C10
:102BE00002D0009A002111707CBD00009B340008C7
:102BF00002E008C8121F08C1002AFAD170477047C6
:102C0000002001E001C1121F002AFBD17047000023
:102C10002DE9FF5F82B00021DDE90430020DDDF80F
:102C200040B0034318D044F61050A2F2FF324243A2
:102C30001514119801281FD0A5EB0B00401C5FEA6A
:102C4000000A4FF000064E4FDFF83891B04650466C
:102C500015D5CAF1000413E0119801244AA30128F4
:102C600001D16FEA0B010298119AC0E90031C0E965
:102C7000024206B0BDE8F09FCBF10000DFE704465A
:102C80000021404A491842EB0450CDE9001012E0FF
:102C9000E00707D032463B4640464946FDF7B4FAC6
:102CA0008046894632463B4610461946FDF7ACFA47
:102CB00006460F466410002CEAD1DDE90401DDE987
:102CC0000023BAF1000F06DAFDF79EFA42464B46A2
:102CD000FDF79AFA05E0FDF709FB42464B46FDF782
:102CE00005FB04460E460022284BFDF7E1FC03D805
:102CF0004FF0FF30014607E00022254B20463146C9
:102D0000FDF717FCFDF7BCFC102409E0002C0ADBE2
:102D10000A220023FDF76FFB039B30321A55641E15
:102D200050EA0102F2D1641C039AC4F11103144465
:102D3000119A012A03D0012208430DD10AE0084369
:102D400004D000204FF0110B119072E7A3EB0B059C
:102D50006D1E0DE05B4504DD4FF0000205F101053D
:102D600004E003DA4FF00002A5F10105002AECD0DF
:102D700002981199C0E90231C0E9004579E70000E5
:102D8000000014400000F03F300000000000F0435D
:102D90000000E03F2DE9FF4F95B09A468846064671
:102DA0000025EEE1252877D100242746F94A0121A4
:102DB000039400E0044316F8013F203B01FA03F0BE
:102DC0001042F7D130782A2811D06FF02F033078D5
:102DD000A0F13002092A16D8039A44F0020402EB4B
:102DE000820203EB42021044761C0390EFE758F88E
:102DF000042B0392002A03DA504244F40054039057
:102E000044F00204761C30782E2816D116F8010FF3
:102E100044F004042A280DD06FF02F023078A0F17E
:102E20003003092B09D807EB870302EB4303C718CC
:102E3000761CF3E758F8047B761C30786C280FD0AA
:102E400006DC4C2817D068280DD06A2814D104E07D
:102E5000742810D07A280FD10DE044F400140AE051
:102E600044F4801401E044F440147278824202D1A8
:102E700004F58014761C761C307866280BD013DCA1
:102E8000582877D009DC002875D04528F6D0462888
:102E9000F4D047281AD193E118E0632835D064288C
:102EA00079D0652812D18BE1702873D008DC6728AF
:102EB000F1D069286FD06E280DD06F2806D1ACE014
:102EC00073282CD0752874D0782853D0524617997F
:102ED00090476D1C54E1C4F30250022809D0032826
:102EE0000DD0D8F8001004280DD00D6008F10408AA
:102EF00046E1D8F80010EA17C1E90052F6E7D8F821
:102F000000100D80F2E70D70F0E718F8041B8DF843
:102F1000001000208DF80100EB46012003E058F876
:102F200004BB4FF0FF3061074FF0000102D40DE009
:102F300009F101018946B9420FDA8145F8DB1BF836
:102F400009100029F4D108E009F101018946814204
:102F5000FADB1BF809100029F6D103985346A0EBC1
:102F6000090721463846179A00F080FA284400EBFA
:102F7000090507E044E008E10DE01BF8010B5246AB
:102F800017999047B9F10109F7D2534621463846BF
:102F9000179AF2E039E00A21C4F302524FF0000B15
:102FA0000091022A06D058F8040BC117032A09D051
:102FB0000AE023E008F1070020F00702F2E802012E
:102FC000904605E000B2C117042A01D140B2C117F2
:102FD000002906DA0A460021404261EB02012D2257
:102FE00002E0220504D52B228DF80420012203E003
:102FF000E20701D02022F7E7914657E00A2100E0DE
:1030000010214FF0000B00910BE010214FF0000B4E
:1030100044F004040827009103E008204FF0000B5F
:103020000090C4F30252022A05D058F8040B002184
:10303000032A08D008E008F1070020F00702F2E8B0
:103040000201904603E080B2042A00D1C0B24FF0E2
:10305000000922072AD53278702A07D0DDF800C08F
:103060008CF0100C5CEA0B0C05D00EE040228DF8C1
:103070000420012208E050EA010306D030238DF835
:1030800004308DF8052002229146009B83F008034E
:1030900053EA0B030AD150EA010201D1620705D5B8
:1030A00030228DF804204FF001097F1E3278582A13
:1030B00004D039A20C920CAA02920BE03BA2F9E7D1
:1030C0005B46009AFDF797F90C9B9B5C029A521E97
:1030D0000292137050EA0102F2D1029804A9081A70
:1030E00000F1200B600702D524F4803400E00127B2
:1030F0005F4502DDA7EB0B0000E0002000EB0B01B9
:10310000009003984944401A0390E00306D45346C4
:103110002146179A039800F0A9F90544002706E014
:1031200001A85246C05D179990476D1C7F1C4F4502
:10313000F6DBE0030CD553462146179A039800F0BE
:1031400095F9054404E030205246179990476D1CCC
:103150000099481E00900029F5DC08E002980299C9
:1031600052460078491C0291179990476D1CBBF19B
:103170000001ABF1010BF1DC5BE100F065F9054406
:10318000761C307800287FF40DAE19B02846BDE8D3
:10319000F08F0000092801003031323334353637E2
:1031A0003839616263646566000000003031323393
:1031B0003435363738394142434445460000000033
:1031C000600700D4062708F1070020F00700F0E8A8
:1031D0000223804603F0004C5FEA0C0001D097A068
:1031E00009E0200501D596A005E0E00701D095A0F3
:1031F00001E0AFF24C001390307823F000436528D3
:103200000CD006DC452809D046281DD047287FD1A0
:103210003BE0662818D067287AD136E00021112FCC
:1032200001DB112000E0781CCDE9000104A90CA805
:10323000FFF7EEFCDDE90D010C9A4FF0000B07F1F2
:103240000109109200914EE04FF000400097CDE947
:10325000011004A90CA8FFF7DBFCDDE90D020C9BB3
:103260000F994FF0000B91461093009211B9791C01
:1032700000EB0109B7EB090003D4C0F1FF3B07F1F4
:103280000109A9EB0700019042E0012F00DA0127B4
:103290000021112F01DD112000E03846CDE90001A9
:1032A00004A90CA8FFF7B4FCDDE90D010C9A00910C
:1032B0004FF0000BB946109221070FD4009A4A45EF
:1032C00003DA914601E0A9F10109B9F1010F05DD29
:1032D000109AA9F10101515C3029F4D0B84202DA08
:1032E00010F1040F03DA0121CDE9011010E00028EC
:1032F00003DC8344A9EB000102E0411C494500DDE9
:103300008946A0EB0B00401C01904FF0004002905A
:10331000200705D40198484502DB4FF0FF300190AB
:1033200000208DF84B0002980DF14B07B0F1004FD3
:1033300025D002200C902B200D90029800280CDA4A
:10334000404202902D200D9007E00A210298FDF7DF
:103350003CF83031029007F8011D0C99481E0C9082
:103360000029F2DC02980028EFD1791E0D98087030
:10337000307800F0200040F0450007F8020D11A859
:10338000C01BC01D02901398007800B1012000EB13
:103390000901019801EBE071029801440398401A79
:1033A000401E0390E00306D453462146179A039823
:1033B00000F05CF805441398007818B1524617994C
:1033C00090476D1CE00323D553462146179A039876
:1033D00000F04CF805441BE0BBF1000F07DB009840
:1033E000584504DD1098179910F80B0001E0179963
:1033F00030205246904701980BF1010B401E05F119
:103400000105019004D12E205246179990476D1C5A
:10341000B9F10001A9F10109DEDC05E017F8010BA3
:103420005246179990476D1C0299481E0290002938
:10343000F4DC53462146179A03989EE62D000000BF
:103440002B000000200000002DE9F041044600257B
:103450001E461746880404D405E039462020B047AC
:103460006D1C641EF9D52846BDE8F0812DE9F041B8
:10347000044600251E469046C80301D5302700E0CB
:103480002027880404D505E041463846B0476D1C26
:10349000641EF9D52846BDE8F0814A68002A06D0A6
:1034A0000A68531C0B6010704868401E48607047E3
:1034B0000A68531C0B601070704700000121012046
:1034C000094A12680AB100200CE0084A12680AB1E1
:1034D000002007E0064A1368064A1268521E93420B
:1034E00000D1022070470000580400200001002095
:1034F00080040020EC00002070B504460D46E1B2C7
:103500000248FFF70AF9204670BD00003000002095
:103510001CB5FDF789F9FDF741F901240125104893
:10352000022100230A02CDE900100EA1114801F08A
:10353000BFFF04461048032100236A02CDE90010B2
:103540000EA1114801F0B4FF0446012C05D1012D54
:1035500003D1FFF79BF901F08BFA00BFFEE70000F3
:1035600028000020446973706C61795F5461736B4B
:1035700000000000450F00082C0000204448543192
:10358000315F5461736B0000650A00082DE9F0415A
:1035900005460E461C4807681C480068001D00F0E0
:1035A000CFFE50B91948006890F82C1001208840CF
:1035B00017490968814316480160681C38B936B15B
:1035C00012480168091D134800F0F8FE1AE07C1942
:1035D0000E4800684460BC4207D20C480168091DCF
:1035E0000D48006800F0D0FE0CE008480168091D95
:1035F0000A48006800F0C8FE09480068844201D209
:1036000007480460BDE8F081F0000020DC000020E5
:10361000F400002080040020E4000020E0000020EE
:103620000C01002010B5044600F0D4FE23480068C9
:10363000401C224908602248006840B920480460C4
:103640000846006801280DD100F054FA0AE01D4830
:10365000006838B91A480068C06AE16A884201D82F
:103660001748046018480068401C1749086094F81F
:103670002C10012088401549096808431349086047
:10368000E16A01EB8101124A02EB8100211D00F089
:1036900095FE00F0E1FE0B48006868B1084800683C
:1036A000C06AE16A884207D24FF080500949086039
:1036B000BFF34F8FBFF36F8F10BD0000EC000020F1
:1036C000DC000020F800002008010020F4000020A9
:1036D000B001002004ED00E010B500F07BFE1048C2
:1036E0000068D0B90F4800F03FFE0F4800F03CFEE4
:1036F0000C480E4908600C480D4908600022102152
:103700000A2001F019FB064908600846006820B14C
:1037100008A10348006801F051F800F09DFE10BDBB
:103720002001002094040020A8040020180100209B
:103730001C010020546D72510000000070B523E0A0
:1037400001F020FA1348006808B9012000E00020C9
:10375000054602F071F8BDB900F03CFE0D48C068A6
:10376000C468201D00F0ECFD0B480068401E0A49AB
:1037700008600A480068401E0849086000F06CFEB6
:10378000204600F060F800BF044800680028D7D148
:1037900070BD00006C040020EC000020E800002058
:1037A00070B504460D46206C70B1216CE068084489
:1037B000E0606168E068884201D32068E0602846E4
:1037C000226CE168FCF7FCFC70BD2DE9F041044679
:1037D0000F4615464FF00008A66B206C40B92068D4
:1037E00060BB606801F05CFF80460020606025E0FF
:1037F0007DB93946226CA068FCF7E2FC216CA06818
:103800000844A060D4E90110884217D32068A06062
:1038100014E03946226CE068FCF7D2FC216CE068C9
:10382000401AE0602168E068884203D2216C606839
:10383000401AE060022D01D106B1761E701CA06313
:103840004046BDE8F08110B50446206B00F03AFE1A
:10385000204600F037FE10BD002101220C4B1B68F2
:10386000012B00D901210B4A1268D26A0AB100204B
:103870000DE0094A1268012A01D9002007E009B1C8
:10388000002004E0054A1268054B1B68D01A7047F7
:10389000F4000020DC000020B00100200C0100201A
:1038A000F00000200146084A126812680AB9012295
:1038B00000E000220A600A6822B9034A1268D2684E
:1038C000106800E0002070471801002030B54FF468
:1038D0000053174800F007042CB1C01D20F007006A
:1038E000134C041B1B1B0246124C22600024114D7A
:1038F0006C60D018083820F007000F4C20600024BE
:103900000D4D2D686C600C4D2D682C601146441ACD
:103910004C60094C24680C60084D4C682C60084DC4
:103920004C682C604FF00044064D2C6030BD000008
:10393000BC040020440100204C0100205401002060
:10394000500100205801002000BFFFF7F7FE174884
:103950000068012807D94FF0805015490860BFF36F
:103960004F8FBFF36F8FFFF777FF0446022C1BD3F7
:1039700001F008F90F4800680F490968884201D32F
:10398000012000E0002028B940F62F520BA111A021
:10399000FFF7F0F8FFF760FF0446022C02D3204641
:1039A00000F018FE01F048FFCFE70000B001002052
:1039B00004ED00E00C010020F00000202E2E5C46FB
:1039C00072656552544F535C7372635C7461736BC0
:1039D000732E63004572726F723A25732C20256432
:1039E0000D0A000010B504464CB100206060206054
:1039F000E06000231A461946204601F019FB10BD6D
:103A00002DE9F04106460D4617469846069C0DB92D
:103A1000246000E02760E66325640121204601F070
:103A2000ADFA0020A064BDE8F08100002DE9FF5F41
:103A300081460F469246DDE90E6B109CAAF101000B
:103A4000216B01EB800828F0070808F0070008B98F
:103A5000012000E0002028B94FF44D721BA121A0E5
:103A6000FFF788F8002507E0795D04F1340041553F
:103A7000785D00B902E06D1C102DF5D300BF002168
:103A800043200155202E00D31F26E66266640020E5
:103A9000A064201D00F075FC04F1180000F071FC1A
:103AA0002461C6F12000A06164620020E06484F813
:103AB000500049464046039A00F006FC2060BBF1E6
:103AC000000F01D0CBF80040BDE8FF9F2E2E5C46D2
:103AD00072656552544F535C7372635C7461736BAF
:103AE000732E63004572726F723A25732C20256421
:103AF0000D0A000010B5002407E004EB84010F4A12
:103B000002EB810000F030FC641C202CF5D30C4843
:103B100000F02AFC0B4800F027FC0B4800F024FCC6
:103B20000A4800F021FC0A4800F01EFC044809493C
:103B3000086004480849086010BD0000B00100207A
:103B40003004002044040020580400206C040020AD
:103B500080040020E0000020E400002010B50146B1
:103B6000164800E0006803688B42FBD302464368B6
:103B700013448B4204D143684C682344436001469C
:103B80000A464B6813440468A34211D10C4C0368E5
:103B90002468A34208D04B680468646823444B60DF
:103BA00003681B680B6005E0054B1B680B6001E0B8
:103BB00003680B60884200D0016010BD4401002002
:103BC0004C0100202DE9F04104460D4616461F46E3
:103BD0004FF0000865602461B5420CD8F01BA16964
:103BE000884202D34FF0010811E0211D0948006806
:103BF00000F0CAFB0BE0BE4204D2BD4202D34FF03C
:103C0000010804E0211D0448006800F0BDFB4046A7
:103C1000BDE8F0811C0100201801002070B50546A8
:103C200000F0D8FBA86B08B9012400E0002400F0E4
:103C300013FC204670BD70B5054600F0CBFBA86BA9
:103C4000E96B884201D1012400E0002400F004FC6B
:103C5000204670BD2DE9F3410D460098846C002785
:103C60002CB940F671221AA11FA0FEF783FFA06BAA
:103C7000E16B884201D2012000E0002028B940F623
:103C8000722213A118A0FEF775FFA06BE16B8842AA
:103C90001BD294F945602A4669462046FFF795FDF8
:103CA0000746701C60B9606A08B9012000E0002076
:103CB00050B904F1240001F061FD28B1012703E0AF
:103CC000701C40B284F8450000BF3846BDE8FC8156
:103CD0002E2E5C4672656552544F535C7372635C62
:103CE00071756575652E63004572726F723A257342
:103CF0002C2025640D0A0000F8B505460F46134830
:103D00000068C068C468201D00F01AFBE069012843
:103D100018D1A06941192B463A462046FFF752FFB9
:103D200080B1002003462A4601460090204601F05B
:103D300051FE06462EB940F2232205A10BA0FEF744
:103D400019FF00BF2046616A8847F8BD18010020AE
:103D50002E2E5C4672656552544F535C7372635CE1
:103D600074696D6572732E63000000004572726F96
:103D7000723A25732C2025640D0A0000F0B587B037
:103D800070E0039800280CDA04AE2EB94FF44872A4
:103D90003AA141A0FEF7EEFED6E90020B1689047B7
:103DA00000BF039800285DDB059C606908B901200D
:103DB00000E0002010B9201D00F0C2FA02A800F0B7
:103DC000C9F8054603980A284AD2DFE800F0090539
:103DD000072C2E4506082D2F00BF00BF00BF00BFD7
:103DE0000498A269811803462A462046FFF7EAFE96
:103DF000C0B12046616A8847E069012812D10020DD
:103E000000900498A169421800231946204601F049
:103E1000E1FD07462FB94FF4587218A11EA0FEF716
:103E2000A9FE00BF1DE000BF1BE000BF0498A06119
:103E3000A06908B1012000E0002028B940F27732E3
:103E40000EA115A0FEF796FEA06941192B462A4641
:103E50002046FFF7B7FE04E0204600F033FB00E009
:103E600000BF00BF00231A4603A90F48006800F0F6
:103E70009FFF002885D107B0F0BD00002E2E5C46C4
:103E800072656552544F535C7372635C74696D65FF
:103E900072732E63000000004572726F723A2573D0
:103EA0002C2025640D0A000020010020F8B50546ED
:103EB0000C4600F067FE684600F04CF80646009895
:103EC00020BB44B9B54206D801F0B6FC31462846BD
:103ED000FFF712FF1CE03CB10E480068006808B90B
:103EE000012000E000200446A91B22460A48006881
:103EF00000F07AFC01F0A0FC50B94FF08050074967
:103F00000860BFF34F8FBFF36F8F01E001F094FCA7
:103F1000F8BD00001C0100202001002004ED00E09D
:103F20000A490968096809B9012100E0002121B1A5
:103F30004FF0FF31064A116006E004490968C9687C
:103F4000C868034A4168116070470000E000002023
:103F50000C01002070B5044601F0EAFA0546074856
:103F60000068854204D200F00BF80120206001E0D7
:103F70000020206001480560284670BD280100200F
:103F80002DE9F8432DE021480068C06805681F4806
:103F90000068C068C468201D00F0D2F92046616A3C
:103FA0008847E06901281CD1A0694619AE4207D9AB
:103FB00066602461211D1548006800F0E5F910E0F5
:103FC000002003462A4601460090204601F002FDEB
:103FD00007462FB940F2D1320DA114A0FEF7CAFD59
:103FE00000BF0A480068006808B9012000E000200E
:103FF0000028C8D00548D0F8008010480068034960
:1040000008600E48C0F80080BDE8F8831801002061
:104010002E2E5C4672656552544F535C7372635C1E
:1040200074696D6572732E63000000004572726FD3
:10403000723A25732C2025640D0A00001C01002013
:104040000B480068401C08B9012000E0002020B99E
:10405000F42208A111A0FEF78DFD00BF502080F3CF
:104060001188BFF34F8FBFF36F8F00BF00BFFEE714
:104070002C0100202E2E5C4672656552544F535C15
:10408000706F72745C525644535C41524D5F434DA5
:10409000335C706F72742E63000000004572726FA3
:1040A000723A25732C2025640D0A000008B500BF64
:1040B0006846FFF7F7FB044620460099FFF7F6FE37
:1040C000FFF75CFEF4E770B5044600F083F994F95D
:1040D00045501AE0A06C38B100212046FFF7BAFD28
:1040E00088B100F0E3FB0EE0606A08B9012000E04F
:1040F000002038B904F1240001F040FB18B100F0B1
:10410000D5FB00E003E0681E45B2002DE2DC00BFF5
:10411000FF2084F8450000F09FF900F05BF994F966
:10412000445010E0206908B9012000E0002048B99F
:1041300004F1100001F022FB08B100F0B7FB681E8B
:1041400045B200E001E0002DECDC00BFFF2084F868
:10415000440000F081F970BD2DE9F04104464FF0B4
:10416000000800F00FFD3E48006808B9FFF7AEFBFD
:104170003C480068204000285FD1A4B1083404F016
:10418000070080B104F00700C0F10800044404F007
:10419000070008B9012000E0002020B9C02232A1A8
:1041A0003AA0FEF7E7FC002C47D03C480068844268
:1041B00043D83B4E3046056801E02E462D686868BE
:1041C000A04202D228680028F7D12548006885421D
:1041D00033D0306800F10808286830606868001B38
:1041E000102813D92F1907F0070008B9012000E0A3
:1041F000002020B9ED221CA124A0FEF7BBFC6868BA
:10420000001B78606C603846FFF7A8FC234968689B
:104210000968081A214908600846006821490968A8
:10422000884203D21D4800681E4908600D4968682D
:104230000968084368600020286001F0FDFA08F072
:10424000070008B9012000E0002028B940F22D1233
:1042500005A10EA0FEF78EFC4046BDE8F0810000EF
:104260004C010020580100202E2E5C4672656552DC
:10427000544F535C706F72745C4D656D4D616E6729
:104280005C686561705F342E630000004572726F78
:10429000723A25732C2025640D0A0000500100207D
:1042A00044010020540100200648006830B105494F
:1042B000096801F14800896C491C016001480068E7
:1042C00070470000DC000020001F4FF08073036087
:1042D000001F21F001030360001F034B036014382B
:1042E0000260203870470000414000080FB410B54C
:1042F000C2B045A801904FF4807102A8019B449A76
:10430000FEF75CFC044600200190002C10DD0B48F9
:1043100090F83100022806D1A2B2C31E02A90748B4
:10432000FEF746F904E0A2B202A90448FEF7E4F958
:10433000204642B010BC5DF814FB000030000020A5
:1043400001460A69D1E901309860D1E9010358605A
:104350005068884201D18868506000200861106868
:10436000401E10601068704700F1080141604FF076
:10437000FF31816000F10801C1600161002101602D
:10438000704700210161704710B502460B685C1C44
:104390000CB9106907E002F1080000E040684468C9
:1043A00024689C42FAD944684C604C68A1608860DB
:1043B00041600A611468641C146010BD42684A6060
:1043C00093688B60936859609160086103685B1C17
:1043D0000360704710B500BF502080F31188BFF311
:1043E0004F8FBFF36F8F00BF0B480068401C0A4916
:1043F00008600846006801280DD108480068C0B26E
:1044000008B9012000E0002028B940F2B11204A14F
:104410000DA0FEF7AFFB10BD2C01002004ED00E065
:104420002E2E5C4672656552544F535C706F7274E9
:104430005C525644535C41524D5F434D335C706F48
:1044400072742E63000000004572726F723A257319
:104450002C2025640D0A000010B50B48006828B90F
:1044600040F2B91209A113A0FEF784FB06480068C8
:10447000401E054908600846006820B9002080F306
:10448000118800BF00BF10BD2C0100202E2E5C46FD
:1044900072656552544F535C706F72745C5256442F
:1044A000535C41524D5F434D335C706F72742E63A9
:1044B000000000004572726F723A25732C2025644B
:1044C0000D0A000070B506463546002E35D0083D71
:1044D0002C461A4960680968084008B1012000E0CC
:1044E000002028B940F2411215A11EA0FEF742FBA0
:1044F000206808B9012000E0002028B94FF4A1721B
:104500000FA118A0FEF736FB0C4960680968084047
:1045100098B1206888B90949606809688843606073
:1045200000F030FB134960680968084411490860CD
:104530002046FFF713FB01F07FF970BD5801002002
:104540002E2E5C4672656552544F535C706F7274C8
:104550005C4D656D4D616E675C686561705F342EA2
:10456000630000004572726F723A25732C20256437
:104570000D0A000050010020124800684FF47A71C3
:10458000B0FBF1F010490860084600686FF07F4109
:10459000B1FBF0F00D4908600A480068B0FBF0F08C
:1045A0002D21B1FBF0F00A490860064800684FF47D
:1045B0007A71B0FBF1F0401E4FF0E0214861072016
:1045C0000861704700000020300100203401002005
:1045D000380100202DE9F04704464E480068844227
:1045E00001D94C4804684FF0E020006920F0010038
:1045F0004FF0E021086108468169601E464A126852
:1046000002FB001545480068854202D9434800680E
:104610002D1A72B6BFF34F8FBFF36F8FFEF74EFFA9
:1046200080B94FF0E02080694FF0E02148610846F2
:10463000006940F00100086137480068401E486189
:1046400062B665E04FF0E020456100204FF0E021C8
:1046500088610846006940F001000861A146B9F18F
:10466000000404D0BFF34F8F30BFBFF36F8F4FF004
:10467000E020D0F8108028F001004FF0E021086120
:1046800062B608F48030B8B123490968491E4FF07A
:10469000E0229269AA1A881A20490968884203D33D
:1046A0001D490968884202D91B490968481E4FF014
:1046B000E0214861661E12E01748006860434FF031
:1046C000E0218969471A14480068B7FBF0F6701CAE
:1046D000114909684843C01B4FF0E02148610020A0
:1046E0004FF0E0218861FFF775FE4FF0E020006990
:1046F00040F001004FF0E0210861304600F010FA70
:1047000005480068401E4FF0E0214861FFF7A4FE15
:10471000BDE8F0873401002030010020380100207E
:1047200070B5FBF737FD0546102D11D305F1E020DC
:1047300090F8F04310480078844201DB012000E04B
:10474000002028B940F2FF220CA116A0FEF712FAB1
:104750001848006800F4E06017490968884201D8E9
:10476000012000E0002028B940F20F3203A10DA083
:10477000FEF700FA70BD00003C0100202E2E5C46C2
:1047800072656552544F535C706F72745C5256443C
:10479000535C41524D5F434D335C706F72742E63B6
:1047A000000000004572726F723A25732C20256458
:1047B0000D0A00000CED00E0400100200246002040
:1047C0000BE0084B53F8303033B9064B43F8301048
:1047D00003EBC0035A6002E0401C0A28F1D300BF7B
:1047E00070470000600100202DE9F04105460E46AB
:1047F00017462C46FFF7EEFD94F94400401C10B913
:10480000002084F8440094F94500401C10B90020B1
:1048100084F84500FFF720FEA06B28B93A463146E0
:1048200004F1240000F074F82046FFF74CFCBDE8CA
:10483000F081000070B504460025ACB10F48006857
:1048400008B9012000E0002028B940F204520CA170
:1048500011A0FEF78FF900F095F900212046FEF730
:1048600095FE00F0E9FF05463DB94FF080500E4936
:104870000860BFF34F8FBFF36F8F70BD140100202E
:104880002E2E5C4672656552544F535C7372635CA6
:104890007461736B732E63004572726F723A257385
:1048A0002C2025640D0A000004ED00E001200149E0
:1048B000086070470001002070B504460D462CB911
:1048C00040F6A93207A10DA0FEF754F90F48016880
:1048D00018312046FFF758FD01212846FEF756FE05
:1048E00070BD00002E2E5C4672656552544F535CBD
:1048F0007372635C7461736B732E63004572726FC5
:10490000723A25732C2025640D0A0000DC0000207B
:1049100070B505460E4614462DB940F6D43209A1AD
:104920000EA0FEF727F91148016818312846FFF755
:1049300045FD0CB14FF0FF3621463046FEF726FE0E
:1049400070BD00002E2E5C4672656552544F535C5C
:104950007372635C7461736B732E63004572726F64
:10496000723A25732C2025640D0A0000DC0000201B
:1049700070B505462C46002D4BD02649E06A0968E3
:10498000C96A884245D2A06900F0004028B9214890
:104990000068C06AC0F12000A061E16A01EB8101FA
:1049A0001D4A02EB81016069884201D1012000E0CB
:1049B000002050B3201DFFF7C3FC78B9E06A00EB7C
:1049C0008000154951F8200040B994F82C100120BE
:1049D0008840124909688143104801600D48006809
:1049E000C06AE06294F82C10012088400B490968E5
:1049F00008430A490860E16A01EB8101064A02EBBB
:104A00008100211DFFF7DAFC03E002480068C06A5C
:104A1000E06270BDDC000020B0010020F400002046
:104A200010B504462CB940F6644205A10AA0FEF771
:104A3000A1F80D48006820600C480068606010BD57
:104A40002E2E5C4672656552544F535C7372635CE4
:104A50007461736B732E63004572726F723A2573C3
:104A60002C2025640D0A000004010020F000002025
:104A70001CB51A4800210B468022CDE9001018A170
:104A8000194800F015FD0446012C02D100F066FF24
:104A90000446012C15D100BF502080F31188BFF3CC
:104AA0004F8FBFF36F8F00BF4FF0FF300F4908608B
:104AB00001200F49086000200E49086000F0C0F88E
:104AC0000BE0601C08B1012000E0002028B940F292
:104AD000FC7209A10EA0FEF74DF81CBD10010020CC
:104AE00049444C4500000000493900080C010020F1
:104AF000F8000020F00000202E2E5C467265655202
:104B0000544F535C7372635C7461736B732E6300F8
:104B10004572726F723A25732C2025640D0A0000CD
:104B200010B504460B48006820440B4909688842C8
:104B300001D8012000E0002028B940F6F91207A1B1
:104B40000CA0FEF717F803480068204401490860EC
:104B500010BD0000F00000200C0100202E2E5C464D
:104B600072656552544F535C7372635C7461736B0E
:104B7000732E63004572726F723A25732C20256480
:104B80000D0A000002480068401C01490860704797
:104B90001401002010B51B48006818B101201A4903
:104BA00008602DE000201849086018480068B0FA35
:104BB00080F0C0F11F0404EB8400154951F8200077
:104BC00008B1012000E0002028B940F6993211A177
:104BD00016A0FDF7CFFF04EB84010D4A02EB810024
:104BE00041684968416000F1080142688A4202D187
:104BF0004168496841604168C968104A116000BF56
:104C000010BD00001401002000010020F40000206D
:104C1000B00100202E2E5C4672656552544F535CE5
:104C20007372635C7461736B732E63004572726F91
:104C3000723A25732C2025640D0A0000DC00002048
:104C40001CB52248014609780191FF2102461170E6
:104C50000146097800919DF8001001F050011C4AAE
:104C6000117007211B4A116009E01A490968491EA1
:104C7000184A11609DF800104906090E00919DF830
:104C8000001001F080018029EFD012490968090263
:104C9000104A11601146098801F4E06111600B4A65
:104CA000019911700C48006840F470000A490860CE
:104CB0000846006840F070400860FFF75DFC002087
:104CC00006490860FBF730FA00201CBD00E400E054
:104CD0003C0100204001002020ED00E02C010020DC
:104CE00010B500BF502080F31188BFF34F8FBFF382
:104CF0006F8F00BF00F022FC18B14FF080500449C4
:104D0000086000BF002080F3118800BF10BD0000C4
:104D100004ED00E02DE9F04104460126002722467B
:104D20000021012000F008F805462846FEF75AFE4B
:104D30002846BDE8F08100002DE9F84305460E46FF
:104D400090460DB1012000E0002028B94FF4D87240
:104D50000DA113A0FDF70EFF0EB9002701E005FB22
:104D600006F707F14C00FFF7F7F9044644B104F1E8
:104D70004C0943464A46314628460094FEF740FE19
:104D80002046BDE8F88300002E2E5C467265655211
:104D9000544F535C7372635C71756575652E630067
:104DA0004572726F723A25732C2025640D0A00003B
:104DB0002DE9FF4782B005460E461F464FF0000A18
:104DC0002C462CB940F2565261A167A0FDF7D2FEE5
:104DD0000EB9206C08B9012000E0002028B94FF47A
:104DE000AB625BA160A0FDF7C5FE00F091FB08B9C6
:104DF000049808B9012000E0002028B940F25C5274
:104E000053A159A0FDF7B6FE00BFFFF7E3FAD4F8AF
:104E10003890B9F1000F3DD0D4F80C8031462046CF
:104E2000FEF7BEFCDFB9A9F10100A063206810B94C
:104E3000FFF73AFA6060206908B9012000E000201D
:104E400010BB04F1100000F099FCE8B14FF0805065
:104E500049490860BFF34F8FBFF36F8F14E0C4F868
:104E60000C80606A08B9012000E0002060B904F1FC
:104E7000240000F083FC38B14FF080503E490860B8
:104E8000BFF34F8FBFF36F8FFFF7E6FA012006B035
:104E9000BDE8F087049818B9FFF7DEFA0020F6E7BE
:104EA000BAF1000F04D16846FFF7BAFD4FF0010ACE
:104EB000FFF7D2FAFFF766FEFFF78CFA94F9440089
:104EC000401C10B9002084F8440094F94500401CAF
:104ED00010B9002084F84500FFF7BEFA04A968461F
:104EE00000F094FA40BB2046FEF798FEF0B120682F
:104EF00030B9FFF76FFA6068FFF73AFDFFF7ACFAD9
:104F000004F124000499FFF7D7FC2046FFF7DBF8F3
:104F100000F092FC00287FF478AF4FF080501649E3
:104F20000860BFF34F8FBFF36F8F6EE72046FFF728
:104F3000CAF800F081FC68E72046FFF7C4F800F0EB
:104F40007BFC2046FEF76AFE0028EED000209EE79C
:104F50002E2E5C4672656552544F535C7372635CCF
:104F600071756575652E63004572726F723A2573AF
:104F70002C2025640D0A000004ED00E070B5054604
:104F80000E462C462CB940F22D121EA123A0FDF78F
:104F9000F1FDFFF71FFAD4E90F12206801FB0200B0
:104FA00060600020A0632068A060E06B401E226C5F
:104FB000216800FB0210E060FF2084F8440084F8C0
:104FC00045009EB9206908B9012000E00020A8B979
:104FD00004F1100000F0D2FB80B14FF08050134973
:104FE0000860BFF34F8FBFF36F8F07E004F110002D
:104FF000FFF7BAF904F12400FFF7B6F9FFF72CFA2E
:10500000012070BD2E2E5C4672656552544F535C74
:105010007372635C71756575652E63004572726F9E
:10502000723A25732C2025640D0A000004ED00E07F
:105030002DE9FF4383B0064688461D464FF0000920
:1050400034462CB94FF4477260A166A0FDF792FD7B
:10505000B8F1000F01D1206C08B9012000E0002058
:1050600028B940F21E3259A15EA0FDF783FD022D42
:1050700002D1E06B012801D1012000E0002028B915
:1050800040F2213251A157A0FDF774FD00F040FA23
:1050900008B9059808B9012000E0002028B940F2BD
:1050A00026324AA14FA0FDF765FD00BFFFF792F938
:1050B000A06BE16B884201D3022D38D12A464146CC
:1050C0002046FEF782FB0746A06C68B129462046C1
:1050D000FEF7C0FD28B34FF0805046490860BFF38B
:1050E0004F8FBFF36F8F1CE0606A08B9012000E0AA
:1050F000002068B904F1240000F040FB88B14FF0B3
:1051000080503C490860BFF34F8FBFF36F8F08E0BA
:105110003FB14FF0805037490860BFF34F8FBFF366
:105120006F8FFFF799F9012007B0BDE8F08305986C
:1051300018B9FFF791F90020F6E7B9F1000F04D193
:1051400001A8FFF76DFC4FF00109FFF785F9FFF7A4
:1051500019FDFFF73FF994F94400401C10B90020F5
:1051600084F8440094F94500401C10B9002084F8EC
:105170004500FFF771F905A901A800F047F9F0B95A
:105180002046FEF758FDA0B104F110000599FFF785
:1051900093FB2046FEF797FF00F04EFB002885D1D9
:1051A0004FF0805013490860BFF34F8FBFF36F8FEC
:1051B0007CE72046FEF787FF00F03EFB76E72046BF
:1051C000FEF781FF00F038FB0020ADE72E2E5C4695
:1051D00072656552544F535C7372635C717565758B
:1051E000652E63004572726F723A25732C20256418
:1051F0000D0A000004ED00E02DE9F05F80468A46CC
:1052000015461E4644462CB940F2034235A13BA048
:10521000FDF7B0FCBAF1000F01D1206C08B90120F4
:1052200000E0002028B940F204422EA133A0FDF78F
:10523000A1FC022E02D1E06B012801D1012000E087
:10524000002028B940F2054226A12CA0FDF792FCCF
:10525000FFF766FA00BF5021EFF3118081F3118848
:10526000BFF34F8FBFF36F8F00BF0746A06BE16B9B
:10527000884201D3022E2BD194F945B032465146D3
:105280002046FEF7A2FA0BF10100C8B9A06C40B1AC
:1052900031462046FEF7DEFCB8B1B5B101202860EA
:1052A00013E0606A08B9012000E0002068B904F149
:1052B000240000F063FA40B13DB10120286004E011
:1052C0000BF1010040B284F845004FF0010901E004
:1052D0004FF0000900BF87F3118800BF4846BDE8C2
:1052E000F09F00002E2E5C4672656552544F535C51
:1052F0007372635C71756575652E63004572726FBC
:10530000723A25732C2025640D0A00002DE9F04720
:1053100007460D463C462CB940F2B44231A137A0B5
:10532000FDF728FC206C08B9012000E0002028B916
:105330004FF497622BA131A0FDF71CFC206808B93F
:10534000606808B9012000E0002028B940F2BD42A1
:1053500024A12AA0FDF70EFCFFF7E2F900BF5021BF
:10536000EFF3118081F31188BFF34F8FBFF36F8F7D
:1053700000BF0646D4F83890E06B484529D994F927
:1053800045A009F10100A0630AF10100C8B9A06CB1
:1053900040B100212046FEF75DFCB8B1B5B1012057
:1053A000286013E0606A08B9012000E0002068B9B5
:1053B00004F1240000F0E2F940B13DB10120286081
:1053C00004E00AF1010040B284F845004FF0010802
:1053D00001E04FF0000800BF86F3118800BF40468F
:1053E000BDE8F0872E2E5C4672656552544F535CC3
:1053F0007372635C71756575652E63004572726FBB
:10540000723A25732C2025640D0A00002DE9F04125
:1054100004460D462CB940F66E4219A11EA0FDF7B8
:10542000A9FB2DB940F66F4215A11BA0FDF7A2FB09
:10543000FEF7D0FF1C4807682868401C08B9002602
:1054400019E01A4920680968884204D06068B842A7
:1054500001D801260FE06068381A2968884209D20D
:1054600028686168791A401A28602046FFF7D8FA40
:10547000002600E00126FEF7EFFF3046BDE8F08190
:105480002E2E5C4672656552544F535C7372635C9A
:105490007461736B732E63004572726F723A257379
:1054A0002C2025640D0A0000F000002004010020DB
:1054B0002DE9FF4F85B0804689461746DDE912ABDE
:1054C000B800FEF749FE064656B15420FEF744FEEA
:1054D00004460CB1266304E03046FEF7F3FF00E01B
:1054E00000247CB10020CDE900ABCDE902403A4672
:1054F00049464046089BFEF799FA2046FEF792F887
:10550000012501E04FF0FF35284609B0BDE8F08FD6
:105510000549096809B9012005E00449096809B984
:10552000022000E000207047F80000201401002055
:105530000149086870470000F00000202DE9F041A3
:105540004FF0000841480068002872D140480068C8
:10555000451C3F480560EDB93E480068006808B941
:10556000012000E0002028B940F66A223AA140A0BC
:10557000FDF700FB37480768414800683549086077
:105580003F4807603F480068401C3E490860FEF7FE
:10559000C7FC00BF3C48006885423CD300BF2D4893
:1055A0000068006808B9012000E0002020B14FF039
:1055B000FF30354908602DE026480068C068C4689F
:1055C0006668B54202D23048066023E0201DFEF72F
:1055D000B7FEA06A18B104F11800FEF7B1FE94F806
:1055E0002C10012088402949096808432749086090
:1055F000E16A01EB8101264A02EB8100211DFEF7E1
:10560000DDFE2449E06A0968C96A8842C7D34FF0C1
:105610000108C4E700BF1F480068C06A00EB8000B3
:105620001B4951F82000012801D94FF0010805E07D
:10563000FFE719480068401C1749086017480068D0
:1056400008B14FF001084046BDE8F0811401002088
:10565000F0000020E00000202E2E5C4672656552AE
:10566000544F535C7372635C7461736B732E63008D
:105670004572726F723A25732C2025640D0A000062
:10568000E4000020040100200C010020F4000020B0
:10569000B0010020DC000020FC0000200001002000
:1056A00070B505462C460026002D4BD026480068D4
:1056B000844201D1012000E0002028B94FF4776234
:1056C00022A128A0FDF756FAA06C28B940F6727204
:1056D0001EA124A0FDF74EFAA06C401EA064616CD0
:1056E000E06A88422ED0A06C60BB201DFEF728FE29
:1056F00078B9E06A00EB80001E4951F8200040B9FB
:1057000094F82C10012088401B49096881431A48ED
:105710000160606CE062E06AC0F12000A06194F872
:105720002C10012088401449096808431249086078
:10573000E16A01EB81010F4A02EB8100211DFEF7B6
:105740003DFE0126304670BDDC0000202E2E5C465A
:1057500072656552544F535C7372635C7461736B12
:10576000732E63004572726F723A25732C20256484
:105770000D0A0000B0010020F400002070B50646BC
:10578000F068C4682CB940F604421BA120A0FDF7C4
:10579000F1F904F11800FEF7D3FD21480068A8B91B
:1057A000201DFEF7CDFD94F82C10012088401D49E6
:1057B000096808431B490860E16A01EB81011A4A44
:1057C00002EB8100211DFEF7F9FD04E004F1180150
:1057D0001648FEF7F3FD1649E06A0968C96A88426F
:1057E00004D9012501201349086000E00025FEF7D7
:1057F00097FB284670BD00002E2E5C4672656552F0
:10580000544F535C7372635C7461736B732E6300EB
:105810004572726F723A25732C2025640D0A0000C0
:1058200014010020F4000020B001002058040020E2
:10583000DC0000200001002070B500240026344860
:10584000006828B940F6610232A138A0FDF792F94C
:10585000FEF7C0FD2E480068401E2D49086008462E
:10586000006800284FD13548006800284BD024E05C
:105870003348C068C46804F11800FEF761FD201DBC
:10588000FEF75EFD94F82C10012088402D49096830
:1058900008432C490860E16A01EB81012A4A02EBC6
:1058A0008100211DFEF78AFD2849E06A0968C96A5E
:1058B000884202D30120264908602148006808B9BF
:1058C000012000E000200028D2D00CB1FEF728FB18
:1058D0002048056865B100BFFFF730FE10B1012018
:1058E0001B4908606D1E002DF6D100201949086083
:1058F0001748006838B10126300717490860BFF320
:105900004F8FBFF36F8FFEF7A7FD304670BD0000CD
:10591000140100202E2E5C4672656552544F535C74
:105920007372635C7461736B732E63004572726F84
:10593000723A25732C2025640D0A0000EC0000202B
:1059400058040020F4000020B0010020DC000020FA
:1059500000010020FC00002004ED00E01CB5002444
:10596000FDF7BAFE0B48006858B10B481F21002311
:105970004FF48072CDE9001008A10A48FFF798FDA6
:1059800004462CB94FF49E7207A10EA0FDF7F2F861
:1059900020461CBD2001002024010020546D7220EF
:1059A00053766300AD4000082E2E5C46726565524A
:1059B000544F535C7372635C74696D6572732E63CC
:1059C000000000004572726F723A25732C20256426
:1059D0000D0A00002DE9FF4704460D4616461F46F6
:1059E000DDF830804FF000092CB940F2BB1217A14E
:1059F0001DA0FDF7BFF82048006810B30095019680
:105A00000294062D15DAFFF783FD022808D1002342
:105A10004246694618480068FFF70AFB814610E0D5
:105A200000231A46694614480068FFF701FB8146C7
:105A300007E000233A4669460F480068FFF7DCFBA1
:105A40008146484604B0BDE8F08700002E2E5C4633
:105A500072656552544F535C7372635C74696D6513
:105A600072732E63000000004572726F723A2573E4
:105A70002C2025640D0A00002001002000020318DC
:105A8000000000000000000000000C00000000000A
:105A900004047454545454FF54545454740404006F
:105AA000040415151555957F151515151F040400CB
:105AB00004047454545454FF54545454740404004F
:105AC000040415151555957F151515151F040400AB
:105AD0001010F01F1010F00000F8080808F800007F
