:020000040800F2
:10000000504C00209D01000845080008F705000835
:1000100041080008C10200085D0F00080000000050
:1000200000000000000000000000000005010008C2
:10003000C50200080000000049010008FD0A000890
:10004000B7010008B7010008B7010008B7010008B0
:10005000B7010008B7010008C9020008B70100088D
:10006000B7010008B7010008B7010008B701000890
:10007000B7010008B7010008B7010008B701000880
:10008000B7010008B7010008B7010008B701000870
:10009000B7010008B7010008B7010008B701000860
:1000A000B7010008B7010008B7010008B701000850
:1000B000B7010008B7010008B7010008B701000840
:1000C000B7010008B7010008B7010008B701000830
:1000D000B70100086D0B0008B7010008B701000860
:1000E0003D030008B7010008B7010008DFF810D091
:1000F00000F0A0F800480047C9110008AFF30080E5
:10010000504C0020224B19680868B0E8F00F80F3CB
:100110000988BFF36F8F4FF0000080F311884EF015
:100120000D0E70470000000006480068006880F36C
:10013000088862B661B6BFF34F8FBFF36F8F00DFE1
:1001400000BF00BF08ED00E0EFF30980BFF36F8F41
:100150000F4B1A6820E9F00F106008B54FF05000FF
:1001600080F31188BFF34F8FBFF36F8F02F0B0FBA6
:100170004FF0000080F31188BDE808401968086856
:10018000B0E8F00F80F30988BFF36F8F704700BFAE
:1001900068000020EFF305807047000006488047A4
:1001A00006480047FEE7FEE7FEE7FEE7FEE7FEE75C
:1001B000FEE7FEE7FEE7FEE70D0B0008ED00000896
:1001C00040EA01039B0703D009E008C9121F08C0D9
:1001D000042AFAD203E011F8013B00F8013B521E59
:1001E000F9D27047D2B201E000F8012B491EFBD2D0
:1001F00070470022F6E710B513460A460446194632
:10020000FFF7F0FF204610BD30B50B460146002039
:100210002022012409E021FA02F59D4205D303FAC8
:1002200002F5491B04FA02F52844151EA2F1010249
:10023000F1DC30BD064C074D06E0E06840F00103FC
:1002400094E8070098471034AC42F6D3FFF752FF0A
:1002500094370008B437000810B54FF4407000F030
:100260002BFB00F08DFD08A000F07AFE00F06EFA86
:1002700008A000F075FE00F0F5F90AA000F070FE8D
:100280000BA000F06DFE10BD7573617274206F6B72
:100290000A0000006C6564206770696F206F6B0A4C
:1002A000000000006B6579206F6B2E0A00000000D3
:1002B00062737020696E697420646F6E65210A0034
:1002C00000BFFEE77047000038B50221174800F074
:1002D00083FA0020009000BF5020EFF3118180F3DB
:1002E0001188BFF34F8FBFF36F8F00BF0C46012003
:1002F00000F066F8012813D100236A460C490D4826
:10030000006802F005FE009838B14FF080500A49AD
:100310000860BFF34F8FBFF36F8F012000F04AF8E2
:1003200000BF84F3118800BF38BD00000008014001
:10033000380000203000002004ED00E038B5042132
:10034000184800F049FA0020009000BF5020EFF359
:10035000118180F31188BFF34F8FBFF36F8F00BF00
:100360000C464FF4005000F02BF8012814D1002364
:100370006A460D490D48006802F0CAFD009838B180
:100380004FF080500A490860BFF34F8FBFF36F8F63
:100390004FF4005000F00EF800BF84F3118800BF46
:1003A00038BD0000000801403C0000203000002063
:1003B00004ED00E0014908607047000014040140AA
:1003C000014600200022074B1B6803EA0102054B8F
:1003D00014331B680B4013B10AB1012000E0002068
:1003E0007047000000040140002123498279002A5F
:1003F0003AD00A46126803689A430B461A600A1DEF
:10040000126803689A430B1D1A60027911440A6846
:1004100003681A430A60184A0832126803689A434C
:10042000154B08331A601A1D126803689A43124B61
:100430000C331A604279102A0ED11A1F1268036811
:100440001A430D4B08331A601A1D126803681A43C9
:10045000094B0C331A600DE00749427911440A68D0
:1004600003681A430A6005E0027911440A680368C8
:100470009A430A60704700000004014030B5002232
:100480008B071C0F0F2303FA04F20B4B8C1053F84D
:1004900024309343084C8D1044F8253023468C10AB
:1004A00053F824308C07240F00FA04F42343024C41
:1004B0008D1044F8253030BD080001402DE9F04191
:1004C000024600250026002000230024002791F882
:1004D00003C00CF00F0591F803C00CF0100CBCF138
:1004E000000F03D091F802C04CEA050591F800C056
:1004F000BCF1000F31D0146800202BE04FF0010C4C
:100500000CFA00F3B1F800C00CEA03069E4220D1B9
:1005100083004FF00F0C0CFA03F7BC4305FA03FC01
:100520004CEA040491F803C0BCF1280F06D14FF047
:10053000010C0CFA00FCC2F814C00AE091F803C0E8
:10054000BCF1480F05D14FF0010C0CFA00FCC2F8C9
:1005500010C0401C0828D1D31460B1F800C0BCF111
:10056000FF0F34DD546800202EE000F1080C4FF03E
:10057000010808FA0CF3B1F800C00CEA03069E4229
:1005800021D183004FF00F0C0CFA03F7BC4305FA9E
:1005900003FC4CEA040491F803C0BCF1280F05D118
:1005A00000F1080C08FA0CF8C2F8148091F803C0A6
:1005B000BCF1480F07D100F1080C4FF0010808FA10
:1005C0000CF8C2F81080401C0828CED35460BDE857
:1005D000F0810246002093680B400BB1012000E03F
:1005E000002070470161704710B50446A18820685B
:1005F000FFF7EFFF10BD00BFFEE7000008B50020C9
:1006000000900121042000F061F901211348FFF757
:10061000E9FF0120ADF8000004208DF8030003205D
:100620008DF8020069460D48FFF748FF01211020B0
:1006300000F04CF94FF400510948FFF7D3FF4FF495
:100640000050ADF8000004208DF8030003208DF861
:10065000020069460248FFF731FF08BD000801406B
:100660000010014010B500F03DF8FFF7C7FF00F0A3
:100670000BF8034800F05CF8024800F059F810BD90
:1006800040000020540000201CB500200090019084
:100690000121084600F01AF900210846FFF7EEFE96
:1006A0000120009000208DF804000C208DF805003A
:1006B00001208DF806006846FFF796FE0D21022006
:1006C000FFF7DCFE4FF40050009000208DF804008E
:1006D0000C208DF8050001208DF806006846FFF714
:1006E00083FE1CBD08B5002000900121084600F0E3
:1006F000EDF806208DF8000007208DF8010000209D
:100700008DF8020001208DF80300684600F09CF887
:1007100028208DF8000007208DF8010000208DF8BA
:10072000020001208DF80300684600F08DF808BD36
:1007300010B50446A079022807D12046FFF754FFE0
:1007400008B9012000E00020A07110BD08B500200C
:1007500000900121042000F0B9F802211D48FFF7A4
:1007600041FF0220ADF8000010208DF803000320A7
:100770008DF8020069461748FFF7A0FE012104200A
:1007800000F0A4F804211348FFF72CFF0420ADF873
:10079000000010208DF8030003208DF80200694648
:1007A0000C48FFF78BFE0121042000F08FF8082190
:1007B0000848FFF717FF0820ADF8000010208DF85B
:1007C000030003208DF8020069460248FFF776FE19
:1007D00008BD000000080140C2684A40C26070477E
:1007E00008B5012411E000235A1E69460748006835
:1007F00002F06AF90446012C04D105A0009900F02A
:10080000AFFB02E009A000F0ABFBECE730000020FA
:10081000E8A7A6E58F91E4B8ADE696ADE79A84E641
:1008200098AF204B4559256420210A00E695B0E693
:100830008DAEE68EA5E694B6E587BAE994990A00EE
:1008400000BFFEE77047000070B5002100230F22B3
:10085000C47804B3154C246804F4E064C4F5E0647F
:10086000210AC1F10403CA40447804FA03F18478F0
:100870001440214309010E4C0678A155047804F078
:100880001F050124AC4005786D11AD0005F1E02590
:10089000C5F8004109E0047804F01F050124AC40CC
:1008A000044D0678761145F8264070BD0CED00E049
:1008B00000E400E080E100E002490143024A1160E7
:1008C000704700000000FA050CED00E029B1064A6F
:1008D00092690243044B9A6104E0034A926982439D
:1008E000014B9A61704700000010024030B50021B2
:1008F0000022002400232D4D6D6805F00C0121B16C
:10090000042905D0082923D105E0294D056022E0FE
:10091000274D05601FE0254D6D6805F47012234DCD
:100920006D6805F48034022505EB92421CB9214D17
:10093000554305600BE01D4D6D6805F400351DB194
:100940001C4D5543056002E0194D5543056002E01A
:10095000174D056000BF00BF144D6D6805F0F00134
:100960000909154D6B5C0568DD4045600F4D6D68EC
:1009700005F4E061090A104D6B5C4568DD40856057
:100980000A4D6D6805F46051C90A0B4D6B5C4568F2
:10099000DD40C560054D6D6805F44041890B074D8C
:1009A0006B5CC568B5FBF3F5056130BD0010024016
:1009B00000127A0000093D001400002024000020ED
:1009C000012417E000235A1E19460B48006802F064
:1009D0007BF80446012C0DD1084909A000F0C0FAAB
:1009E000A1020648FFF705FC00200449C1F80004F5
:1009F000C1F80404E6E7000034000020EC00002009
:100A0000E68EA5E694B6E695B0E68DAEEFBC9A25E7
:100A100073200A0010B500F001F810BD0CB50020DD
:100A2000019000903348006840F4803031490860FC
:100A300000BF3048006800F4003000900198401C6E
:100A40000190009818B90198B0F5A06FF1D129482C
:100A5000006800F4003010B10120009001E0002097
:100A600000900098012843D12348006840F010000E
:100A7000214908600846006820F007000860084621
:100A8000006840F0020008601A4840681949486050
:100A90000846406848600846406840F48060486006
:100AA0000846406820F47C1048600846406840F4DE
:100AB000E81048600846006840F08070086000BF99
:100AC0000C48006800F000700028F9D00948406820
:100AD00020F00300074948600846406840F00200E3
:100AE000486000BF0348406800F00C000828F9D1B6
:100AF0000CBD0000001002400020024010B502F0C2
:100B000093FB012801D001F089FF10BD10B51348F7
:100B1000006840F00100114908600846406810492B
:100B200008400E494860084600680E4908400B49D5
:100B300008600846006820F4802008600846406885
:100B400020F4FE0048604FF41F008860FFF762FF4A
:100B50004FF000600449086010BD00000010024022
:100B60000000FFF8FFFFF6FE08ED00E038B50024B6
:100B700040F22551474800F0D8F8012860D1454897
:100B800000F0E3F9C4B24448D0F8000440F2FF3169
:100B900088420ED24048D0F8040450B93E48D0F8FC
:100BA0000014D0F80004401C3B4AC2F80004104670
:100BB00044543948D0F8000440F2FF3188421ED135
:100BC00000203549D1F80014334A50540120114611
:100BD000C1F804043148006888B1002000906946DB
:100BE0002E48006802F01EFA009838B14FF080508D
:100BF0002B490860BFF34F8FBFF36F8F00BF0A2CE4
:100C00001ED100202449D1F80014234A5054012059
:100C10001146C1F804042148006888B10020009002
:100C200069461E48006802F0FDF9009838B14FF09F
:100C300080501B490860BFF34F8FBFF36F8F00BF19
:100C400040F22441134800F070F8012821D11148E6
:100C500000F07BF900201049D1F800140E4A5054DE
:100C600001201146C1F804040C48006888B1002036
:100C7000009069460948006802F0D4F9009838B13C
:100C80004FF0805006490860BFF34F8FBFF36F8F5E
:100C900000BF38BD00380140EC00002034000020C7
:100CA00004ED00E021B1828942F40052828104E027
:100CB00082894DF6FF731A408281704708B5002083
:100CC000009001210420FFF701FE4FF40070ADF801
:100CD000000018208DF8030003208DF802006946FB
:100CE0000A48FFF7EBFB01210420FFF7EFFD4FF46B
:100CF0008060ADF8000048208DF8030003208DF8D7
:100D0000020069460148FFF7D9FB08BD0008014011
:100D100002460020B1F5007F00D100BF13880B40D0
:100D20000BB1012000E00020704770B5024600249E
:100D300000230025002040F66A16B14200D100BF12
:100D4000C1F3421501F01F03012606FA03F3012D3A
:100D500002D19689334006E0022D02D1168A334033
:100D600001E0968A33400C12012606FA04F4168834
:100D7000344013B10CB1012000E0002070BD000030
:100D800010B500F0CBF800F09BF8FFF797FF0121BA
:100D90000148FFF787FF10BD00380140F0B503465A
:100DA000002400260025002040F66A17B94200D131
:100DB00000BF1846C1F3421401F01F06012707FACD
:100DC00006F5012C01D10C3004E0022C01D11030C9
:100DD00000E014301AB107682F43076002E007688B
:100DE000AF430760F0BD00002DE9F04786B005462F
:100DF0000E460024A24600BFA1460027B08900B1DC
:100E000000BF2F462C8A4CF6FF700440F088044344
:100E10002C82AC894EF6F3100440B0883189084327
:100E2000718908430443AC81AC8A4FF6FF4004400B
:100E3000B0890443AC8201A8FFF758FD1F488742E0
:100E400002D1DDF810A001E0DDF80CA0A88900F4C3
:100E5000004040B10AEBCA0000EB0A1031684900BB
:100E6000B0FBF1F807E00AEBCA0000EB0A103168AA
:100E70008900B0FBF1F86420B8FBF0F00401200910
:100E8000642101FB1089A88900F4004040B13220A0
:100E900000EBC900B0FBF1F000F00700044308E0EC
:100EA000322000EB09106421B0FBF1F000F00F00DC
:100EB00004432C8106B0BDE8F087000000380140F3
:100EC0001FB500200090019002900390012188033B
:100ED000FFF7FCFC4FF4E13000900020ADF80C006F
:100EE0000C20ADF80A000020ADF80800ADF80600AF
:100EF000ADF8040069460848FFF776FF012240F28A
:100F000025510548FFF74AFF012240F224410248DB
:100F1000FFF744FF1FBD00000038014008B5012164
:100F20000846FFF7D3FC0020009025208DF8000034
:100F300008208DF8010000208DF8020001208DF8B6
:100F400003006846FFF780FC08BD01468888C0F3AF
:100F500008007047C1F308028280704700BFFEE7B7
:100F60000FB4054B10B503A9044A029800F018F815
:100F700010BC5DF814FB000095110008E80000208B
:100F800002E008C8121F08C1002AFAD17047704752
:100F9000002001E001C1121F002AFBD170470000B0
:100FA0002DE9FF4F8BB09A460F460546002606E016
:100FB00025280BD052460D9990476D1C761C287839
:100FC0000028F5D10FB03046BDE8F08F0024A046D0
:100FD0000122604900E0044315F8013F203B02FA7A
:100FE00003F00842F7D128782E2817D115F8010F01
:100FF00044F004042A280ED06FF02F022878A0F1C4
:10100000300109290AD808EB880102EB410100EB05
:1010100001086D1CF2E757F8048B6D1C28786928CD
:101020003ED006DC0028CDD063280BD0642804D144
:1010300036E0732810D075284BD052460D99904752
:10104000761C85E017F8040B8DF8000000208DF861
:101050000100E946012003E057F8049B4FF0FF3000
:1010600061074FF0000401D40AE0641C44450DDA26
:101070008442FADB19F804100029F6D106E0641C5A
:101080008442FCDB19F804100029F8D1264404E05E
:1010900019F8010B52460D999047641EF8D257E09B
:1010A00001CF4FF00A0B002802DA40422D2102E066
:1010B000210504D52B218DF82410012103E0E1073F
:1010C00005D02021F7E70DF1200908910CE000215F
:1010D000F9E701CF4FF00A0BF9E75946FFF794F80B
:1010E00001F1300209F8012D0028F6D1ADEB09001D
:1010F00000F1200B600701D44FF00108D84502DD54
:10110000A8EB0B0000E000208046002406E009A8C0
:101110005246005D0D999047641C761C08988442E5
:10112000F5DB04E0302052460D999047761CB8F16B
:101130000001A8F10108F5DC05E019F8010B5246A1
:101140000D999047761CBBF10001ABF1010BF4DC6B
:101150006D1C34E70928010001210120094A1268A9
:101160000AB100200CE0084A12680AB1002007E02A
:10117000064A1368064A1268521E934200D10220A2
:1011800070470000EC0700208C00002014080020AD
:101190007800002070B504460D4600BF4021094884
:1011A000FFF7B6FD0028F9D0A1B20648FFF7D2FE3E
:1011B00000BF80210348FFF7ABFD0028F9D020468F
:1011C00070BD0000003801401CB5FFF745F8012450
:1011D000012500F0D9FF00220421084601F038FC67
:1011E000264908600846006818B125A0FFF7B8FE38
:1011F00002E02BA0FFF7B4FE03220021012001F042
:1012000027FC2F4908600846006818B12DA0FFF799
:10121000A7FE02E034A0FFF7A3FE3C480221002312
:101220000A02CDE900103AA13C4801F0CDFF044686
:10123000012C03D13AA0FFF793FE02E03FA0FFF795
:101240008FFE4648032100234FF40072CDE90010C1
:1012500043A1474801F0B8FF0546012D03D145A041
:10126000FFF77EFE02E04AA0FFF77AFE012C03D1D1
:10127000012D01D101F09AFA00BFFEE730000020F5
:10128000E6B688E681AFE9989FE58897E5889BE513
:10129000BBBAE68890E58A9FEFBC815C6E000000D7
:1012A000E6B688E681AFE9989FE58897E5889BE5F3
:1012B000BBBAE5A4B1E8B4A5EFBC815C6E00000048
:1012C00034000020E4BA8CE8BF9BE588B6E4BFA1F7
:1012D000E58FB7E9878FE5889BE5BBBAE68890E59F
:1012E0008A9FEFBC815C6E00E4BA8CE8BF9BE58806
:1012F000B6E4BFA1E58FB7E9878FE5889BE5BBBA68
:10130000E5A4B1E8B4A5EFBC815C6E002800002024
:101310004C45445F5461736B00000000E107000816
:101320004C45445F5461736B207461736B2063722E
:101330006561746520646F6E650A00004C45445F0A
:101340005461736B207461736B20637265617465A3
:10135000206661696C65640A000000002C000020B2
:10136000526563656976655F5461736B00000000C8
:10137000C10900084B45595F5461736B2074617358
:101380006B2063726561746520646F6E650A00008E
:101390004B45595F5461736B207461736B206372AA
:1013A00065617465206661696C65640A000000000F
:1013B0002DE9F04105460E461C4807681C480068A8
:1013C000001D00F097FE50B91948006890F82C10E5
:1013D0000120884017490968814316480160681C4C
:1013E00038B936B112480168091D134800F0C0FE33
:1013F0001AE07C190E4800684460BC4207D20C48D1
:101400000168091D0D48006800F098FE0CE00848CE
:101410000168091D0A48006800F090FE094800684C
:10142000844201D207480460BDE8F0817C000020BE
:1014300068000020800000201408002070000020B8
:101440006C0000209800002010B5044600F09CFEBF
:1014500023480068401C224908602248006840B9BF
:10146000204804600846006801280DD100F046FAC3
:101470000AE01D48006838B91A480068C06AE16A85
:10148000884201D81748046018480068401C174972
:10149000086094F82C100120884015490968084319
:1014A00013490860E16A01EB8101124A02EB8100F5
:1014B000211D00F05DFE00F0A9FE0B48006868B138
:1014C00008480068C06AE16A884207D24FF080503D
:1014D00009490860BFF34F8FBFF36F8F10BD000045
:1014E0007800002068000020840000209400002084
:1014F000800000204405002004ED00E010B500F05D
:1015000043FE10480068D0B90F4800F007FE0F48AE
:1015100000F004FE0C480E4908600C480D490860B4
:10152000002210210A2001F093FA064908600846BB
:10153000006820B108A10348006801F019F800F024
:1015400065FE10BDAC000020280800203C080020EB
:10155000A4000020A8000020546D7251000000007B
:1015600070B523E001F0ACF91348006808B9012018
:1015700000E00020054601F0EBFFBDB900F004FEDD
:101580000D48C068C468201D00F0B4FD0B48006819
:10159000401E0A4908600A480068401E0849086061
:1015A00000F034FE204600F060F800BF04480068F8
:1015B0000028D7D170BD000000080020780000206E
:1015C0007400002070B504460D46206C70B1216C8B
:1015D000E0680844E0606168E068884201D3206800
:1015E000E0602846226CE168FEF7EAFD70BD2DE957
:1015F000F04104460F4615464FF00008A66B206CDC
:1016000040B9206860BB606801F0D6FE80460020CB
:10161000606025E07DB93946226CA068FEF7D0FDF8
:10162000216CA0680844A060D4E90110884217D357
:101630002068A06014E03946226CE068FEF7C0FD27
:10164000216CE068401AE0602168E068884203D2BB
:10165000216C6068401AE060022D01D106B1761E4F
:10166000701CA0634046BDE8F08110B50446206BB5
:1016700000F002FE204600F0FFFD10BD0021012217
:101680000C4B1B68012B00D901210B4A1268D26A4E
:101690000AB100200DE0094A1268012A01D9002090
:1016A00007E009B1002004E0054A1268054B1B68F9
:1016B000D01A7047800000206800002044050020F8
:1016C000980000207C0000200146084A1268126839
:1016D0000AB9012200E000220A600A6822B9034A1E
:1016E0001268D268106800E000207047A400002053
:1016F00030B54FF48043174800F007042CB1C01DEB
:1017000020F00700134C041B1B1B0246124C2260E6
:101710000024114D6C60D018083820F007000F4CE1
:10172000206000240D4D2D686C600C4D2D682C60E0
:101730001146441A4C60094C24680C60084D4C68F2
:101740002C60084D4C682C604FF00044064D2C6016
:1017500030BD000050080020D0000020D80000203C
:10176000E0000020DC000020E400002000BFFFF7C4
:10177000F7FE17480068012807D94FF08050154937
:101780000860BFF34F8FBFF36F8FFFF777FF0446FB
:10179000022C1BD301F094F80F4800680F49096828
:1017A000884201D3012000E0002028B940F62F52E2
:1017B0000BA111A0FFF7D4FBFFF760FF0446022C3A
:1017C00002D3204600F0E0FD01F0C2FECFE70000AA
:1017D0004405002004ED00E0980000207C0000207B
:1017E0002E2E5C4672656552544F535C7372635C77
:1017F0007461736B732E63004572726F723A257356
:101800002C2025640D0A00002DE9F04106460D4606
:1018100017469846069C0DB9246000E02760E663F1
:1018200025640121204601F035FA0020A064BDE8BE
:10183000F08100002DE9FF5F81460F469246DDE909
:101840000E6B109CAAF10100216B01EB800828F0BF
:10185000070808F0070008B9012000E0002028B9B7
:101860004FF44D721BA121A0FFF77AFB002507E082
:10187000795D04F134004155785D00B902E06D1CDA
:10188000102DF5D300BF002143200155202E00D399
:101890001F26E66266640020A064201D00F04BFC59
:1018A00004F1180000F047FC2461C6F12000A0619B
:1018B00064620020E06484F8500049464046039A80
:1018C00000F006FC2060BBF1000F01D0CBF8004017
:1018D000BDE8FF9F2E2E5C4672656552544F535CE7
:1018E0007372635C7461736B732E63004572726F05
:1018F000723A25732C2025640D0A000010B50024CF
:1019000007E004EB84010F4A02EB810000F006FCC3
:10191000641C202CF5D30C4800F000FC0B4800F0B0
:10192000FDFB0B4800F0FAFB0A4800F0F7FB0A4801
:1019300000F0F4FB044809490860044808490860BD
:1019400010BD000044050020C4070020D807002077
:10195000EC07002000080020140800206C00002084
:101960007000002010B50146164800E000680368CA
:101970008B42FBD30246436813448B4204D1436835
:101980004C682344436001460A464B68134404688C
:10199000A34211D10C4C03682468A34208D04B68C1
:1019A0000468646823444B6003681B680B6005E0AF
:1019B000054B1B680B6001E003680B60884200D098
:1019C000016010BDD0000020D80000202DE9F041BA
:1019D00004460D4616461F464FF000086560246118
:1019E000B5420CD8F01BA169884202D34FF0010820
:1019F00011E0211D0948006800F0A0FB0BE0BE4289
:101A000004D2BD4202D34FF0010804E0211D044876
:101A1000006800F093FB4046BDE8F081A80000207C
:101A2000A400002070B5054600F0AEFBA86B08B915
:101A3000012400E0002400F0E9FB204670BD70B5F1
:101A4000054600F0A1FBA86BE96B884201D1012497
:101A500000E0002400F0DAFB204670BD2DE9F341E0
:101A60000D460098846C00272CB940F671221AA10B
:101A70001FA0FFF775FAA06BE16B884201D201202D
:101A800000E0002028B940F6722213A118A0FFF749
:101A900067FAA06BE16B88421BD294F945602A4635
:101AA00069462046FFF7A3FD0746701C60B9606ACF
:101AB00008B9012000E0002050B904F1240001F031
:101AC000E9FC28B1012703E0701C40B284F845000E
:101AD00000BF3846BDE8FC812E2E5C46726565521B
:101AE000544F535C7372635C71756575652E63004A
:101AF0004572726F723A25732C2025640D0A00001E
:101B0000F8B505460F4613480068C068C468201D34
:101B100000F0F0FAE069012818D1A06941192B46BC
:101B20003A462046FFF752FF80B1002003462A467E
:101B300001460090204601F0D9FD06462EB940F23C
:101B4000232205A10BA0FFF70BFA00BF2046616A14
:101B50008847F8BDA40000202E2E5C4672656552B1
:101B6000544F535C7372635C74696D6572732E635A
:101B7000000000004572726F723A25732C202564B4
:101B80000D0A0000F0B587B070E0039800280CDA69
:101B900004AE2EB94FF448723AA141A0FFF7E0F924
:101BA000D6E90020B168904700BF039800285DDBAC
:101BB000059C606908B9012000E0002010B9201DD3
:101BC00000F098FA02A800F0C9F8054603980A2820
:101BD0004AD2DFE800F00905072C2E4506082D2F14
:101BE00000BF00BF00BF00BF0498A2698118034670
:101BF0002A462046FFF7EAFEC0B12046616A8847C0
:101C0000E069012812D1002000900498A1694218CF
:101C100000231946204601F069FD07462FB94FF40D
:101C2000587218A11EA0FFF79BF900BF1DE000BF6E
:101C30001BE000BF0498A061A06908B1012000E08A
:101C4000002028B940F277320EA115A0FFF788F9DD
:101C5000A06941192B462A462046FFF7B7FE04E04B
:101C6000204600F009FB00E000BF00BF00231A4639
:101C700003A90F48006800F027FF002885D107B0AE
:101C8000F0BD00002E2E5C4672656552544F535CC9
:101C90007372635C74696D6572732E63000000007B
:101CA0004572726F723A25732C2025640D0A00006C
:101CB000AC000020F8B505460C4600F001FE684671
:101CC00000F04CF80646009820BB44B9B54206D84F
:101CD00001F03EFC31462846FFF712FF1CE03CB104
:101CE0000E480068006808B9012000E000200446A2
:101CF000A91B22460A48006800F050FC01F028FCAD
:101D000050B94FF0805007490860BFF34F8FBFF3C1
:101D10006F8F01E001F01CFCF8BD0000A80000205E
:101D2000AC00002004ED00E00A490968096809B91F
:101D3000012100E0002121B14FF0FF31064A11607E
:101D400006E004490968C968C868034A4168116027
:101D5000704700006C0000209800002070B5044619
:101D600001F072FA054607480068854204D200F087
:101D70000BF80120206001E0002020600148056090
:101D8000284670BDB40000202DE9F8432DE021481D
:101D90000068C06805681F480068C068C468201DE6
:101DA00000F0A8F92046616A8847E06901281CD143
:101DB000A0694619AE4207D966602461211D154805
:101DC000006800F0BBF910E0002003462A460146F7
:101DD0000090204601F08AFC07462FB940F2D1322C
:101DE0000DA114A0FFF7BCF800BF0A480068006806
:101DF00008B9012000E000200028C8D00548D0F82C
:101E0000008010480068034908600E48C0F8008050
:101E1000BDE8F883A40000202E2E5C467265655252
:101E2000544F535C7372635C74696D6572732E6397
:101E3000000000004572726F723A25732C202564F1
:101E40000D0A0000A80000200B480068401C08B9DB
:101E5000012000E0002020B9F42208A111A0FFF722
:101E60007FF800BF502080F31188BFF34F8FBFF37E
:101E70006F8F00BF00BFFEE7B80000202E2E5C462B
:101E800072656552544F535C706F72745C52564465
:101E9000535C41524D5F434D335C706F72742E63DF
:101EA000000000004572726F723A25732C20256481
:101EB0000D0A000008B500BF6846FFF705FC0446A0
:101EC00020460099FFF7F6FEFFF75CFEF4E770B5D9
:101ED000044600F059F994F945501AE0A06C38B165
:101EE00000212046FFF7BAFD88B100F07DFB0EE02F
:101EF000606A08B9012000E0002038B904F124002C
:101F000001F0C8FA18B100F06FFB00E003E0681EB2
:101F100045B2002DE2DC00BFFF2084F8450000F050
:101F200075F900F031F994F9445010E0206908B9CE
:101F3000012000E0002048B904F1100001F0AAFAE5
:101F400008B100F051FB681E45B200E001E0002D31
:101F5000ECDC00BFFF2084F8440000F057F970BDAE
:101F60002DE9F04104464FF0000800F0A9FC3E487E
:101F7000006808B9FFF7BCFB3C4800682040002817
:101F80005FD1A4B1083404F0070080B104F0070069
:101F9000C0F10800044404F0070008B9012000E083
:101FA000002020B9C02232A13AA0FEF7D9FF002CB0
:101FB00047D03C480068844243D83B4E30460568D1
:101FC00001E02E462D686868A04202D228680028E9
:101FD000F7D125480068854233D0306800F1080801
:101FE000286830606868001B102813D92F1907F083
:101FF000070008B9012000E0002020B9ED221CA153
:1020000024A0FEF7ADFF6868001B78606C6038465E
:10201000FFF7A8FC234968680968081A2149086085
:102020000846006821490968884203D21D480068B3
:102030001E4908600D496868096808436860002007
:10204000286001F085FA08F0070008B9012000E0D7
:10205000002028B940F22D1205A10EA0FEF780FF46
:102060004046BDE8F0810000D8000020E4000020D8
:102070002E2E5C4672656552544F535C706F7274BD
:102080005C4D656D4D616E675C686561705F342E97
:10209000630000004572726F723A25732C2025642C
:1020A0000D0A0000DC000020D0000020E00000202D
:1020B0000648006830B10549096801F14800896C9B
:1020C000491C01600148006870470000680000205A
:1020D000001F4FF080730360001F21F001030360B5
:1020E000001F034B03601438026020387047000063
:1020F000491E000801460A69D1E901309860D1E91A
:10210000010358605068884201D1886850600020FF
:1021100008611068401E10601068704700F10801E7
:1021200041604FF0FF31816000F10801C160016141
:1021300000210160704700210161704710B502461F
:102140000B685C1C0CB9106907E002F1080000E0A4
:102150004068446824689C42FAD944684C604C68E2
:10216000A160886041600A611468641C146010BD3D
:1021700042684A6093688B60936859609160086117
:1021800003685B1C0360704710B500BF502080F3EC
:102190001188BFF34F8FBFF36F8F00BF0B480068EC
:1021A000401C0A4908600846006801280DD108480B
:1021B0000068C0B208B9012000E0002028B940F250
:1021C000B11204A10DA0FEF7CBFE10BDB800002097
:1021D00004ED00E02E2E5C4672656552544F535C50
:1021E000706F72745C525644535C41524D5F434D64
:1021F000335C706F72742E63000000004572726F62
:10220000723A25732C2025640D0A000010B50B4886
:10221000006828B940F2B91209A113A0FEF7A0FE88
:1022200006480068401E054908600846006820B955
:10223000002080F3118800BF00BF10BDB80000204F
:102240002E2E5C4672656552544F535C706F7274EB
:102250005C525644535C41524D5F434D335C706F4A
:1022600072742E63000000004572726F723A25731B
:102270002C2025640D0A000070B506463546002E58
:1022800035D0083D2C461A4960680968084008B1F5
:10229000012000E0002028B940F2411215A11EA043
:1022A000FEF75EFE206808B9012000E0002028B992
:1022B0004FF4A1720FA118A0FEF752FE0C496068FE
:1022C0000968084098B1206888B9094960680968B8
:1022D0008843606000F0F4FA1349606809680844B4
:1022E000114908602046FFF73DFB01F031F970BD50
:1022F000E40000202E2E5C4672656552544F535CFC
:10230000706F72745C4D656D4D616E675C68656180
:10231000705F342E630000004572726F723A25734D
:102320002C2025640D0A0000DC0000201248006803
:102330004FF47A71B0FBF1F010490860084600686C
:102340006FF07F41B1FBF0F00D4908600A4800686A
:10235000B0FBF0F02D21B1FBF0F00A49086006480F
:1023600000684FF47A71B0FBF1F0401E4FF0E021AD
:10237000486107200861704700000020BC00002071
:10238000C0000020C40000202DE9F04704464E485C
:102390000068844201D94C4804684FF0E02000698D
:1023A00020F001004FF0E021086108468169601EBD
:1023B000464A126802FB001545480068854202D96A
:1023C000434800682D1A72B6BFF34F8FBFF36F8F6B
:1023D000FEF7C2FE80B94FF0E02080694FF0E021A7
:1023E00048610846006940F001000861374800680C
:1023F000401E486162B665E04FF0E0204561002074
:102400004FF0E02188610846006940F00100086152
:10241000A146B9F1000404D0BFF34F8F30BFBFF322
:102420006F8F4FF0E020D0F8108028F001004FF0BF
:10243000E021086162B608F48030B8B12349096828
:10244000491E4FF0E0229269AA1A881A20490968A9
:10245000884203D31D490968884202D91B4909688B
:10246000481E4FF0E0214861661E12E017480068E0
:1024700060434FF0E0218969471A14480068B7FBB0
:10248000F0F6701C114909684843C01B4FF0E02169
:10249000486100204FF0E0218861FFF775FE4FF0A2
:1024A000E020006940F001004FF0E0210861304673
:1024B00000F0D4F905480068401E4FF0E021486163
:1024C000FFF7A4FEBDE8F087C0000020BC0000209C
:1024D000C400002070B5FDF75DFE0546102D11D338
:1024E00005F1E02090F8F04310480078844201DBC9
:1024F000012000E0002028B940F2FF220CA116A024
:10250000FEF72EFD1848006800F4E06017490968DE
:10251000884201D8012000E0002028B940F20F32A3
:1025200003A10DA0FEF71CFD70BD0000C800002037
:102530002E2E5C4672656552544F535C706F7274F8
:102540005C525644535C41524D5F434D335C706F57
:1025500072742E63000000004572726F723A257328
:102560002C2025640D0A00000CED00E0CC000020BA
:10257000024600200BE0084B53F8303033B9064BCD
:1025800043F8301003EBC0035A6002E0401C0A28F5
:10259000F1D300BF70470000F40400202DE9F041A2
:1025A00005460E4617462C46FFF7EEFD94F944000B
:1025B000401C10B9002084F8440094F94500401CE8
:1025C00010B9002084F84500FFF720FEA06B28B961
:1025D0003A46314604F1240000F038F82046FFF76F
:1025E00076FCBDE8F08100000120014908607047D9
:1025F0008C00002070B504460D462CB940F6A93277
:1026000007A10DA0FEF7ACFC0F4801681831204669
:10261000FFF794FD01212846FEF7CAFE70BD0000B9
:102620002E2E5C4672656552544F535C7372635C28
:102630007461736B732E63004572726F723A257307
:102640002C2025640D0A00006800002070B50546A6
:102650000E4614462DB940F6D43209A10EA0FEF75D
:102660007FFC1148016818312846FFF781FD0CB145
:102670004FF0FF3621463046FEF79AFE70BD00004F
:102680002E2E5C4672656552544F535C7372635CC8
:102690007461736B732E63004572726F723A2573A7
:1026A0002C2025640D0A00006800002070B5054646
:1026B0002C46002D4BD02649E06A0968C96A884239
:1026C00045D2A06900F0004028B921480068C06ADE
:1026D000C0F12000A061E16A01EB81011D4A02EB1B
:1026E00081016069884201D1012000E0002050B3DF
:1026F000201DFFF7FFFC78B9E06A00EB8000154968
:1027000051F8200040B994F82C100120884012495B
:1027100009688143104801600D480068C06AE062A2
:1027200094F82C10012088400B49096808430A4995
:102730000860E16A01EB8101064A02EB8100211D7C
:10274000FFF716FD03E002480068C06AE06270BD52
:1027500068000020440500208000002010B50446D9
:102760002CB940F6644205A10AA0FEF7F9FB0D481A
:10277000006820600C480068606010BD2E2E5C462A
:1027800072656552544F535C7372635C7461736B12
:10279000732E63004572726F723A25732C20256484
:1027A0000D0A0000900000207C0000201CB51A4893
:1027B00000210B468022CDE9001018A1194800F035
:1027C00003FD0446012C02D100F054FF0446012C05
:1027D00015D100BF502080F31188BFF34F8FBFF396
:1027E0006F8F00BF4FF0FF300F49086001200F4985
:1027F000086000200E49086000F0C0F80BE0601C83
:1028000008B1012000E0002028B940F2FC7209A1C3
:102810000EA0FEF7A5FB1CBD9C00002049444C45C2
:10282000000000006D1700089800002084000020C0
:102830007C0000202E2E5C4672656552544F535C1E
:102840007372635C7461736B732E63004572726F95
:10285000723A25732C2025640D0A000010B5044639
:102860000B48006820440B490968884201D80120C0
:1028700000E0002028B940F6F91207A10CA0FEF7ED
:102880006FFB0348006820440149086010BD000048
:102890007C000020980000202E2E5C467265655258
:1028A000544F535C7372635C7461736B732E63007B
:1028B0004572726F723A25732C2025640D0A000050
:1028C00002480068401C014908607047A0000020D1
:1028D00010B51B48006818B101201A4908602DE0A6
:1028E00000201849086018480068B0FA80F0C0F16C
:1028F0001F0404EB8400154951F8200008B10120A1
:1029000000E0002028B940F6993211A116A0FEF788
:1029100027FB04EB84010D4A02EB81004168496802
:10292000416000F1080142688A4202D14168496869
:1029300041604168C968104A116000BF10BD0000C5
:10294000A00000208C000020800000204405002012
:102950002E2E5C4672656552544F535C7372635CF5
:102960007461736B732E63004572726F723A2573D4
:102970002C2025640D0A0000680000201CB52248A8
:10298000014609780191FF2102461170014609783C
:1029900000919DF8001001F050011C4A11700721B0
:1029A0001B4A116009E01A490968491E184A11605A
:1029B0009DF800104906090E00919DF8001001F0E5
:1029C00080018029EFD0124909680902104A11607C
:1029D0001146098801F4E06111600B4A01991170F8
:1029E0000C48006840F470000A4908600846006816
:1029F00040F070400860FFF799FC0020064908602D
:102A0000FDF792FB00201CBD00E400E0C8000020A0
:102A1000CC00002020ED00E0B800002010B500BF81
:102A2000502080F31188BFF34F8FBFF36F8F00BF2B
:102A300000F010FC18B14FF080500449086000BF4E
:102A4000002080F3118800BF10BD000004ED00E0FD
:102A50002DE9F84305460E4690460DB1012000E0F1
:102A6000002028B94FF4D8720DA113A0FEF778FA10
:102A70000EB9002701E005FB06F707F14C00FFF750
:102A80006FFA044644B104F14C0943464A463146C4
:102A900028460094FEF7B8FE2046BDE8F883000003
:102AA0002E2E5C4672656552544F535C7372635CA4
:102AB00071756575652E63004572726F723A257384
:102AC0002C2025640D0A00002DE9FF4782B0054641
:102AD0000E461F464FF0000A2C462CB940F25652C3
:102AE00061A167A0FEF73CFA0EB9206C08B901207D
:102AF00000E0002028B94FF4AB625BA160A0FEF7B4
:102B00002FFA00F091FB08B9049808B9012000E001
:102B1000002028B940F25C5253A159A0FEF720FAD8
:102B200000BFFFF731FBD4F83890B9F1000F3DD06A
:102B3000D4F80C8031462046FEF744FDDFB9A9F1F8
:102B40000100A063206810B9FFF7B2FA6060206945
:102B500008B9012000E0002010BB04F1100000F0D3
:102B600099FCE8B14FF0805049490860BFF34F8F9E
:102B7000BFF36F8F14E0C4F80C80606A08B90120BD
:102B800000E0002060B904F1240000F083FC38B1BB
:102B90004FF080503E490860BFF34F8FBFF36F8FF7
:102BA000FFF734FB012006B0BDE8F087049818B9A0
:102BB000FFF72CFB0020F6E7BAF1000F04D16846BE
:102BC000FFF7CCFD4FF0010AFFF720FBFFF778FE7F
:102BD000FFF7DAFA94F94400401C10B9002084F899
:102BE000440094F94500401C10B9002084F84500C9
:102BF000FFF70CFB04A9684600F094FA40BB20469E
:102C0000FEF710FFF0B1206830B9FFF7BDFA606839
:102C1000FFF74CFDFFF7FAFA04F124000499FFF7DF
:102C2000E9FC2046FFF753F900F092FC00287FF4FE
:102C300078AF4FF0805016490860BFF34F8FBFF355
:102C40006F8F6EE72046FFF742F900F081FC68E7DE
:102C50002046FFF73CF900F07BFC2046FEF7E2FE41
:102C60000028EED000209EE72E2E5C46726565524D
:102C7000544F535C7372635C71756575652E6300A8
:102C80004572726F723A25732C2025640D0A00007C
:102C900004ED00E070B505460E462C462CB940F216
:102CA0002D121EA123A0FEF75BF9FFF76DFAD4E900
:102CB0000F12206801FB020060600020A063206802
:102CC000A060E06B401E226C216800FB0210E060F7
:102CD000FF2084F8440084F845009EB9206908B9B3
:102CE000012000E00020A8B904F1100000F0D2FBA0
:102CF00080B14FF0805013490860BFF34F8FBFF38E
:102D00006F8F07E004F11000FFF708FA04F12400C8
:102D1000FFF704FAFFF77AFA012070BD2E2E5C4609
:102D200072656552544F535C7372635C717565755F
:102D3000652E63004572726F723A25732C202564EC
:102D40000D0A000004ED00E02DE9FF4383B00646C4
:102D500088461D464FF0000934462CB94FF447729F
:102D600060A166A0FEF7FCF8B8F1000F01D1206C5D
:102D700008B9012000E0002028B940F21E3259A114
:102D80005EA0FEF7EDF8022D02D1E06B012801D123
:102D9000012000E0002028B940F2213251A157A0C3
:102DA000FEF7DEF800F040FA08B9059808B90120EE
:102DB00000E0002028B940F226324AA14FA0FEF7D9
:102DC000CFF800BFFFF7E0F9A06BE16B884201D3B9
:102DD000022D38D12A4641462046FEF708FC074618
:102DE000A06C68B129462046FEF738FE28B34FF0A4
:102DF000805046490860BFF34F8FBFF36F8F1CE0D0
:102E0000606A08B9012000E0002068B904F12400DC
:102E100000F040FB88B14FF080503C490860BFF3A0
:102E20004F8FBFF36F8F08E03FB14FF080503749AD
:102E30000860BFF34F8FBFF36F8FFFF7E7F90120F3
:102E400007B0BDE8F083059818B9FFF7DFF9002057
:102E5000F6E7B9F1000F04D101A8FFF77FFC4FF0AE
:102E60000109FFF7D3F9FFF72BFDFFF78DF994F96F
:102E70004400401C10B9002084F8440094F9450037
:102E8000401C10B9002084F84500FFF7BFF905A9E0
:102E900001A800F047F9F0B92046FEF7D0FDA0B137
:102EA00004F110000599FFF7A5FB2046FFF70FF886
:102EB00000F04EFB002885D14FF080501349086088
:102EC000BFF34F8FBFF36F8F7CE72046FEF7FFFF06
:102ED00000F03EFB76E72046FEF7F9FF00F038FBF6
:102EE0000020ADE72E2E5C4672656552544F535C50
:102EF0007372635C71756575652E63004572726FE0
:102F0000723A25732C2025640D0A000004ED00E0C0
:102F10002DE9F05F80468A4615461E4644462CB988
:102F200040F2034235A13BA0FEF71AF8BAF1000FB8
:102F300001D1206C08B9012000E0002028B940F23E
:102F400004422EA133A0FEF70BF8022E02D1E06B53
:102F5000012801D1012000E0002028B940F20542FB
:102F600026A12CA0FDF7FCFFFFF7B4FA00BF50210B
:102F7000EFF3118081F31188BFF34F8FBFF36F8F91
:102F800000BF0746A06BE16B884201D3022E2BD114
:102F900094F945B0324651462046FEF728FB0BF126
:102FA0000100C8B9A06C40B131462046FEF756FD7D
:102FB000B8B1B5B10120286013E0606A08B90120FA
:102FC00000E0002068B904F1240000F063FA40B189
:102FD0003DB10120286004E00BF1010040B284F80B
:102FE00045004FF0010901E04FF0000900BF87F3F1
:102FF000118800BF4846BDE8F09F00002E2E5C46B9
:1030000072656552544F535C7372635C717565757C
:10301000652E63004572726F723A25732C20256409
:103020000D0A00002DE9F04707460D463C462CB935
:1030300040F2B44231A137A0FDF792FF206C08B9ED
:10304000012000E0002028B94FF497622BA131A0A5
:10305000FDF786FF206808B9606808B9012000E024
:10306000002028B940F2BD4224A12AA0FDF778FF34
:10307000FFF730FA00BF5021EFF3118081F3118880
:10308000BFF34F8FBFF36F8F00BF0646D4F8389061
:10309000E06B484529D994F945A009F10100A063E6
:1030A0000AF10100C8B9A06C40B100212046FEF72A
:1030B000D5FCB8B1B5B10120286013E0606A08B949
:1030C000012000E0002068B904F1240000F0E2F9DA
:1030D00040B13DB10120286004E00AF1010040B296
:1030E00084F845004FF0010801E04FF0000800BFF0
:1030F00086F3118800BF4046BDE8F0872E2E5C465F
:1031000072656552544F535C7372635C717565757B
:10311000652E63004572726F723A25732C20256408
:103120000D0A00002DE9F04104460D462CB940F689
:103130006E4219A11EA0FDF713FF2DB940F66F4294
:1031400015A11BA0FDF70CFFFFF71EF81C48076830
:103150002868401C08B9002619E01A492068096847
:10316000884204D06068B84201D801260FE0606848
:10317000381A2968884209D228686168791A401A81
:1031800028602046FFF7EAFA002600E00126FFF754
:103190003DF83046BDE8F0812E2E5C4672656552E2
:1031A000544F535C7372635C7461736B732E630072
:1031B0004572726F723A25732C2025640D0A000047
:1031C0007C000020900000202DE9FF4F85B0804654
:1031D00089461746DDE912ABB800FEF7C1FE064688
:1031E00056B15420FEF7BCFE04460CB1266304E041
:1031F0003046FFF741F800E000247CB10020CDE923
:1032000000ABCDE902403A4649464046089BFEF7EE
:1032100011FB2046FEF718F9012501E04FF0FF35BC
:10322000284609B0BDE8F08F0549096809B90120B1
:1032300005E00449096809B9022000E00020704750
:1032400084000020A00000200149086870470000A9
:103250007C0000202DE9F0414FF000084148006853
:10326000002872D140480068451C3F480560EDB910
:103270003E480068006808B9012000E0002028B935
:1032800040F66A223AA140A0FDF76AFE3748076877
:1032900041480068354908603F4807603F4800687A
:1032A000401C3E490860FEF73FFD00BF3C480068F7
:1032B00085423CD300BF2D480068006808B9012052
:1032C00000E0002020B14FF0FF30354908602DE0CC
:1032D00026480068C068C4686668B54202D23048B3
:1032E000066023E0201DFEF705FFA06A18B104F177
:1032F0001800FEF7FFFE94F82C10012088402949A1
:103300000968084327490860E16A01EB8101264A00
:1033100002EB8100211DFEF72BFF2449E06A0968BA
:10332000C96A8842C7D34FF00108C4E700BF1F48ED
:103330000068C06A00EB80001B4951F8200001289A
:1033400001D94FF0010805E0FFE719480068401C6B
:10335000174908601748006808B14FF00108404657
:10336000BDE8F081A00000207C0000206C0000205F
:103370002E2E5C4672656552544F535C7372635CCB
:103380007461736B732E63004572726F723A2573AA
:103390002C2025640D0A0000700000209000002001
:1033A00098000020800000204405002068000020D4
:1033B000880000208C00002070B505462C460026B1
:1033C000002D4BD026480068844201D1012000E046
:1033D000002028B94FF4776222A128A0FDF7C0FD94
:1033E000A06C28B940F672721EA124A0FDF7B8FDAA
:1033F000A06C401EA064616CE06A88422ED0A06C74
:1034000060BB201DFEF776FE78B9E06A00EB800015
:103410001E4951F8200040B994F82C100120884032
:103420001B49096881431A480160606CE062E06AE8
:10343000C0F12000A06194F82C10012088401449AC
:103440000968084312490860E16A01EB81010F4AEB
:1034500002EB8100211DFEF78BFE0126304670BD78
:10346000680000202E2E5C4672656552544F535CF6
:103470007372635C7461736B732E63004572726F59
:10348000723A25732C2025640D0A000044050020A3
:103490008000002070B50646F068C4682CB940F67C
:1034A00004421BA120A0FDF75BFD04F11800FEF70C
:1034B00021FE21480068A8B9201DFEF71BFE94F8E4
:1034C0002C10012088401D49096808431B490860E9
:1034D000E16A01EB81011A4A02EB8100211DFEF72E
:1034E00047FE04E004F118011648FEF741FE1649B4
:1034F000E06A0968C96A884204D901250120134994
:10350000086000E00025FEF70FFC284670BD0000B3
:103510002E2E5C4672656552544F535C7372635C29
:103520007461736B732E63004572726F723A257308
:103530002C2025640D0A0000A0000020800000203F
:1035400044050020EC070020680000208C000020CB
:1035500070B5002400263448006828B940F661029E
:1035600032A138A0FDF7FCFCFEF70EFE2E480068E5
:10357000401E2D4908600846006800284FD1354894
:10358000006800284BD024E03348C068C46804F1C8
:103590001800FEF7AFFD201DFEF7ACFD94F82C10CF
:1035A000012088402D49096808432C490860E16AD8
:1035B00001EB81012A4A02EB8100211DFEF7D8FDB3
:1035C0002849E06A0968C96A884202D3012026496D
:1035D00008602148006808B9012000E000200028A8
:1035E000D2D00CB1FEF7A0FB2048056865B100BF42
:1035F000FFF730FE10B101201B4908606D1E002D41
:10360000F6D10020194908601748006838B1012632
:10361000300717490860BFF34F8FBFF36F8FFEF776
:10362000F5FD304670BD0000A00000202E2E5C4647
:1036300072656552544F535C7372635C7461736B53
:10364000732E63004572726F723A25732C202564C5
:103650000D0A000078000020EC0700208000002008
:1036600044050020680000208C0000208800002015
:1036700004ED00E01CB50024FDF740FF0B48006896
:1036800058B10B481F2100234FF48072CDE9001080
:1036900008A10A48FFF798FD04462CB94FF49E7222
:1036A00007A10EA0FDF75CFC20461CBDAC0000206D
:1036B000B0000020546D722053766300B51E0008E0
:1036C0002E2E5C4672656552544F535C7372635C78
:1036D00074696D6572732E63000000004572726F2D
:1036E000723A25732C2025640D0A00002DE9FF474E
:1036F00004460D4616461F46DDF830804FF000099F
:103700002CB940F2BB1217A11DA0FDF729FC2048DF
:10371000006810B3009501960294062D15DAFFF7A4
:1037200083FD022808D100234246694618480068F4
:10373000FFF70AFB814610E000231A466946144849
:103740000068FFF701FB814607E000233A4669461F
:103750000F480068FFF7DCFB8146484604B0BDE82F
:10376000F08700002E2E5C4672656552544F535C04
:103770007372635C74696D6572732E630000000080
:103780004572726F723A25732C2025640D0A000071
:10379000AC000020B437000800000020EC0000005E
:1037A000800F0008A0380008EC000020644B0000E7
:1037B000900F000800A24A04000000000000000072
:1037C00001020304060708090000000001020304C7
:1037D00001020304060708090204060800000000AD
:1037E00000000000000000000000000001000000D8
:1037F0000200000000080140010002020000000079
:103800000000000000000000001001400020020243
:1038100000000000000000000000000000000000A8
:103820000000000000000000000000000000000098
:103830000000000000000000000000000000000088
:103840000000000000000000000000000000000078
:103850000000000000000000000000000000000068
:10386000000000000000000000000000AAAAAAAAB0
:103870000000000000000000000000000000000048
:103880000000000000000000000000000000000038
:103890000000000000000000000000000000000028
:04000005080000ED02
:00000001FF
