:020000040800F2
:10000000803200209D010008851500080B0F0008B4
:1000100081150008E90200089B200008000000008C
:1000200000000000000000000000000005010008C2
:10003000450700080000000049010008AD1D000848
:10004000B7010008B7010008B7010008B7010008B0
:10005000B7010008B70100081D0C0008B70100082F
:10006000B7010008B7010008B7010008B701000890
:10007000B7010008B7010008B7010008B701000880
:10008000B7010008B7010008B7010008B701000870
:10009000B7010008B7010008B7010008B701000860
:1000A000B7010008B7010008B7010008B701000850
:1000B000B7010008B7010008B7010008B701000840
:1000C000B7010008B7010008B7010008B701000830
:1000D000B70100081D1E0008B7010008B70100089D
:1000E000610C0008B7010008B7010008DFF810D064
:1000F00000F0A0F8004800473D230008AFF300805F
:1001000080320020224B19680868B0E8F00F80F3B5
:100110000988BFF36F8F4FF0000080F311884EF015
:100120000D0E70470000000006480068006880F36C
:10013000088862B661B6BFF34F8FBFF36F8F00DFE1
:1001400000BF00BF08ED00E0EFF30980BFF36F8F41
:100150000F4B1A6820E9F00F106008B54FF05000FF
:1001600080F31188BFF34F8FBFF36F8F03F0EEFB67
:100170004FF0000080F31188BDE808401968086856
:10018000B0E8F00F80F30988BFF36F8F704700BFAE
:1001900098000020EFF30580704700000648804774
:1001A00006480047FEE7FEE7FEE7FEE7FEE7FEE75C
:1001B000FEE7FEE7FEE7FEE7BD1D0008ED000008D4
:1001C00040EA01039B0703D009E008C9121F08C0D9
:1001D000042AFAD203E011F8013B00F8013B521E59
:1001E000F9D27047D2B201E000F8012B491EFBD2D0
:1001F00070470022F6E710B513460A460446194632
:10020000FFF7F0FF204610BD30B50B460146002039
:100210002022012409E021FA02F59D4205D303FAC8
:1002200002F5491B04FA02F52844151EA2F1010249
:10023000F1DC30BD064C074D06E0E06840F00103FC
:1002400094E8070098471034AC42F6D3FFF752FF0A
:10025000BC700008DC70000808B500F0F1F801F08F
:10026000B7FA01F0D3F9134840237122002100901E
:10027000072001F013FAC82000F026FA0E484023A8
:10028000712200210090072001F008FA4FF49670C7
:1002900000F01AFA0948402371220021009007203B
:1002A00001F0FCF94FF4FA7000F00EFA0120044955
:1002B000087008BD346D0008AC6900089C62000835
:1002C0009000002010B54FF4407001F095F900F057
:1002D00025FA01F03FF801F0D9F800F039FF00F0FD
:1002E0001DF800F095F810BD00BFFEE708B500202E
:1002F00000900121084601F06BFC25208DF80000DC
:1003000001208DF8010000208DF8020001208DF8F9
:100310000300684601F038F908BD000010B5FFF78A
:10032000E5FF00F009F800F035F80121014801F07F
:10033000D6FD10BD003801401FB50020009001908F
:10034000029003900121880301F042FC4FF4E13058
:1003500000900020ADF80C000C20ADF80A00002041
:10036000ADF80800ADF80600ADF80400694608488D
:1003700001F01EFE012240F22551054801F0F2FD78
:10038000012240F22441024801F0ECFD1FBD0000B3
:100390000038014008B5002000900121042001F040
:1003A00017FC18208DF803004FF40070ADF8000022
:1003B00003208DF8020069460A4800F007FD01217C
:1003C000042001F005FC48208DF803004FF4806004
:1003D000ADF8000003208DF802006946014800F0E6
:1003E000F5FC08BD0008014038B504460020009027
:1003F0004FF48050ADF800008DF8034003208DF8D5
:1004000002006946014800F0E1FC38BD000C0140E3
:1004100008B5002000900121082001F0D9FB4FF41D
:100420008050ADF8000028208DF8030003208DF8DF
:1004300002006946014800F0C9FC08BD000C0140FB
:1004400010B500220521012003F040FB0649086099
:100450000846006818B905A001F022FE02E00AA0D3
:1004600001F01EFE10BD000094000020646874318D
:1004700031207175657565206372656174652065ED
:1004800072726F72210D0A006468743131207175C7
:100490006575652063726561746520737563636556
:1004A0007373210D0A00000070B5002600253BE0A3
:1004B000002403E0641C012000F012F94FF4805185
:1004C0001B4800F00EFD08B9362CF3D3362C01D3AF
:1004D000FF2070BD282000F003F94FF4805114482C
:1004E00000F0FFFC012805D1C5F107018840C0B22A
:1004F000064304E0C5F1070101208840864300243B
:1005000003E0641C012000F0EBF84FF48051084830
:1005100000F0E7FC012801D1232CF2D3232C01D3D6
:10052000FF20D6E7681CC5B2082DC1DB3046D0E7F6
:10053000000C014070B5044600251420FFF754FF5D
:100540004FF48051384800F0D5FC142000F0BCF87E
:100550004FF48051344800F0CFFC4820FFF744FFAF
:10056000142000F0BDF84FF480512F4800F0B9FC82
:10057000002856D100BF09E02846691CCDB2532897
:1005800001DD002070BD012000F0AAF84FF4805179
:10059000254800F0A6FC0028EED0002509E02846FA
:1005A000691CCDB2572801DD0020EBE7012000F0E7
:1005B00097F84FF480511C4800F093FC0128EED0CE
:1005C000FFF772FF2070FFF76FFF6070FFF76CFF9F
:1005D000A070FFF769FFE070FFF766FF207136201B
:1005E00000F07EF82078FF280BD06078FF2808D034
:1005F000A078FF2805D0E078FF2802D02079FF28D6
:1006000001D10020BEE7207861780844A178084431
:10061000E17808442179884201D10120B2E7002025
:10062000B0E70020AEE70000000C01401CB5002040
:10063000009001900EA001F033FD18E06846FFF72E
:1006400079FF01280CD10223002269460D48006879
:1006500003F0B8FB012806D00BA001F021FD02E059
:1006600012A001F01DFD4FF4FA7002F0BFFFE5E7A4
:100670006468743131207461736B207374617274B7
:10068000210D0A00940000204448543131E695B011
:10069000E68DAEE9989FE58897E58F91E98081E93D
:1006A0009499E8AFAF210D0A00000000444854318E
:1006B00031E695B0E68DAEE8AFBBE58F96E994994B
:1006C000E8AFAF210D0A000030B50446002504E074
:1006D0004FF47A7000F004F86D1CA542F8D330BDD9
:1006E00010B5014608480068084CB0FBF4F000FB68
:1006F00001F200F00DF8034600BF00F009F8C01A3F
:100700009042FAD310BD00000000002040420F00CC
:100710000148406870470000001000E0074800688A
:1007200040F080700549086000200549486008468F
:10073000006840F00100086070470000FCED00E038
:10074000001000E070470000ADF5926D0024002617
:10075000002500BF00BF00BF0020CDF88804CDF801
:100760008C044FF40071A2A8FFF743FD4FF4007111
:1007700022A8FFF73EFD9DF88B349DF88A24F8A14E
:10078000A2A801F09DFC9DF889349DF88824F6A16B
:1007900022A801F095FC0027802102A8FFF729FD7F
:1007A000DCE1F4480078012823D104F00F0098B967
:1007B00000F02CFF04B919E0302C09D1012E03D12F
:1007C00004F0F000841C11E004F0F000441C0DE083
:1007D00004F0F000441C09E000F018FFC820FFF707
:1007E00073FF0120E449087004F0F0040020E1499F
:1007F0000870E2480078012803D0E1480078012819
:1008000041D104F00F00D8B9DC48007828B10CB908
:10081000402402E0A4F11000C4B2D948007830B1FD
:10082000402C01D1002402E004F11000C4B20020E9
:10083000D3490870D14908700120CF49087022E0DF
:10084000CE48007850B1312C01D1322402E0322C54
:1008500000D13124412C01D16D1C0127C8480078FA
:1008600060B1312C01D1322402E0322C00D131248C
:10087000412C01D0422C01D1002500270020C04985
:100880000870BE49087004F00F0000286CD1BA4807
:100890000078012868D100F0B9FE202C25D003DCB7
:1008A0003CB1102C5AD10DE0302C31D0402C55D118
:1008B00041E0B44832231A4601210090262000F07E
:1008C000EDFE4CE0B04832231A460121009026206C
:1008D00000F0E4FE0B220021022001F06DF80C2252
:1008E0000721022001F068F839E0A84832231A46AF
:1008F00001210090272000F0D1FE0B2200210220D0
:1009000001F05AF80C220721022001F055F826E0E8
:100910009F4832231A4601210090262000F0BEFE97
:100920000B220021022001F047F80C2207210220AF
:1009300001F042F813E0974832231A460121009053
:10094000262000F0ABFE0B220021022001F034F83B
:100950000C220721022001F02FF800BF00BF00BFCA
:10096000002085490870F9E004F0F00020281DD02F
:1009700003DC38B1102871D10DE030286FD0402849
:10098000F9D1ABE07F4832231A460121009026209E
:1009900000F084FEE1E0112C07D17F484023802243
:1009A00000210090084600F079FED6E0212C01D00D
:1009B000222C70D1212C20D100F028FE062201210A
:1009C000084600F0F9FF08220221012000F0F4FFA0
:1009D0000D220321012000F0EFFF07220121032057
:1009E00000F0EAFF08220221032000F0E5FF0D22BB
:1009F0000321084600F0E0FF222400230A220DF51F
:100A000091616648006803F09DF8012831D164A027
:100A100001F046FB9DF88B0400F0800040B19DF88A
:100A20008B349DF88A2467A1A2A801F049FB07E056
:100A30009DF88B349DF88A2449A1A2A801F040FBBF
:100A40009DF8890400F0800050B19DF889349DF82C
:100A500088245EA122A801F033FB0DE07CE01BE0BE
:100A60009DF889349DF888243FA122A801F028FB35
:100A700002E059A001F014FB0E220721012000F032
:100A80009BFFA2AA0821012000F0C4FF22AA08218E
:100A9000032000F0BFFF60E0312C0ED15A48142330
:100AA000342216210090252000F0F8FD00260022B7
:100AB0002021564800F046FD0FE0322C0DD154485D
:100AC0001423342216210090252000F0E7FD012692
:100AD000002220214D4800F044FD3EE0412C26D16B
:100AE000012F24D12A4638A102A801F0E9FA494889
:100AF000322355220E210090142000F0CFFDC82093
:100B000002F074FD00F082FD4021002000F0E4FEC0
:100B100002AA0721002000F07DFF3F483223432234
:100B20000E2100901D2000F0B9FD002713E0412C9C
:100B300011D12A4624A102A801F0C2FA02AA072173
:100B4000002000F067FF3448322343220E2100903A
:100B50001D2000F0A3FD00E000BF00BF21E6000063
:100B600025642E256400000025642E25642025259B
:100B700052480000930000209000002091000020C7
:100B80009200002066560008C45700082259000849
:100B9000805A0008165D0008665200089400002084
:100BA0004448543131E695B0E68DAEE9989FE5882A
:100BB00097E68EA5E694B6E68890E58A9F210D0A11
:100BC000000000002D25642E256400002D25642ED4
:100BD00025642025255248004448543131E695B01B
:100BE000E68DAEE9989FE58897E68EA5E694B6E592
:100BF000A4B1E8B4A5EFBC8CE4BDBFE794A8E69728
:100C0000A7E580BC210D0A007A5C0008000C0140B9
:100C1000DE5B000849600008745E000810B500BF84
:100C20005021EFF3118081F31188BFF34F8FBFF391
:100C30006F8F00BF0446012000F04AF8012805D15B
:100C4000054908700549087000F03CF800BF84F3BE
:100C5000118800BF10BD000091000020900000200E
:100C600010B500BF5021EFF3118081F31188BFF35D
:100C70004F8FBFF36F8F00BF04464FF4005000F05A
:100C800027F8012806D10C4908700C490870400368
:100C900000F018F84FF4004000F01AF8012806D1CF
:100CA0000749087005490870C00300F00BF800BF41
:100CB00084F3118800BF10BD920000209000002036
:100CC00093000020014908607047000014040140AF
:100CD000014600200022074B1B6803EA0102054B76
:100CE00014331B680B4013B10AB1012000E000204F
:100CF0007047000000040140002123498279002A46
:100D00003AD00A46126803689A430B461A600A1DD5
:100D1000126803689A430B1D1A60027911440A682D
:100D200003681A430A60184A0832126803689A4333
:100D3000154B08331A601A1D126803689A43124B48
:100D40000C331A604279102A0ED11A1F12680368F8
:100D50001A430D4B08331A601A1D126803681A43B0
:100D6000094B0C331A600DE00749427911440A68B7
:100D700003681A430A6005E0027911440A680368AF
:100D80009A430A60704700000004014030B5002219
:100D90008B071C0F0F2303FA04F20B4B8C1053F834
:100DA00024309343084C8D1044F8253023468C1092
:100DB00053F824308C07240F00FA04F42343024C28
:100DC0008D1044F8253030BD080001402DE9F04178
:100DD000024600250026002000230024002791F869
:100DE00003C00CF00F0591F803C00CF0100CBCF11F
:100DF000000F03D091F802C04CEA050591F800C03D
:100E0000BCF1000F31D0146800202BE04FF0010C32
:100E10000CFA00F3B1F800C00CEA03069E4220D1A0
:100E200083004FF00F0C0CFA03F7BC4305FA03FCE8
:100E30004CEA040491F803C0BCF1280F06D14FF02E
:100E4000010C0CFA00FCC2F814C00AE091F803C0CF
:100E5000BCF1480F05D14FF0010C0CFA00FCC2F8B0
:100E600010C0401C0828D1D31460B1F800C0BCF1F8
:100E7000FF0F34DD546800202EE000F1080C4FF025
:100E8000010808FA0CF3B1F800C00CEA03069E4210
:100E900021D183004FF00F0C0CFA03F7BC4305FA85
:100EA00003FC4CEA040491F803C0BCF1280F05D1FF
:100EB00000F1080C08FA0CF8C2F8148091F803C08D
:100EC000BCF1480F07D100F1080C4FF0010808FAF7
:100ED0000CF8C2F81080401C0828CED35460BDE83E
:100EE000F0810246002093680B400BB1012000E026
:100EF00000207047416170470161704710B504469A
:100F0000A1882068FFF7EDFF10BD00BFFEE770B5B8
:100F100002460024002500230020958A138B1B0421
:100F200045EA030626F07F4404EA01068E4201D119
:100F3000012000E0002070BD21B1028842F00102D2
:100F4000028004E002884FF6FE731A400280704768
:100F500021B1028842F48072028004E002884FF6D8
:100F6000FF631A400280704721B1028842F4007288
:100F7000028004E002884FF6FF531A400280704757
:100F80000CB50246002000230193009300920B0F42
:100F9000019321F07F41019B1BB1009B143300930F
:100FA00003E0090C009B18330093009B1B680B4067
:100FB0000BB1012000E000200CBD00002DE9F04342
:100FC00085B004460D460026B1460427DFF8CC80E4
:100FD000A6884FF6C0700640684600F009FEDDF8AE
:100FE00008802F48B8FBF0F01FFA80F946EA09069E
:100FF000A68020884FF6FE710840208000262949EF
:10100000286888420CD828684000B8FBF0F087B206
:10101000042F00DA04273E4309F10100208427E071
:10102000E8884BF6FF71884206D1286800EB400043
:10103000B8FBF0F087B209E0286800EBC00101EBD3
:101040000010B8FBF0F087B247F48047C7F30B00FD
:1010500008B947F0010747F4004006434FF4967083
:1010600009FB00F04FF47A7190FBF1F0401C2084F2
:10107000A683208840F00100208026884FF6F530B6
:101080000640A8886989084306432680A8892989DB
:101090000843208105B0BDE8F083000000127A000B
:1010A00040420F00A086010012B141F0010102E0B0
:1010B0004FF6FE73194001827047018270470000AD
:1010C0002DE9F04105460C460A260F4F04B900E011
:1010D0000E4F44EA4500C1B200220D48FFF7E4FF7D
:1010E00009E0761E012000F02CF826B900F0DCF8AB
:1010F0000020BDE8F08139460548FFF708FF0028C9
:10110000EFD00120F5E70000820007000200030095
:101110000054004070B50546002400F099F80446DC
:10112000012C01D0204670BD00212846FFF7C8FFE2
:101130000446012C01D02046F5E700F0B5F8012067
:10114000F1E710B504462046FFF7CAFA10BD0000CB
:1011500010B500F02FF800F007F801210148FFF763
:10116000EBFE10BD005400401FB500200090019020
:10117000029003900121480500F01AFD0020ADF80F
:1011800004004BF6FF70ADF806000A20ADF8080029
:101190004FF48060ADF80A000001ADF80C00034880
:1011A000009069460248FFF709FF1FBD801A06003C
:1011B0000054004008B5002000900121082000F0F4
:1011C00007FD40211248FFF797FE1C208DF8030011
:1011D0004020ADF8000003208DF8020069460C485D
:1011E000FFF7F4FD0121082000F0F2FC80210848FF
:1011F000FFF782FE1C208DF803008020ADF8000070
:1012000003208DF8020069460148FFF7DFFD08BDA5
:10121000000C014070B504460A2521460A48FFF734
:101220004CFF08E06D1E0120FFF78BFF1DB900F099
:101230003BF8002070BD05490348FFF768FE002811
:10124000F0D00120F6E700000054004084000700C1
:1012500010B50A2406E0641E0120FFF772FF0CB9E6
:10126000002010BD4FF400310D48FFF789FE002823
:10127000F1D101210A48FFF76BFE0A2408E0641E41
:101280000120FFF75EFF1CB900F00EF80020E8E730
:1012900004490348FFF73BFE0028F0D00120E0E7B7
:1012A000005400400100030010B501210148FFF780
:1012B0005BFE10BD0054004008B5002000900121E5
:1012C000042000F085FC01211F48FFF715FE0120D6
:1012D000ADF8000004208DF8030003208DF8020013
:1012E00069461948FFF772FD0121102000F070FCDB
:1012F0004FF400511548FFF7FFFD4FF40050ADF8D3
:10130000000004208DF8030003208DF802006946D8
:101310000E48FFF75BFD0121082000F059FC4FF457
:1013200000410B48FFF7E8FD4FF40040ADF8000026
:1013300028208DF8030003208DF802006946044838
:10134000FFF744FD08BD0000000801400010014007
:10135000000C014010B5FFF7AFFF00F013F800F0EC
:1013600052F8054800F084F8044800F081F8044879
:1013700000F07EF810BD000030000020500000207A
:10138000700000201CB5002000900190012108464B
:1013900000F01EFC00210846FFF7F8FC0120009039
:1013A00000208DF804000C208DF8050001208DF838
:1013B00006006846FFF7A0FC0D210220FFF7E6FCBF
:1013C0004FF40050009000208DF804000C208DF8A0
:1013D000050001208DF806006846FFF78DFC0F21FF
:1013E0000120FFF7D3FC4FF40040009000208DF85F
:1013F00004000C208DF8050001208DF806006846D9
:10140000FFF77AFC1CBD08B50020009001210846BA
:1014100000F0DEFB06208DF8000007208DF80100AB
:1014200000208DF8020001208DF80300684600F0CE
:10143000ABF828208DF8000007208DF8010000206F
:101440008DF8020001208DF80300684600F09CF83A
:1014500028208DF8000007208DF8010000208DF86D
:10146000020001208DF80300684600F08DF808BDE9
:1014700010B50446A079022807D12046FFF73EFDAB
:1014800008B9012000E00020A07110BD08B50020BF
:1014900000900121042000F09BFB02212748FFF768
:1014A0002BFD0220ADF8000010208DF80300032072
:1014B0008DF8020069462148FFF788FC01210420CD
:1014C00000F086FB04211D48FFF716FD0420ADF84F
:1014D000000010208DF8030003208DF802006946FB
:1014E0001648FFF773FC0121042000F071FB08216E
:1014F0001248FFF701FD0820ADF8000010208DF81C
:10150000030003208DF8020069460C48FFF75EFCDB
:101510000121082000F05CFB20210948FFF7ECFCCA
:101520002020ADF8000010208DF8030003208DF876
:10153000020069460248FFF749FC08BD0008014067
:10154000000C014070B505460E46144624B93146DC
:101550002846FFF7D1FC03E031462846FFF7CAFCD6
:1015600070BD70B505460E46144624B9314628466E
:10157000FFF7C0FC03E031462846FFF7BDFC70BD15
:1015800000BFFEE77047000070B5002100230F2266
:10159000C47804B3154C246804F4E064C4F5E06432
:1015A000210AC1F10403CA40447804FA03F18478A3
:1015B0001440214309010E4C0678A155047804F02B
:1015C0001F050124AC4005786D11AD0005F1E02543
:1015D000C5F8004109E0047804F01F050124AC407F
:1015E000044D0678761145F8264070BD0CED00E0FC
:1015F00000E400E080E100E002490143024A11609A
:10160000704700000000FA050CED00E010B5002066
:1016100000F0C0F810BD00002DE9F04180466427BD
:1016200000240026002509E03C20FFF773FD012877
:1016300002D1601CC4B201E0701CC6B2381EA7F112
:101640000101CFB2F0D14120FFF764FD012801D0A4
:10165000681CC5B25A2C07DD012D05D105A000F08C
:101660001FFD0120BDE8F08107A000F019FD00205A
:10167000F8E70000E9809AE4BFA1E6B58BE8AF95F2
:10168000E6ADA3E5B8B80000E9809AE4BFA1E6B5ED
:101690008BE8AF95E5A4B1E8B4A500002DE9FE4FB5
:1016A00081460D4617461C46002002900190681C9A
:1016B000C11700EB5171C910A0EBC10141B13DB19F
:1016C0002846E91705EB5171C910491CC9060D0ED2
:1016D0002846E91705EB5171C1F3C7084E46B8F12A
:1016E000070F05DC7F2E03DC402C01DC802F01DDA1
:1016F000BDE8FE8FE11704EB5171C910A4EBC101E5
:1017000039B12046E11704EB5171C910491CCCB224
:1017100005E02046E11704EB5171C1F3C70408EB63
:101720000400082802DDC8F10800C4B2F0198028BE
:1017300002DDC6F18000C7B207FB04F001900198FA
:10174000B0F5806F02D34FF480600190F01900F083
:10175000FF0AC34600BF3146584600F0BDF8009668
:1017600010E00298421C02920C9A115C402000F09A
:10177000C5F9DDE90110884200D1B9E70098401CA5
:10178000C0B2009000985045EBDB0BF1010000F077
:10179000FF0BE0E730B5A1B00546802101A8FEF7B8
:1017A00028FD2A46802101A8FEF71CFD00240AE03E
:1017B0000021204600F090F8802201A9402000F08E
:1017C0003DF9601CC4B2082CF2DB21B030BD000032
:1017D00010B54048FFF7B5FC00BF3C20FFF71CFFE9
:1017E0000028FAD0AE21002000F088F92021002046
:1017F00000F084F90221002000F080F9B0210020DF
:1018000000F07CF9A121002000F078F9C821002027
:1018100000F074F90021084600F070F91021002052
:1018200000F06CF94021002000F068F981210020CF
:1018300000F064F9FF21002000F060F9A1210020F0
:1018400000F05CF9A621002000F058F9A821002042
:1018500000F054F93F21002000F050F9A4210020AD
:1018600000F04CF9D321002000F048F9002108468F
:1018700000F044F9D521002000F040F9F0210020CB
:1018800000F03CF9D921002000F038F92221002095
:1018900000F034F9DA21002000F030F912210020A4
:1018A00000F02CF9DB21002000F028F92021002095
:1018B00000F024F98D21002000F020F914210020EF
:1018C00000F01CF9AF21002000F018F9FFF79EFE90
:1018D00010BD000040420F0038B505460C4605F12A
:1018E000B000C0B28DF80000102040EA14108DF84E
:1018F000010004F00F008DF8020003226946002069
:1019000000F09CF838BD00002DE9F04105468846FE
:1019100016461F46A6F1200441462846FFF7DCFF85
:10192000062F02D0082F20D109E004EB4400114A11
:1019300002EB40010622402000F080F816E00E483D
:1019400000EB04110822402000F078F8691CC8B2AE
:101950004146FFF7C1FF084800EB041000F1080101
:101960000822402000F06AF800E000BF00BFBDE898
:10197000F0810000F0480008184B00082DE9F04104
:101980000546884616461C46770141462846FFF71D
:10199000A3FFE1191022402000F050F8691CC8B2E2
:1019A0004146FFF799FFE01900F110011022402095
:1019B00000F044F8BDE8F0812DE9F04104460D4601
:1019C00017462601F21706EB5272C2F3C7002A0728
:1019D000110E034B3A46FFF7D1FFBDE8F08100003E
:1019E000104700082DE9F04180460D4614461E467A
:1019F00000270AE014F8012B07FB0650C1B233465A
:101A00004046FFF781FF781CC7B220780028F1D14B
:101A1000BDE8F0812DE9F04104460D461746E60089
:101A2000F21706EB5272D2105206100EEA06110E91
:101A300008233A46FFF7D6FFBDE8F0812DE9F041D3
:101A400080460D4616460024FFF702FC0446012C92
:101A500002D02046BDE8F08100213C20FFF730FB9A
:101A60000446012C06D014A000F01AFBFFF71CFC62
:101A70002046EFE74046FFF7CDFB0446012C06D099
:101A800011A000F00DFBFFF70FFC2046E2E7002756
:101A90000CE015F8010BFFF7BDFB0446012C04D048
:101AA0000FA000F0FDFA0020D4E77F1CB742F0D36E
:101AB000FFF7FAFB0120CDE7E59CB0E59D80E5A4AA
:101AC000B1E8B4A500000000E58699E68C87E4BB88
:101AD000A42FE695B0E68DAEE5A4B1E8B4A500006C
:101AE000E585B7E4BD93E68C87E4BBA42FE695B00B
:101AF000E68DAEE5A4B1E8B4A500000070B50646D9
:101B00000D460024FFF7A4FB0446012C01D020461B
:101B100070BD00213C20FFF7D3FA0446012C06D00B
:101B200012A000F0BDFAFFF7BFFB2046F0E73046F9
:101B3000FFF770FB0446012C06D010A000F0B0FAAD
:101B4000FFF7B2FB2046E3E72846FFF763FB0446B6
:101B5000012C06D00FA000F0A3FAFFF7A5FB20464A
:101B6000D6E7FFF7A1FB0120D2E70000E59CB0E536
:101B70009D80E5A4B1E8B4A500000000E58699E6E3
:101B80008C87E4BBA42FE695B0E68DAEE5A4B1E862
:101B9000B4A50000E585B7E4BD93E68C87E4BBA45B
:101BA0002FE695B0E68DAEE5A4B1E8B4A50000003F
:101BB00029B1064AD2690243044BDA6104E0034AC0
:101BC000D2698243014BDA61704700000010024085
:101BD00029B1064A92690243044B9A6104E0034A20
:101BE00092698243014B9A617047000000100240E5
:101BF00030B500210022002400232D4D6D6805F032
:101C00000C0121B1042905D0082923D105E0294D73
:101C1000056022E0274D05601FE0254D6D6805F445
:101C20007012234D6D6805F48034022505EB924255
:101C30001CB9214D554305600BE01D4D6D6805F441
:101C400000351DB11C4D5543056002E0194D55434B
:101C5000056002E0174D056000BF00BF144D6D68C0
:101C600005F0F0010909154D6B5C0568DD40456024
:101C70000F4D6D6805F4E061090A104D6B5C456815
:101C8000DD4085600A4D6D6805F46051C90A0B4D51
:101C90006B5C4568DD40C560054D6D6805F44041ED
:101CA000890B074D6B5CC568B5FBF3F5056130BD6D
:101CB0000010024000127A0000093D0014000020CC
:101CC0002400002010B500F001F810BD0CB5002074
:101CD000019000903348006840F48030314908603A
:101CE00000BF3048006800F4003000900198401CAC
:101CF0000190009818B90198B0F5A06FF1D129486A
:101D0000006800F4003010B10120009001E00020D4
:101D100000900098012843D12348006840F010004B
:101D2000214908600846006820F00700086008465E
:101D3000006840F0020008601A484068194948608D
:101D40000846406848600846406840F48060486043
:101D50000846406820F47C1048600846406840F41B
:101D6000E81048600846006840F08070086000BFD6
:101D70000C48006800F000700028F9D0094840685D
:101D800020F00300074948600846406840F0020020
:101D9000486000BF0348406800F00C000828F9D1F3
:101DA0000CBD0000001002400020024010B502F0FF
:101DB000F9F9012801D001F06FFE10BD10B51348EC
:101DC000006840F001001149086008464068104969
:101DD00008400E494860084600680E4908400B4913
:101DE00008600846006820F48020086008464068C3
:101DF00020F4FE0048604FF41F008860FFF762FF88
:101E00004FF000600449086010BD0000001002405F
:101E10000000FFF8FFFFF6FE08ED00E010B500241B
:101E200040F22551244800F073F801282FD12248B0
:101E300000F02AF9C4B22148D0F8000440F2FF3182
:101E400088420ED21D48D0F8040450B91B48D0F87F
:101E500000041A490C540846D0F80004401CC1F88C
:101E600000041648D0F8000440F2FF31884209D13E
:101E700000201249D1F80014104A50540120114694
:101E8000C1F8040440F225510B4800F019F840F263
:101E90002441094800F03CF801280CD1064800F024
:101EA000F3F800200549D1F80014044A50540120E9
:101EB0001146C1F8040410BD003801401C01002087
:101EC00010B50022002340F66A14A14200D100BFE1
:101ED0000A1201249440A3B2DC43048010BD21B156
:101EE000828942F40052828104E082894DF6FF73B8
:101EF0001A408281704702460020B1F5007F00D170
:101F000000BF13880B400BB1012000E00020704798
:101F100070B50246002400230025002040F66A1612
:101F2000B14200D100BFC1F3421501F01F030126E9
:101F300006FA03F3012D02D19689334006E0022D03
:101F400002D1168A334001E0968A33400C120126F2
:101F500006FA04F41688344013B10CB1012000E0F5
:101F6000002070BDF0B503460024002600250020A7
:101F700040F66A17B94200D100BF1846C1F34214B7
:101F800001F01F06012707FA06F5012C01D10C30DC
:101F900004E0022C01D1103000E014301AB10768BF
:101FA0002F43076002E00768AF430760F0BD000001
:101FB0002DE9F04786B005460E460024A24600BF34
:101FC000A1460027B08900B100BF2F462C8A4CF6ED
:101FD000FF700440F08804432C82AC894EF6F31065
:101FE0000440B08831890843718908430443AC81B7
:101FF000AC8A4FF6FF400440B0890443AC8201A88C
:10200000FFF7F6FD1F48874202D1DDF810A001E07E
:10201000DDF80CA0A88900F4004040B10AEBCA002A
:1020200000EB0A1031684900B0FBF1F807E00AEB59
:10203000CA0000EB0A1031688900B0FBF1F8642097
:10204000B8FBF0F004012009642101FB1089A88984
:1020500000F4004040B1322000EBC900B0FBF1F0C9
:1020600000F00700044308E0322000EB091064216F
:10207000B0FBF1F000F00F0004432C8106B0BDE886
:10208000F08700000038014001468888C0F308004E
:102090007047C1F308028280704700BFFEE700006E
:1020A0000FB4054B10B503A9044A029800F02CF8B0
:1020B00010BC5DF814FB0000092300081801002083
:1020C0000FB4084B10B504A902AA039800F01CF83D
:1020D000044602A9002000F0F3F8204610BC5DF889
:1020E00014FB0000C122000802E008C8121F08C14A
:1020F000002AFAD170477047002001E001C1121F89
:10210000002AFBD1704700002DE9FF4F8BB09A46A3
:102110000F460546002606E025280BD052460D99AD
:1021200090476D1C761C28780028F5D10FB03046FA
:10213000BDE8F08F0024A0460122604900E004437E
:1021400015F8013F203B02FA03F00842F7D1287846
:102150002E2817D115F8010F44F004042A280ED0B8
:102160006FF02F022878A0F1300109290AD808EB76
:10217000880102EB410100EB01086D1CF2E757F802
:10218000048B6D1C287869283ED006DC0028CDD051
:1021900063280BD0642804D136E0732810D075284A
:1021A0004BD052460D999047761C85E017F8040BEA
:1021B0008DF8000000208DF80100E946012003E0C1
:1021C00057F8049B4FF0FF3061074FF0000401D433
:1021D0000AE0641C44450DDA8442FADB19F8041065
:1021E0000029F6D106E0641C8442FCDB19F80410D7
:1021F0000029F8D1264404E019F8010B52460D9944
:102200009047641EF8D257E001CF4FF00A0B002828
:1022100002DA40422D2102E0210504D52B218DF860
:102220002410012103E0E10705D02021F7E70DF19B
:10223000200908910CE00021F9E701CF4FF00A0BCB
:10224000F9E75946FDF7E0FF01F1300209F8012DE9
:102250000028F6D1ADEB090000F1200B600701D496
:102260004FF00108D84502DDA8EB0B0000E000208C
:102270008046002406E009A85246005D0D9990476B
:10228000641C761C08988442F5DB04E0302052463A
:102290000D999047761CB8F10001A8F10108F5DC12
:1022A00005E019F8010B52460D999047761CBBF1D9
:1022B0000001ABF1010BF4DC6D1C34E709280100CF
:1022C0000A68531C0B601070704700000121012048
:1022D000094A12680AB100200CE0084A12680AB1E3
:1022E000002007E0064A1368064A1268521E93420D
:1022F00000D10220704700001C080020BC00002014
:1023000044080020A800002070B504460D4600BF18
:1023100040210948FFF7EFFD0028F9D0E1B2064857
:10232000FFF7B7FE00BF80210348FFF7E4FD002858
:10233000F9D0204670BD0000003801401CB5FDF703
:10234000C1FFFDF789FF012401250F480221002369
:102350000A02CDE900100DA1104801F0F3FE044679
:102360000F48032100236A02CDE900100DA1104897
:1023700001F0E8FE0446012C03D1012D01D101F04A
:1023800053FA00BFFEE70000280000204469737084
:102390006C61795F5461736B0000000049070008AD
:1023A0002C00002044485431315F5461736B0000AD
:1023B0002D0600082DE9F04105460E461C48076829
:1023C0001C480068001D00F097FE50B919480068CD
:1023D00090F82C100120884017490968814316485D
:1023E0000160681C38B936B112480168091D1348EC
:1023F00000F0C0FE1AE07C190E4800684460BC4240
:1024000007D20C480168091D0D48006800F098FECD
:102410000CE008480168091D0A48006800F090FEB9
:1024200009480068844201D207480460BDE8F08191
:10243000AC00002098000020B000002044080020DC
:10244000A00000209C000020C800002010B5044619
:1024500000F09CFE23480068401C22490860224886
:10246000006840B9204804600846006801280DD182
:1024700000F046FA0AE01D48006838B91A480068BA
:10248000C06AE16A884201D81748046018480068A9
:10249000401C1749086094F82C1001208840154909
:1024A0000968084313490860E16A01EB8101124A97
:1024B00002EB8100211D00F05DFE00F0A9FE0B483B
:1024C000006868B108480068C06AE16A884207D2BB
:1024D0004FF0805009490860BFF34F8FBFF36F8FF3
:1024E00010BD0000A800002098000020B4000020CB
:1024F000C4000020B00000207405002004ED00E0BE
:1025000010B500F043FE10480068D0B90F4800F045
:1025100007FE0F4800F004FE0C480E4908600C4806
:102520000D490860002210210A2001F0CFFA064967
:1025300008600846006820B108A10348006801F05F
:1025400019F800F065FE10BDDC00002058080020DE
:102550006C080020D4000020D8000020546D725177
:102560000000000070B523E001F0E8F913480068AE
:1025700008B9012000E00020054601F0A7FFBDB921
:1025800000F004FE0D48C068C468201D00F0B4FDD2
:102590000B480068401E0A4908600A480068401E4F
:1025A0000849086000F034FE204600F060F800BFE3
:1025B000044800680028D7D170BD00003008002012
:1025C000A8000020A400002070B504460D46206C31
:1025D00070B1216CE0680844E0606168E06888429E
:1025E00001D32068E0602846226CE168FDF7E8FD31
:1025F00070BD2DE9F04104460F4615464FF0000826
:10260000A66B206C40B9206860BB606801F092FE48
:1026100080460020606025E07DB93946226CA068C4
:10262000FDF7CEFD216CA0680844A060D4E901103C
:10263000884217D32068A06014E03946226CE06815
:10264000FDF7BEFD216CE068401AE0602168E0689B
:10265000884203D2216C6068401AE060022D01D1EB
:1026600006B1761E701CA0634046BDE8F08110B52F
:102670000446206B00F002FE204600F0FFFD10BD76
:10268000002101220C4B1B68012B00D901210B4AB0
:102690001268D26A0AB100200DE0094A1268012AC4
:1026A00001D9002007E009B1002004E0054A1268C2
:1026B000054B1B68D01A7047B0000020980000201E
:1026C00074050020C8000020AC0000200146084A24
:1026D000126812680AB9012200E000220A600A6842
:1026E00022B9034A1268D268106800E000207047DF
:1026F000D400002030B54FF40053174800F0070411
:102700002CB1C01D20F00700134C041B1B1B0246FC
:10271000124C22600024114D6C60D018083820F053
:1027200007000F4C206000240D4D2D686C600C4D8F
:102730002D682C601146441A4C60094C24680C60CA
:10274000084D4C682C60084D4C682C604FF00044DC
:10275000064D2C6030BD00008008002000010020E4
:1027600008010020100100200C01002014010020AD
:1027700000BFFFF7F7FE17480068012807D94FF0A0
:10278000805015490860BFF34F8FBFF36F8FFFF77D
:1027900077FF0446022C1BD301F0D0F80F480068E5
:1027A0000F490968884201D3012000E0002028B9C0
:1027B00040F62F520BA111A0FFF772FCFFF760FF4C
:1027C0000446022C02D3204600F0E0FD01F07EFE1C
:1027D000CFE700007405002004ED00E0C8000020F1
:1027E000AC0000202E2E5C4672656552544F535C3F
:1027F0007372635C7461736B732E63004572726FE6
:10280000723A25732C2025640D0A00002DE9F04151
:1028100006460D4617469846069C0DB9246000E012
:102820002760E66325640121204601F071FA00204B
:10283000A064BDE8F08100002DE9FF5F81460F46EE
:102840009246DDE90E6B109CAAF10100216B01EBB1
:10285000800828F0070808F0070008B9012000E008
:10286000002028B94FF44D721BA121A0FFF718FCDE
:10287000002507E0795D04F134004155785D00B929
:1028800002E06D1C102DF5D300BF0021432001553F
:10289000202E00D31F26E66266640020A064201D5F
:1028A00000F04BFC04F1180000F047FC2461C6F175
:1028B0002000A06164620020E06484F85000494672
:1028C0004046039A00F006FC2060BBF1000F01D0E7
:1028D000CBF80040BDE8FF9F2E2E5C467265655226
:1028E000544F535C7372635C7461736B732E63003B
:1028F0004572726F723A25732C2025640D0A000010
:1029000010B5002407E004EB84010F4A02EB8100BC
:1029100000F006FC641C202CF5D30C4800F000FCF1
:102920000B4800F0FDFB0B4800F0FAFB0A4800F0F2
:10293000F7FB0A4800F0F4FB044809490860044822
:102940000849086010BD000074050020F40700204D
:10295000080800201C08002030080020440800203F
:102960009C000020A000002010B50146164800E0A1
:10297000006803688B42FBD30246436813448B42D2
:1029800004D143684C682344436001460A464B68BF
:1029900013440468A34211D10C4C03682468A34279
:1029A00008D04B680468646823444B6003681B6864
:1029B0000B6005E0054B1B680B6001E003680B60D2
:1029C000884200D0016010BD0001002008010020F5
:1029D0002DE9F04104460D4616461F464FF000080B
:1029E00065602461B5420CD8F01BA169884202D30E
:1029F0004FF0010811E0211D0948006800F0A0FB1C
:102A00000BE0BE4204D2BD4202D34FF0010804E005
:102A1000211D0448006800F093FB4046BDE8F081AA
:102A2000D8000020D400002070B5054600F0AEFBB1
:102A3000A86B08B9012400E0002400F0E9FB20465F
:102A400070BD70B5054600F0A1FBA86BE96B88422C
:102A500001D1012400E0002400F0DAFB204670BD23
:102A60002DE9F3410D460098846C00272CB940F6FF
:102A700071221AA11FA0FFF713FBA06BE16B884224
:102A800001D2012000E0002028B940F6722213A1F3
:102A900018A0FFF705FBA06BE16B88421BD294F9ED
:102AA00045602A4669462046FFF7A3FD0746701C8D
:102AB00060B9606A08B9012000E0002050B904F153
:102AC000240001F0A5FC28B1012703E0701C40B2EE
:102AD00084F8450000BF3846BDE8FC812E2E5C46D8
:102AE00072656552544F535C7372635C71756575A2
:102AF000652E63004572726F723A25732C2025642F
:102B00000D0A0000F8B505460F4613480068C06876
:102B1000C468201D00F0F0FAE069012818D1A0690E
:102B200041192B463A462046FFF752FF80B100205C
:102B300003462A4601460090204601F095FD0646D0
:102B40002EB940F2232205A10BA0FFF7A9FA00BF7E
:102B50002046616A8847F8BDD40000202E2E5C46CE
:102B600072656552544F535C7372635C74696D6532
:102B700072732E63000000004572726F723A257303
:102B80002C2025640D0A0000F0B587B070E0039892
:102B900000280CDA04AE2EB94FF448723AA141A0D5
:102BA000FFF77EFAD6E90020B168904700BF03988E
:102BB00000285DDB059C606908B9012000E0002069
:102BC00010B9201D00F098FA02A800F0C9F80546D7
:102BD00003980A284AD2DFE800F00905072C2E45A1
:102BE00006082D2F00BF00BF00BF00BF0498A269D8
:102BF000811803462A462046FFF7EAFEC0B1204668
:102C0000616A8847E069012812D100200090049889
:102C1000A169421800231946204601F025FD074608
:102C20002FB94FF4587218A11EA0FFF739FA00BF50
:102C30001DE000BF1BE000BF0498A061A06908B1BF
:102C4000012000E0002028B940F277320EA115A043
:102C5000FFF726FAA06941192B462A462046FFF7BE
:102C6000B7FE04E0204600F009FB00E000BF00BF13
:102C700000231A4603A90F48006800F063FF0028EC
:102C800085D107B0F0BD00002E2E5C4672656552FE
:102C9000544F535C7372635C74696D6572732E6319
:102CA000000000004572726F723A25732C20256473
:102CB0000D0A0000DC000020F8B505460C4600F0C7
:102CC0003DFE684600F04CF80646009820BB44B92B
:102CD000B54206D801F0FAFB31462846FFF712FF4D
:102CE0001CE03CB10E480068006808B9012000E013
:102CF00000200446A91B22460A48006800F050FC48
:102D000001F0E4FB50B94FF0805007490860BFF371
:102D10004F8FBFF36F8F01E001F0D8FBF8BD0000CB
:102D2000D8000020DC00002004ED00E00A4909681A
:102D3000096809B9012100E0002121B14FF0FF31FC
:102D4000064A116006E004490968C968C868034A70
:102D500041681160704700009C000020C8000020FE
:102D600070B5044601F02EFA054607480068854212
:102D700004D200F00BF80120206001E00020206068
:102D800001480560284670BDE40000202DE9F843A5
:102D90002DE021480068C06805681F480068C068C9
:102DA000C468201D00F0A8F92046616A8847E069E0
:102DB00001281CD1A0694619AE4207D9666024617A
:102DC000211D1548006800F0BBF910E00020034603
:102DD0002A4601460090204601F046FC07462FB9DE
:102DE00040F2D1320DA114A0FFF75AF900BF0A48F2
:102DF0000068006808B9012000E000200028C8D061
:102E00000548D0F8008010480068034908600E4863
:102E1000C0F80080BDE8F883D40000202E2E5C4668
:102E200072656552544F535C7372635C74696D656F
:102E300072732E63000000004572726F723A257340
:102E40002C2025640D0A0000D80000200B480068E3
:102E5000401C08B9012000E0002020B9F42208A19C
:102E600011A0FFF71DF900BF502080F31188BFF3B8
:102E70004F8FBFF36F8F00BF00BFFEE7E800002059
:102E80002E2E5C4672656552544F535C706F72749F
:102E90005C525644535C41524D5F434D335C706FFE
:102EA00072742E63000000004572726F723A2573CF
:102EB0002C2025640D0A000008B500BF6846FFF706
:102EC00005FC044620460099FFF7F6FEFFF75CFE7E
:102ED000F4E770B5044600F059F994F945501AE04A
:102EE000A06C38B100212046FFF7BAFD88B100F090
:102EF000B9FB0EE0606A08B9012000E0002038B993
:102F000004F1240001F084FA18B100F0ABFB00E0FA
:102F100003E0681E45B2002DE2DC00BFFF2084F80C
:102F2000450000F075F900F031F994F9445010E0D3
:102F3000206908B9012000E0002048B904F1100020
:102F400001F066FA08B100F08DFB681E45B200E0A2
:102F500001E0002DECDC00BFFF2084F8440000F00D
:102F600057F970BD2DE9F04104464FF0000800F01C
:102F7000E5FC3E48006808B9FFF7BCFB3C48006828
:102F8000204000285FD1A4B1083404F0070080B1CC
:102F900004F00700C0F10800044404F0070008B979
:102FA000012000E0002020B9C02232A13AA0FFF7A2
:102FB00077F8002C47D03C480068844243D83B4E09
:102FC0003046056801E02E462D686868A04202D2AE
:102FD00028680028F7D125480068854233D030683A
:102FE00000F10808286830606868001B102813D9B1
:102FF0002F1907F0070008B9012000E0002020B9D0
:10300000ED221CA124A0FFF74BF86868001B786034
:103010006C603846FFF7A8FC234968680968081AFD
:10302000214908600846006821490968884203D29E
:103030001D4800681E4908600D4968680968084312
:1030400068600020286001F041FA08F0070008B924
:10305000012000E0002028B940F22D1205A10EA0A9
:10306000FFF71EF84046BDE8F0810000080100208F
:10307000140100202E2E5C4672656552544F535C3D
:10308000706F72745C4D656D4D616E675C686561F3
:10309000705F342E630000004572726F723A2573C0
:1030A0002C2025640D0A00000C01002000010020E6
:1030B000100100200648006830B10549096801F197
:1030C0004800896C491C0160014800687047000095
:1030D00098000020001F4FF080730360001F21F054
:1030E00001030360001F034B0360143802602038A3
:1030F000704700004D2E000801460A69D1E90130F1
:103100009860D1E9010358605068884201D188680D
:103110005060002008611068401E10601068704701
:1031200000F1080141604FF0FF31816000F10801BA
:10313000C160016100210160704700210161704799
:1031400010B502460B685C1C0CB9106907E002F16F
:10315000080000E04068446824689C42FAD944684A
:103160004C604C68A160886041600A611468641C0E
:10317000146010BD42684A6093688B609368596020
:103180009160086103685B1C0360704710B500BF65
:10319000502080F31188BFF34F8FBFF36F8F00BFB4
:1031A0000B480068401C0A4908600846006801286E
:1031B0000DD108480068C0B208B9012000E0002025
:1031C00028B940F2B11204A10DA0FEF769FF10BDAD
:1031D000E800002004ED00E02E2E5C46726565528A
:1031E000544F535C706F72745C525644535C41523E
:1031F0004D5F434D335C706F72742E6300000000AE
:103200004572726F723A25732C2025640D0A0000F6
:1032100010B50B48006828B940F2B91209A113A0F3
:10322000FEF73EFF06480068401E05490860084654
:10323000006820B9002080F3118800BF00BF10BDD6
:10324000E80000202E2E5C4672656552544F535C98
:10325000706F72745C525644535C41524D5F434DE3
:10326000335C706F72742E63000000004572726FE1
:10327000723A25732C2025640D0A000070B50646AD
:103280003546002E35D0083D2C461A49606809683D
:10329000084008B1012000E0002028B940F24112A6
:1032A00015A11EA0FEF7FCFE206808B9012000E071
:1032B000002028B94FF4A1720FA118A0FEF7F0FE6C
:1032C0000C4960680968084098B1206888B90949C4
:1032D000606809688843606000F030FB13496068EB
:1032E00009680844114908602046FFF73DFB01F0DA
:1032F000EDF870BD140100202E2E5C4672656552FB
:10330000544F535C706F72745C4D656D4D616E67A8
:103310005C686561705F342E630000004572726FF7
:10332000723A25732C2025640D0A00000C01002040
:10333000124800684FF47A71B0FBF1F01049086050
:10334000084600686FF07F41B1FBF0F00D4908605E
:103350000A480068B0FBF0F02D21B1FBF0F00A49FB
:103360000860064800684FF47A71B0FBF1F0401E27
:103370004FF0E021486107200861704700000020FD
:10338000EC000020F0000020F40000202DE9F047C0
:1033900004464E480068844201D94C4804684FF006
:1033A000E020006920F001004FF0E02108610846AC
:1033B0008169601E464A126802FB00154548006894
:1033C000854202D9434800682D1A72B6BFF34F8F69
:1033D000BFF36F8FFEF77AFF80B94FF0E02080696E
:1033E0004FF0E02148610846006940F001000861A3
:1033F00037480068401E486162B665E04FF0E02043
:10340000456100204FF0E02188610846006940F0E6
:1034100001000861A146B9F1000404D0BFF34F8F49
:1034200030BFBFF36F8F4FF0E020D0F8108028F04E
:1034300001004FF0E021086162B608F48030B8B1B5
:1034400023490968491E4FF0E0229269AA1A881A96
:1034500020490968884203D31D490968884202D976
:103460001B490968481E4FF0E0214861661E12E0C2
:103470001748006860434FF0E0218969471A1448F3
:103480000068B7FBF0F6701C114909684843C01B7F
:103490004FF0E021486100204FF0E0218861FFF704
:1034A00075FE4FF0E020006940F001004FF0E02190
:1034B0000861304600F010FA05480068401E4FF0E1
:1034C000E0214861FFF7A4FEBDE8F087F00000208E
:1034D000EC000020F400002070B5FCF75BFE054610
:1034E000102D11D305F1E02090F8F043104800783A
:1034F000844201DB012000E0002028B940F2FF22D5
:103500000CA116A0FEF7CCFD1848006800F4E0609E
:1035100017490968884201D8012000E0002028B935
:1035200040F20F3203A10DA0FEF7BAFD70BD0000FE
:10353000F80000202E2E5C4672656552544F535C95
:10354000706F72745C525644535C41524D5F434DF0
:10355000335C706F72742E63000000004572726FEE
:10356000723A25732C2025640D0A00000CED00E052
:10357000FC000020024600200BE0084B53F83030DE
:1035800033B9064B43F8301003EBC0035A6002E036
:10359000401C0A28F1D300BF70470000240500201A
:1035A0002DE9F04105460E4617462C46FFF7EEFD85
:1035B00094F94400401C10B9002084F8440094F9A8
:1035C0004500401C10B9002084F84500FFF720FE9C
:1035D000A06B28B93A46314604F1240000F074F893
:1035E0002046FFF776FCBDE8F081000070B5044688
:1035F0000025ACB10F48006808B9012000E00020A8
:1036000028B940F204520CA111A0FEF749FD00F0C8
:1036100095F900212046FEF7CDFE00F057FF054644
:103620003DB94FF080500E490860BFF34F8FBFF394
:103630006F8F70BDD00000202E2E5C4672656552E3
:10364000544F535C7372635C7461736B732E6300CD
:103650004572726F723A25732C2025640D0A0000A2
:1036600004ED00E00120014908607047BC00002023
:1036700070B504460D462CB940F6A93207A10DA03D
:10368000FEF70EFD0F48016818312046FFF758FD80
:1036900001212846FEF78EFE70BD00002E2E5C46EE
:1036A00072656552544F535C7372635C7461736BE3
:1036B000732E63004572726F723A25732C20256455
:1036C0000D0A00009800002070B505460E4614460D
:1036D0002DB940F6D43209A10EA0FEF7E1FC114845
:1036E000016818312846FFF745FD0CB14FF0FF3651
:1036F00021463046FEF75EFE70BD00002E2E5C4671
:1037000072656552544F535C7372635C7461736B82
:10371000732E63004572726F723A25732C202564F4
:103720000D0A00009800002070B505462C46002DBB
:103730004BD02649E06A0968C96A884245D2A06927
:1037400000F0004028B921480068C06AC0F120009C
:10375000A061E16A01EB81011D4A02EB8101606910
:10376000884201D1012000E0002050B3201DFFF766
:10377000C3FC78B9E06A00EB8000154951F82000DD
:1037800040B994F82C1001208840124909688143FF
:10379000104801600D480068C06AE06294F82C107F
:1037A000012088400B49096808430A490860E16A1A
:1037B00001EB8101064A02EB8100211DFFF7DAFCD3
:1037C00003E002480068C06AE06270BD9800002013
:1037D00074050020B000002010B504462CB940F656
:1037E000644205A10AA0FEF75BFC0D48006820605A
:1037F0000C480068606010BD2E2E5C4672656552F4
:10380000544F535C7372635C7461736B732E63000B
:103810004572726F723A25732C2025640D0A0000E0
:10382000C0000020AC0000201CB51A4800210B4647
:103830008022CDE9001018A1194800F083FC04464D
:10384000012C02D100F0D4FE0446012C15D100BF9A
:10385000502080F31188BFF34F8FBFF36F8F00BFED
:103860004FF0FF300F49086001200F490860002029
:103870000E49086000F0C0F80BE0601C08B10120A0
:1038800000E0002028B940F2FC7209A10EA0FEF76A
:1038900007FC1CBDCC00002049444C450000000042
:1038A00071270008C8000020B4000020AC000020F0
:1038B0002E2E5C4672656552544F535C7372635C86
:1038C0007461736B732E63004572726F723A257365
:1038D0002C2025640D0A000010B504460B48006832
:1038E00020440B490968884201D8012000E00020EB
:1038F00028B940F6F91207A10CA0FEF7D1FB034846
:10390000006820440149086010BD0000AC000020A0
:10391000C80000202E2E5C4672656552544F535CE1
:103920007372635C7461736B732E63004572726FA4
:10393000723A25732C2025640D0A000002480068A5
:10394000401C014908607047D000002010B51B489A
:10395000006818B101201A4908602DE000201849BC
:10396000086018480068B0FA80F0C0F11F0404EB4A
:103970008400154951F8200008B1012000E0002022
:1039800028B940F6993211A116A0FEF789FB04EB85
:1039900084010D4A02EB810041684968416000F1F1
:1039A000080142688A4202D1416849684160416821
:1039B000C968104A116000BF10BD0000D00000208F
:1039C000BC000020B0000020740500202E2E5C46B4
:1039D00072656552544F535C7372635C7461736BB0
:1039E000732E63004572726F723A25732C20256422
:1039F0000D0A0000980000201CB5224801460978F5
:103A00000191FF21024611700146097800919DF84D
:103A1000001001F050011C4A117007211B4A11606F
:103A200009E01A490968491E184A11609DF80010FA
:103A30004906090E00919DF8001001F080018029CF
:103A4000EFD0124909680902104A1160114609882D
:103A500001F4E06111600B4A019911700C48006893
:103A600040F470000A4908600846006840F0704061
:103A70000860FFF75DFC002006490860FCF754FB76
:103A800000201CBD00E400E0F8000020FC00002045
:103A900020ED00E0E800002010B500BF502080F3CA
:103AA0001188BFF34F8FBFF36F8F00BF00F090FB03
:103AB00018B14FF080500449086000BF002080F327
:103AC000118800BF10BD000004ED00E02DE9F843AF
:103AD00005460E4690460DB1012000E0002028B9B1
:103AE0004FF4D8720DA113A0FEF7DAFA0EB9002731
:103AF00001E005FB06F707F14C00FFF733FA044637
:103B000044B104F14C0943464A46314628460094E4
:103B1000FEF77CFE2046BDE8F88300002E2E5C46B2
:103B200072656552544F535C7372635C7175657551
:103B3000652E63004572726F723A25732C202564DE
:103B40000D0A00002DE9FF4782B005460E461F46CC
:103B50004FF0000A2C462CB940F2565261A167A0E2
:103B6000FEF79EFA0EB9206C08B9012000E0002093
:103B700028B94FF4AB625BA160A0FEF791FA00F0A8
:103B800011FB08B9049808B9012000E0002028B909
:103B900040F25C5253A159A0FEF782FA00BFFFF732
:103BA000F5FAD4F83890B9F1000F3DD0D4F80C8074
:103BB00031462046FEF708FDDFB9A9F10100A063F8
:103BC000206810B9FFF776FA6060206908B9012013
:103BD00000E0002010BB04F1100000F019FCE8B177
:103BE0004FF0805049490860BFF34F8FBFF36F8F8C
:103BF00014E0C4F80C80606A08B9012000E00020DD
:103C000060B904F1240000F003FC38B14FF080509B
:103C10003E490860BFF34F8FBFF36F8FFFF7F8FA8D
:103C2000012006B0BDE8F087049818B9FFF7F0FA54
:103C30000020F6E7BAF1000F04D16846FFF7CCFD8B
:103C40004FF0010AFFF7E4FAFFF778FEFFF79EFA5C
:103C500094F94400401C10B9002084F8440094F901
:103C60004500401C10B9002084F84500FFF7D0FA49
:103C700004A9684600F014FA40BB2046FEF7D4FEC3
:103C8000F0B1206830B9FFF781FA6068FFF74CFDAA
:103C9000FFF7BEFA04F124000499FFF7E9FC20467F
:103CA000FFF717F900F012FC00287FF478AF4FF00F
:103CB000805016490860BFF34F8FBFF36F8F6EE7D8
:103CC0002046FFF706F900F001FC68E72046FFF701
:103CD00000F900F0FBFB2046FEF7A6FE0028EED020
:103CE00000209EE72E2E5C4672656552544F535C51
:103CF0007372635C71756575652E63004572726FD2
:103D0000723A25732C2025640D0A000004ED00E0B2
:103D100070B505460E462C462CB940F22D121EA158
:103D200023A0FEF7BDF9FFF731FAD4E90F1220689E
:103D300001FB020060600020A0632068A060E06BCF
:103D4000401E226C216800FB0210E060FF2084F816
:103D5000440084F845009EB9206908B9012000E0BC
:103D60000020A8B904F1100000F052FB80B14FF020
:103D7000805013490860BFF34F8FBFF36F8F07E088
:103D800004F11000FFF7CCF904F12400FFF7C8F9A3
:103D9000FFF73EFA012070BD2E2E5C46726565521B
:103DA000544F535C7372635C71756575652E630067
:103DB0004572726F723A25732C2025640D0A00003B
:103DC00004ED00E02DE9FF4383B0064688461D461A
:103DD0004FF0000934462CB94FF4477260A166A039
:103DE000FEF75EF9B8F1000F01D1206C08B901208F
:103DF00000E0002028B940F21E3259A15EA0FEF773
:103E00004FF9022D02D1E06B012801D1012000E021
:103E1000002028B940F2213251A157A0FEF740F905
:103E200000F0C0F908B9059808B9012000E00020A9
:103E300028B940F226324AA14FA0FEF731F900BF5F
:103E4000FFF7A4F9A06BE16B884201D3022D38D1B2
:103E50002A4641462046FEF7CCFB0746A06C68B1D7
:103E600029462046FEF7FCFD28B34FF08050464916
:103E70000860BFF34F8FBFF36F8F1CE0606A08B913
:103E8000012000E0002068B904F1240000F0C0FA2D
:103E900088B14FF080503C490860BFF34F8FBFF3AB
:103EA0006F8F08E03FB14FF0805037490860BFF393
:103EB0004F8FBFF36F8FFFF7ABF9012007B0BDE85D
:103EC000F083059818B9FFF7A3F90020F6E7B9F1D8
:103ED000000F04D101A8FFF77FFC4FF00109FFF7A5
:103EE00097F9FFF72BFDFFF751F994F94400401CB7
:103EF00010B9002084F8440094F94500401C10B922
:103F0000002084F84500FFF783F905A901A800F017
:103F1000C7F8F0B92046FEF794FDA0B104F11000F7
:103F20000599FFF7A5FB2046FEF7D3FF00F0CEFA78
:103F3000002885D14FF0805013490860BFF34F8FA0
:103F4000BFF36F8F7CE72046FEF7C3FF00F0BEFA99
:103F500076E72046FEF7BDFF00F0B8FA0020ADE797
:103F60002E2E5C4672656552544F535C7372635CCF
:103F700071756575652E63004572726F723A2573AF
:103F80002C2025640D0A000004ED00E02DE9F05F0F
:103F900080468A4615461E4644462CB940F20342E6
:103FA00035A13BA0FEF77CF8BAF1000F01D1206CDF
:103FB00008B9012000E0002028B940F204422EA1F7
:103FC00033A0FEF76DF8022E02D1E06B012801D17B
:103FD000012000E0002028B940F2054226A12CA0D3
:103FE000FEF75EF8FFF778FA00BF5021EFF311807B
:103FF00081F31188BFF34F8FBFF36F8F00BF074668
:10400000A06BE16B884201D3022E2BD194F945B00D
:10401000324651462046FEF7ECFA0BF10100C8B9D2
:10402000A06C40B131462046FEF71AFDB8B1B5B1DB
:104030000120286013E0606A08B9012000E0002038
:1040400068B904F1240000F0E3F940B13DB101206A
:10405000286004E00BF1010040B284F845004FF005
:10406000010901E04FF0000900BF87F3118800BF8C
:104070004846BDE8F09F00002E2E5C4672656552F2
:10408000544F535C7372635C71756575652E630084
:104090004572726F723A25732C2025640D0A000058
:1040A0002DE9F04104460D462CB940F66E4219A1A7
:1040B0001EA0FDF7F5FF2DB940F66F4215A11BA01C
:1040C000FDF7EEFFFFF762F81C4807682868401C00
:1040D00008B9002619E01A4920680968884204D006
:1040E0006068B84201D801260FE06068381A296874
:1040F000884209D228686168791A401A28602046E7
:10410000FFF76AFB002600E00126FFF781F8304642
:10411000BDE8F0812E2E5C4672656552544F535CAB
:104120007372635C7461736B732E63004572726F9C
:10413000723A25732C2025640D0A0000AC00002083
:10414000C00000202DE9FF4F85B080468946174604
:10415000DDE912ABB800FEF705FF064656B1542064
:10416000FEF700FF04460CB1266304E03046FFF77B
:1041700085F800E000247CB10020CDE900ABCDE95A
:1041800002403A4649464046089BFEF755FB20460A
:10419000FEF75CF9012501E04FF0FF35284609B034
:1041A000BDE8F08F0549096809B9012005E0044917
:1041B000096809B9022000E000207047B40000201F
:1041C000D00000200149086870470000AC000020C2
:1041D0002DE9F0414FF0000841480068002872D1F5
:1041E00040480068451C3F480560EDB93E480068FE
:1041F000006808B9012000E0002028B940F66A22D2
:104200003AA140A0FDF74CFF3748076841480068D5
:10421000354908603F4807603F480068401C3E49F8
:104220000860FEF783FD00BF3C48006885423CD330
:1042300000BF2D480068006808B9012000E0002098
:1042400020B14FF0FF30354908602DE02648006866
:10425000C068C4686668B54202D23048066023E090
:10426000201DFEF749FFA06A18B104F11800FEF7FF
:1042700043FF94F82C10012088402949096808431D
:1042800027490860E16A01EB8101264A02EB8100BF
:10429000211DFEF76FFF2449E06A0968C96A884258
:1042A000C7D34FF00108C4E700BF1F480068C06AC9
:1042B00000EB80001B4951F82000012801D94FF084
:1042C000010805E0FFE719480068401C174908602D
:1042D0001748006808B14FF001084046BDE8F0817A
:1042E000D0000020AC0000209C0000202E2E5C4658
:1042F00072656552544F535C7372635C7461736B87
:10430000732E63004572726F723A25732C202564F8
:104310000D0A0000A0000020C0000020C8000020FE
:10432000B00000207405002098000020B800002094
:10433000BC00002070B505462C460026002D4BD051
:1043400026480068844201D1012000E0002028B9FD
:104350004FF4776222A128A0FDF7A2FEA06C28B935
:1043600040F672721EA124A0FDF79AFEA06C401EBA
:10437000A064616CE06A88422ED0A06C60BB201DF6
:10438000FEF7BAFE78B9E06A00EB80001E4951F8EA
:10439000200040B994F82C10012088401B4909687E
:1043A00081431A480160606CE062E06AC0F120005D
:1043B000A06194F82C100120884014490968084332
:1043C00012490860E16A01EB81010F4A02EB8100AA
:1043D000211DFEF7CFFE0126304670BD980000205B
:1043E0002E2E5C4672656552544F535C7372635C4B
:1043F0007461736B732E63004572726F723A25732A
:104400002C2025640D0A000074050020B000002057
:1044100070B50646F068C4682CB940F604421BA18A
:1044200020A0FDF73DFE04F11800FEF765FE2148CF
:104430000068A8B9201DFEF75FFE94F82C1001203B
:1044400088401D49096808431B490860E16A01EB7F
:1044500081011A4A02EB8100211DFEF78BFE04E068
:1044600004F118011648FEF785FE1649E06A09684E
:10447000C96A884204D9012501201349086000E077
:104480000025FEF753FC284670BD00002E2E5C462A
:1044900072656552544F535C7372635C7461736BE5
:1044A000732E63004572726F723A25732C20256457
:1044B0000D0A0000D0000020B0000020740500208C
:1044C0001C08002098000020BC00002070B50024CB
:1044D00000263448006828B940F6610232A138A0AD
:1044E000FDF7DEFDFEF752FE2E480068401E2D4906
:1044F00008600846006800284FD135480068002849
:104500004BD024E03348C068C46804F11800FEF7BB
:10451000F3FD201DFEF7F0FD94F82C1001208840DB
:104520002D49096808432C490860E16A01EB8101C3
:104530002A4A02EB8100211DFEF71CFE2849E06A91
:104540000968C96A884202D30120264908602148C7
:10455000006808B9012000E000200028D2D00CB18A
:10456000FEF7E4FB2048056865B100BFFFF730FEA9
:1045700010B101201B4908606D1E002DF6D10020EE
:10458000194908601748006838B1012630071749F3
:104590000860BFF34F8FBFF36F8FFEF739FE3046D1
:1045A00070BD0000D00000202E2E5C467265655262
:1045B000544F535C7372635C7461736B732E63004E
:1045C0004572726F723A25732C2025640D0A000023
:1045D000A80000201C080020B00000207405002066
:1045E00098000020BC000020B800002004ED00E08E
:1045F0001CB50024FDF784FF0B48006858B10B4838
:104600001F2100234FF48072CDE9001008A10A4851
:10461000FFF798FD04462CB94FF49E7207A10EA037
:10462000FDF73EFD20461CBDDC000020E000002020
:10463000546D722053766300B92E00082E2E5C460E
:1046400072656552544F535C7372635C74696D6537
:1046500072732E63000000004572726F723A257308
:104660002C2025640D0A00002DE9FF4704460D4665
:1046700016461F46DDF830804FF000092CB940F295
:10468000BB1217A11DA0FDF70BFD2048006810B359
:10469000009501960294062D15DAFFF783FD022896
:1046A00008D100234246694618480068FFF78AFB94
:1046B000814610E000231A46694614480068FFF757
:1046C00081FB814607E000233A4669460F480068AF
:1046D000FFF75CFC8146484604B0BDE8F087000067
:1046E0002E2E5C4672656552544F535C7372635C48
:1046F00074696D6572732E63000000004572726FFD
:10470000723A25732C2025640D0A0000DC0000207D
:1047100004047454545454FF545454547404040002
:10472000040415151555957F151515151F0404005E
:1047300004047454545454FF5454545474040400E2
:10474000040415151555957F151515151F0404003E
:104750001010F01F1010F00000F8080808F8000012
:104760008041221408166100007F2020207F000075
:10477000101012D2565A5253525A56D212101000DA
:104780004030007785858DB5858585E70010600010
:1047900040404444546445464464544444404000CA
:1047A000000000FF49494949494949FF000000000C
:1047B0000000E09C848484F48282838280800000F4
:1047C000002010080640807F00000204083000002E
:1047D0001060028C0000FE9292929292FE00000005
:1047E00004047E01407E42427E427E42427E400080
:1047F0001060028C00FE929292929292FE00000053
:1048000004047E014448507F40407F5048444000AB
:104810000000FC242424FC252624FC242424040059
:1048200040308F80844C55252525554C8080800054
:10483000807000FF201004040404FC04040404003D
:10484000806018070830000040807F0000000000F2
:10485000000000FE52525252525252FE000000001E
:104860000808884F291909090919294F88080800DB
:10487000000000008040209048241209040200003B
:10488000000000000001020409122448102000006A
:10489000000002040912244890204080000000001B
:1048A000000020104824120904020100000000004A
:1048B00000000000000000000000000000000000F8
:1048C000000036360000000000000000000000007C
:1048D000060909E6F80C040202020202041E0000A6
:1048E000000000071F3020404040404020100000E2
:1048F0000000000000000000002F00000000070082
:10490000070000147F147F1400242A7F2A120062FB
:1049100064081323003649552250000005030000A7
:1049200000001C224100000041221C000014083E2F
:1049300008140008083E0808000000A060000008F5
:104940000808080800006060000000201008040249
:10495000003E5149453E0000427F40000042615107
:104960004946002141454B31001814127F100027A1
:1049700045454539003C4A49493000017109050364
:1049800000364949493600064949291E0000363695
:1049900000000000563600000008142241000014F8
:1049A00014141414000041221408000201510906D5
:1049B00000324959513E007C1211127C007F494956
:1049C0004936003E41414122007F4141221C007F87
:1049D00049494941007F09090901003E4149497A95
:1049E000007F0808087F0000417F4100002040410F
:1049F0003F01007F08142241007F40404040007F7B
:104A0000020C027F007F0408107F003E4141413EBE
:104A1000007F09090906003E4151215E007F091906
:104A200029460046494949310001017F0101003F03
:104A30004040403F001F2040201F003F4038403F83
:104A400000631408146300070870080700615149E7
:104A5000454300007F41410000552A552A5500007A
:104A600041417F00000402010204004040404040F8
:104A7000000001020400002054545478007F484490
:104A8000443800384444442000384444487F0038C7
:104A90005454541800087E0901020018A4A4A47CF0
:104AA000007F080404780000447D400000408084BA
:104AB0007D00007F102844000000417F4000007C02
:104AC00004180478007C080404780038444444380E
:104AD00000FC242424180018242418FC007C08045A
:104AE000040800485454542000043F444020003C33
:104AF0004040207C001C2040201C003C4030403CBA
:104B0000004428102844001CA0A0A07C0044645449
:104B10004C4414141414141400000000000000008D
:104B20000000000000000000000000F8000000008D
:104B3000000000330000000000100C02100C020006
:104B400000000000000000000040C07840C0780075
:104B500000043F04043F040000708888FC08300013
:104B600000182020FF211E00F008F08060180000CF
:104B700000310C031E211E0000F0088870000000A8
:104B80001E21232C1927211000120E000000000006
:104B90000000000000000000000000E01804020017
:104BA000000000071820400000020418E000000088
:104BB0000040201807000000404080F08040400086
:104BC0000202010F0102020000000000E0000000EC
:104BD000000101010F0101010000000000000000C0
:104BE00000907000000000000000000000000000C5
:104BF00000010101010101000000000000000000AF
:104C0000003030000000000000000000C038040048
:104C1000006018070000000000E010080810E00025
:104C2000000F102020100F0000001010F8000000EE
:104C3000000020203F202000007008080808F00035
:104C40000030282422213000003008080888700035
:104C50000018202121221C000000804030F80000B4
:104C600000060524243F242400F8888888080800CA
:104C70000019202020110E0000E01088889000000C
:104C8000000F112020201F00001808088868180055
:104C90000000003E010000000070880808887000D5
:104CA000001C222121221C0000F008080810E0004E
:104CB0000001122222110F00000000C0C0000000FD
:104CC0000000003030000000000000800000000004
:104CD000000000E0000000000000804020100800FC
:104CE0000001020408102000004040404040400005
:104CF00000020202020202000008102040800000B0
:104D000000201008040201000070480808887000A4
:104D10000000003037000000C030C828E810E00074
:104D2000071827282F2817000000C038E0000000CF
:104D3000203C23020227382008F888888870000069
:104D4000203F202020110E00C0300808080838003D
:104D5000071820202010080008F808080810E000B4
:104D6000203F202020100F0008F88888E808100055
:104D7000203F20202320180008F88888E808100029
:104D8000203F200003000000C03008080838000061
:104D900007182020221E020008F808000008F80862
:104DA000203F210101213F20000808F808080000E9
:104DB0000020203F2020000000000808F80808001C
:104DC000C08080807F00000008F888C02818080094
:104DD000203F20012638200008F8080000000000CD
:104DE000203F20202020300008F8F800F8F80800C4
:104DF000203F013E013F200008F830C00008F808BD
:104E0000203F200007183F00E01008080810E000CD
:104E10000F10202020100F0008F808080808F000E4
:104E2000203F210101010000E01008080810E00007
:104E30000F10282830504F0008F8888888887000A4
:104E4000203F2000030C302000708808080838003C
:104E50000038202121221C00180808F80808180032
:104E60000000203F2000000008F808000008F808B3
:104E7000001F202020201F000878880000C8380864
:104E8000000007380E01000008F800F800F80800DC
:104E900000033E013E03000008186880806818087F
:104EA00020302C03032C30200838C800C8380800F4
:104EB0000000203F2000000010080808C838080043
:104EC0002038262120201800000000FE02020200E7
:104ED0000000007F40404000000438C00000000097
:104EE000000000010638C00000020202FE000000BF
:104EF000004040407F000000000004020204000067
:104F000000000000000000000000000000000000A1
:104F10008080808080808080000202040000000089
:104F20000000000000000000000080808000000001
:104F300000192424123F200010F00080800000009F
:104F4000003F112020110E00000000808080000032
:104F5000000E112020201100000080808090F000C1
:104F6000001F202020103F20000080808080000053
:104F7000001F242424241700008080E0909020004B
:104F80000020203F202000000000808080808000E2
:104F9000006B94949493600010F000808080000077
:104FA000203F210000203F20008098980000000052
:104FB0000020203F20200000000000809898000082
:104FC00000C08080807F000010F0000080808000A2
:104FD000203F240629302000001010F800000000B7
:104FE0000020203F20200000808080808080800082
:104FF000203F20003F20003F808000808080000014
:10500000203F210000203F200000808080800000A1
:10501000001F202020201F008080008080000000D2
:1050200080FF912020110E00000000808000800091
:10503000000E11202091FF80808080008080800001
:1050400020203F212000010000008080808080001F
:105050000033242424241900008080E08080000094
:105060000000001F202010008080000000808000D1
:10507000001F202020103F20808080008080800042
:1050800000030C300C0300008080008080008080D2
:10509000010E300C073806010080808000808000FF
:1050A0000020310E2E312000808080000080808022
:1050B0000081867818060100008080808080800052
:1050C0000021302C222130000000000000FC0202F0
:1050D00000000000013E404000000000FF00000012
:1050E00000000000FF0000000202FC0000000000C1
:1050F00040403E01000000000002010202040200E4
:105100000000000000000000F8FCFEFEFEFEFEFEB7
:10511000FEFEFEFEFEFEFEFEFEFEFEFEFEFEFEFEAF
:10512000FEFE3EFEFEFEFEFEFEFEFEFEFEFEFEFE5F
:10513000FEFEFEFEFEFEFCF80000FFFFFFFFFFFF8D
:10514000FFFFFFFFFFFFFFFFFFFFFFFFFFFF7F7F6F
:105150003F1F07010081FFFFFFFFFFFFFFFFFFFF72
:10516000FFFFFFFFFFFFFFFFFFFF0000FFFFFFFF4D
:10517000FFFFFFFFFFFFFFFFFFFF3F0F07030100E0
:10518000000000E070183EFFFFFFFF7F3F0103FFBC
:10519000FFFFFFFFFFFFFFFFFFFFFFFF0000FFFF1D
:1051A000FFFFFFFFFFFFFFFFFFFFFFFFFEFEFEFC15
:1051B000F8F0E0E0C0C3C488808080C0C0E0E0F0C8
:1051C000FCFFFFFFFFFFFFFFFFFFFFFFFFFF0000F0
:1051D000FFFFFFFFFFFFFFFFFFFFFF81AF03A38381
:1051E00083BFA90B833BBFFFFFFF87FFFF3D017F0D
:1051F000FF8F87BF9FFFFFFFFFFFFFFFFFFFFFFF47
:1052000000007FFFFFFFFFFFFFFFFFFFFFF6F6F04D
:10521000FAFAFAFFE7E0FFFFFFFFFFE7F7F3F9FC19
:10522000FEFCF9F3F7E7FFFFFFFFFFFFFFFFFFFFC4
:10523000FF7F0000000001010101010101010101E6
:10524000010101010101010101010101010101014E
:10525000010101010101010101010101010101013E
:105260000101000000000003050911FF118905C3B9
:1052700000E000F000F8000000000000004428FFFB
:1052800011AA44000000000000000000000000001F
:10529000000000000000000000000000000000000E
:1052A00000000000000000000000000000000000FE
:1052B00000000000000000000000000000000000EE
:1052C0008301384482929274018300000000000040
:1052D000007C44C7017D7D7D7D017D7D7D7D017DDF
:1052E0007D7D7D01FF000000000000010001000144
:1052F00000010001000100000000000000000001AA
:10530000010000000000000000000000000000009C
:10531000000000000000000000000000000000008D
:10532000000000000000000000000000000000007D
:10533000000000000000000000000000000000006D
:105340000101000000000000010100000000000059
:105350000000000101010101010101010101010140
:1053600001010101010000000000000000000040F8
:105370004040404000006D6D6D6D6D0000606060EC
:10538000606000004040404040000000000000001D
:10539000000000000000000000000000000000000D
:1053A00000000000000000000000000000000000FD
:1053B00000000000000000000000000000000000ED
:1053C00000000000000000000000000000000000DD
:1053D00000000000000000000000000000000000CD
:1053E000000000000000000000000000000000DBE2
:1053F000DBDBDBDB0000DBDBDBDBDB0000DBDBDB69
:10540000DBDB0000DBDBDBDBDB0000DADADADADA5D
:105410000000D8D8D8D8D80000C0C0C0C0C0000094
:10542000C0C0C0C0C00000C0C0C0C0C00000C0C07C
:10543000C0C0C000008080808080000000000000AC
:10544000000000000000000000000000000000005C
:10545000000000000000000000000000000000004C
:105460000000000000000000000000000000000636
:1054700006060606000006060606060000060606E4
:105480000606000006060606060000060606E66694
:1054900020000606860606000006060606860000B0
:1054A0000606060606000086868686868080868634
:1054B000068686C0C08686860606D0307606060634
:1054C000060000060606060600000606060606009A
:1054D0000006060606060000060606060600000090
:1054E00000000000000000000000000000000000BC
:1054F00000000000000000000000000000000000AC
:10550000000000000000000000000000000000009B
:10551000601C00FE00010200C41820029E63B20E4F
:1055200000FF8181FF00008040300F00000000FF7D
:105530000023EAAABFAAEA033F00FF000000000020
:10554000000000000000000000000000000000005B
:10555000000000000000000000000000000000004B
:1055600000000000000000000080808000000000BB
:1055700000808080000000000000000000000000AB
:1055800000000000000000000000000000000E0C01
:1055900008000001010101010000000100000001FC
:1055A00000818080818081808080800101010100F4
:1055B00000000100000001000101090C0E000000C4
:1055C0000000000000000000000000000000C0C05B
:1055D000C0C0C0C0C0C0C0C0C0C0C0C0C0C0C0C0CB
:1055E000C0C0C0C0C000001E21404050215E001E4F
:1055F00021404050215E000000000000000000003B
:10560000000000000000000000000000000000009A
:10561000000000000000000000000000000000008A
:1056200000FFFFC1C1FFFFC1C1FFFF00000000007C
:10563000000000000000000000000000000000006A
:105640000000000000000000000000000000FFFF5C
:1056500080FCF3EFF3FC80FF80EEEEEEF5FBFF9CA9
:10566000BEB6B688FF000000000000000000000089
:1056700000008080C0C0E0E0E0F0F0F0F0F0F0F07A
:10568000F0F0F0F0F0F0E0E0E0C0C080800000005A
:1056900000000000000000000000000000C0E0F872
:1056A000FC7E1E1F0F07030381C1C18000000000A4
:1056B00000C0C0800000000081C1810303070F0FFC
:1056C0001E7EFCF8F0C000000000000000F8FFFFA4
:1056D000FF030000000000000000FFFFFFFFF0F0EC
:1056E000F0F0FFFFFFFF00000003F7F7F7010000F5
:1056F000000000000003FFFFFFFC000000000003AB
:105700001F7FFFF8E0C08000000000003F3F3F3FE8
:10571000000000000E3F3F3F000000003F3F3F08F9
:105720000000000080C0E0F8FF7F1F0700000000BD
:1057300000000000000107070F1F3E3C787878F05A
:10574000F0E0E0E0E0C0000000C0E0E0E0E0F0F009
:10575000F078783C3E1F0F0F0703000000000000A8
:105760000000000000000000000000000000000039
:105770000000000001030F1F3F3C3F1F0F0301000B
:105780000000000000000000000000000000000019
:105790000000000000000000000000000000000009
:1057A00000000000000000000000000000000000F9
:1057B00000000000000000000000000000000000E9
:1057C00000000000000000000000000000000000D9
:1057D00000000000000000000000000000000000C9
:1057E000000000000000000000000000307878FE9B
:1057F000FFFFFF7878380000000000000000000084
:105800000000000000000000008080C0C0C0C0E0B8
:10581000E0E0F0F0F0F0787878F8F8F8F0000000C8
:105820000001030301000000000000000000000070
:1058300000000000000000000000FCFFFFFF030369
:105840000301010101000000000000FFFFFFFF0055
:105850000000000000000000000000000000000048
:105860000000000000C0E0F0F0F0F0F0FFFFFFFFEC
:10587000000000000000E0F0F8FC3C3C7CFFFFFF73
:10588000FF00000000000000000000000000000019
:10589000000000000000001F3F7F7F7878787F3F86
:1058A0003F0F000000000000070F1F3F3E3C3E1F5F
:1058B0001F0F0700000000000000000000007078CB
:1058C00078FEFFFEFC787020000000000000000061
:1058D00000000000000000000000000000000000C8
:1058E00000000000000000000000000000000000B8
:1058F000000000030303010000000000000000009E
:105900000000000000000000000000000000000097
:105910000000000000000000000000000000000087
:1059200000000000000000000080C0E0F078783C3B
:105930003C1E0E0E0F0F070707070707070707078D
:105940000F0E0E1E1E3C3C78F0F0E0C08000000000
:10595000000000000000C0F0FC7E1F0703010000F3
:105960000000E0F0303878F0E000000000000000B7
:1059700000000000000000000000000101070F1FF0
:105980007EFCF0E08000F8FFFF0F01000000000047
:1059900000000000FFFF000000FFFF000030F0E00B
:1059A000F8F0CC8CFFFF8CC4F0F8F0F000000000A1
:1059B000000000010FFFFFF8FFFFFFC00000000024
:1059C00000000080E0F03F9FC0C0C09F3FF0E0B00B
:1059D0003E3C7C2CC7C7FFFFC78F7C7C3C3400005B
:1059E00000000000000080FFFF7F00071F7FFCF821
:1059F000E0C0000000030F1F3C3F77767733381F6D
:105A00000F01000000000000030100000000000082
:105A100000000000C0E0F8FC3F1F0700000000008D
:105A20000001070F0F1E3C7C78F0F0E0C0C0C0C042
:105A300080808080808080808080C0C0C0E0E0F076
:105A400070783C3C1E0F07030100000000000000BE
:105A50000000000000000000000000000001010143
:105A6000030303030303030303030303030101010C
:105A70000000000000000000000000000000000026
:105A80000000000000000000000000000000000016
:105A90000000000000000000FCFCFC000000000012
:105AA0000000000000000080000000000000000076
:105AB000000000000000000000000000070F1F1E93
:105AC0001C1880C0C0E0F070F0F0F1F1F0F0F0F0E0
:105AD000E0E0C08000181C1E0F070300000000005B
